:020000021000EC
:10C000000000012081F30100A9F30100ABF301005E
:10C01000ADF30100AFF30100B1F301000000000037
:10C02000000000000000000000000000B3F3010069
:10C03000B5F3010000000000B7F30100B9F30100FF
:10C04000BBF30100BBF30100ADFA0100BBF301003B
:10C05000BBF30100BBF30100BBF30100BBF3010024
:10C06000BBF30100BBF30100BBF30100BBF3010014
:10C07000BBF30100BBF30100BBF30100BBF3010004
:10C08000BBF3010009F40100BBF30100BBF30100A5
:10C09000BBF30100BBF30100BBF30100BBF30100E4
:10C0A000BBF30100BBF30100BBF30100BBF30100D4
:10C0B000BBF30100BBF30100000000000000000022
:10C0C000BBF30100BBF30100BBF30100BBF30100B4
:10C0D000BBF30100BBF30100BBF301000000000053
:10C0E0000000000000000000000000000000000050
:10C0F0000000000000000000000000000000000040
:10C10000000000000000000000000000000000002F
:10C11000000000000000000000000000000000001F
:10C40000044B05481B1A062B02D9044B03B11847ED
:10C41000704700BF53210020502100200000000081
:10C4200005490648091A891001EBD171491002D05B
:10C43000034B03B1184770475021002050210020C2
:10C440000000000010B5064C237843B9FFF7D8FF71
:10C45000044B13B10448AFF300800123237010BDD7
:10C4600050210020000000004C3C020008B5084BA1
:10C470001BB108490848AFF300800848036813B9A6
:10C48000BDE80840CCE7064B002BF9D09847F7E70A
:10C4900000000000542100204C3C02004C210020F0
:10C4A00000000000154B002B08BF134B9D46A3F561
:10C4B000803A00218B460F461348144A121A04F0A2
:10C4C00044F90F4B002B00D098470E4B002B00D0A7
:10C4D00098470020002104000D000D48002802D0DC
:10C4E0000C48AFF3008004F0ABF82000290003F003
:10C4F000F5FA04F07FF800BF0000080000000120FA
:10C50000000000000000000050210020C424002092
:10C51000000000000000000010B5044600F08CFE92
:10C52000D4F89031D4F8940114331B1A1422B3FBBD
:10C53000F2F002FB103010BDA0F5BE70FFF7ECBFAB
:10C5400010B5044600F078FED4F89401D4F8903188
:10C5500098421FBF01301422B0FBF2F302FB13001C
:10C560001ABF001990F898014FF0FF3010BDA0F5E8
:10C57000BE70FFF7E5BF10B5044600F05DFED4F8CD
:10C580009401D4F8903198421FBF421C1420B2FB92
:10C59000F0F300FB13201DBFC4F89401001990F8BC
:10C5A00098014FF0FF3010BDA0F5BE70FFF7E3BF5C
:10C5B00000F06ABE38B504460D4600F03DFE04F5B5
:10C5C000087000F0FFFC70B1D4F8AC315A1C234461
:10C5D000142AC4F8AC2183F8B05103D12368204653
:10C5E000DB6E9847012038BDA0F5BE70FFF7E2BFB3
:10C5F0002DE9F041044600F0BDFF4FF47A73C4F812
:10C600008431374B374F384903F10802226003F178
:10C610008802002504F5E276626003F1A002C833C7
:10C62000C4F87C31A260C4F88051304601F06CF847
:10C6300004F5F27839462D4A04F5E67000F0E8FC7E
:10C64000142304222A49404600F096FC3946294A20
:10C6500004F5027000F0DCFC14231022264904F5D6
:10C66000087000F089FC254A394604F5117000F085
:10C67000CFFC234BC4F8AC5131462046C4F894514A
:10C68000C4F89051C4F88C511C6000F02CFF04F5E4
:10C69000E871204600F027FF304600F0BAFB014663
:10C6A000204600F0D1FD04F5F471204600F01BFF98
:10C6B00004F50371204600F016FF124A2946404651
:10C6C00000F08FFC04F50971204600F00CFF2046B5
:10C6D00004F5127100F007FF2046BDE8F08100BFAD
:10C6E00070340200EA330200C0330200E533020076
:10C6F000EF330200143402002E34020053340200DF
:10C700006C2100206DC701000FB408B5029800F03D
:10C71000E2FDBDE8084004B0704710B5044602F0E1
:10C720004DFED4F88C316433984204D22046BDE8E3
:10C73000104000F081BD23682046DB6EBDE810404C
:10C74000184730B50A44142591420ED0D0F89031E4
:10C750005C1CB4FBF5F305FB1343C0F890310344B4
:10C7600011F8014B83F89841EEE730BD094B70B5E5
:10C770001D680B680C460846DB6898472368064628
:10C780001B6920469847314602462846BDE870405E
:10C79000FFF7D7BF6C210020D0F8AC2110B50446BC
:10C7A00092B100F5D871D2B200F5087000F0CFFB5D
:10C7B00002F004FE0023C4F88C01C4F8AC3120461A
:10C7C000BDE8104000F038BD10BDA0F5BE70FFF709
:10C7D000E3BF0000134B03F1080210B5026003F140
:10C7E0008802426003F1A002C83304468260C0F8A8
:10C7F0007C3100F5117000F0FCFB04F5087000F0CE
:10C8000091FB04F5027000F0F4FB04F5F27000F007
:10C8100089FB04F5E67000F0ECFB204600F066FEB4
:10C82000204610BD7034020010B50446FFF7D2FF59
:10C83000204603F067F9204610BD77DF70470000FF
:10C84000F0B52DED028B002183B04948494C02F030
:10C850005DF90121464884ED000A02F057F90221F2
:10C86000434884ED010A02F051F9206884ED020A80
:10C87000B0EE408AD4ED018A03F0FEFA68EE087A41
:10C880000446E8EEA87A0D4617EE900A03F0F4FA93
:10C8900041EC100B02F058F9B0EE401AF0EE601ABD
:10C8A00045EC104B02F04EF92DA3D3E9002351ECD7
:10C8B000100B03F035FB304D304CF1EE487AC5E9F2
:10C8C000000117EE900A03F0D7FAF1EE687ACDE98D
:10C8D000000117EE900A03F0CFFA9DED001B41EC2A
:10C8E000100B02F02FF91EA3D3E9002351EC100B1B
:10C8F00003F016FB002206460F46214BD5E9000146
:10C9000003F05CF90022C5E900011E4B30463946B0
:10C9100003F078FDB8B114A3D3E9002330463946BB
:10C9200003F04CF90022184B06460F4603F088FD31
:10C9300010B9C4E900670EE00022134B30463946B7
:10C9400003F03AF905E00022104B3046394603F077
:10C9500035F9C4E9000103B0BDEC028BF0BD00BFA6
:10C9600046DF617EDCA54C400000000000207C40DA
:10C97000902100207021002080210020A82100208B
:10C9800000806640008056C000807640008056409F
:10C9900030B55648ABB0FFF70BFE002800F0A4807E
:10C9A000534CD4E9000103F055FD0A2204A903F019
:10C9B00084FE504904A804F04DFDD4E90045294601
:10C9C000204603F047FD03F045FA02460B46204699
:10C9D000294603F0F1F8484B484C002203F0A0FA36
:10C9E00003F060FD0A2202A980B203F066FE02A9EC
:10C9F00004A804F02FFDD4E9000103F02BFD0A2266
:10CA000006A903F05AFE3B4906A804F023FDD4E929
:10CA100000452046294603F01DFD03F01BFA02469F
:10CA20000B462046294603F0C7F8334B002203F09B
:10CA300077FA03F037FD0A2203A980B203F03DFE26
:10CA400003A906A804F006FD2D4B2E4A1B6800938F
:10CA500000242D4B0894102108A809940A940B94E3
:10CA600004F0C6FC294B274A1B6800931021284B71
:10CA70000C940CA80D940E940F9404F0B9FC254B63
:10CA8000204A1B6800931021234B109410A8119486
:10CA90001294139404F0ACFC04A914A804F0F3FC61
:10CAA0001E4914A804F0D6FC06A914A804F0D2FC70
:10CAB0001A4914A804F0CEFC08A914A804F0CAFC72
:10CAC000164914A804F0C6FC0CA914A804F0C2FC72
:10CAD000124914A804F0BEFC10A914A804F0BAFC72
:10CAE00014A90F4802F09EFE2BB030BDC8210020D3
:10CAF000802100205035020000005940A82100206C
:10CB0000B02100205635020052350200BC21002021
:10CB10005C3502008C21002060350200783902006B
:10CB20004423002010B53448344C2DED028BFFF720
:10CB3000F4FD322002F05AFC314BD4ED007A93ED33
:10CB4000008A37EE888A02F039FC07EE900AF8EE88
:10CB5000677AB4EEE78AF1EE10FA4AD502F02EFCBD
:10CB600007EE900AF8EE677A1D20C4ED007A02F015
:10CB700061FC244B18601C2002F05CFC40F2FE3388
:10CB8000B0FBF3F0642358431F4B18601E2002F0E3
:10CB900051FC1E4BB0F5AF7F186017DA0121082059
:10CBA00002F00EFD0121042002F00AFD4FF47A701C
:10CBB00002F01CFC0021082002F002FD04200021EC
:10CBC00002F0FEFC4FF47A7002F010FCFFF738FE22
:10CBD00002F0F4FB0E4A0F4B11681B68401A984292
:10CBE00007D3BDEC028B0B44BDE810401360FFF788
:10CBF000CFBEBDEC028B10BDC8210020C02100209B
:10CC000088210020BC2100208C210020B0210020A0
:10CC1000B4210020C421002038B5104B104C1A68F4
:10CC2000104B114D1A601821204601F0FBFE2046E2
:10CC30000E4C0F492A4603F0A5FC092302220A21C3
:10CC40002046FFF7D5FC2A460A49204603F09AFC05
:10CC500000210948BDE8384000F0E3B884200020F6
:10CC6000902100208821002080200020C821002061
:10CC700031EA0100D5C70100B821002010B5184CD9
:10CC80001849204600F0E3FA2046FFF73DFD6FF01B
:10CC90000300FFF7D2FD322002F0A8FB4FF4E13190
:10CCA000114802F0CBFD114801F0F0FE642002F0C3
:10CCB0009DFB0121042002F061FC0121042002F00F
:10CCC0007FFC0121082002F059FC0820002102F01D
:10CCD00077FC4FF4FA70BDE8104002F087BB00BF4C
:10CCE000C82100207135020050240020902100202E
:10CCF00038B50025057329B90B4B0C4A0C48232184
:10CD000003F046FC01600B4951F82220027151F8F2
:10CD1000233083719DF8103051F823304371022382
:10CD2000C371856038BD00BFB93502007C35020093
:10CD3000C735020028380200037B23B9437383738D
:10CD400003610123037370471FB50DF1100E0EE947
:10CD50000E009DF80810026800230129C2F8003572
:10CD6000039B08D004D3032907D143F0040304E054
:10CD700043F0020301E043F00603C2F85435019B7F
:10CD8000C2F824350123C2F8003505B05DF804FB74
:10CD900010B5FFF7D1FF03688279C3F808254279FF
:10CDA000C3F80C250279C3F81025034BBDE81040E9
:10CDB0000ECBFFF7C9BF00BF242400200368C3F8CF
:10CDC0001C15D3F80821002AFBD0D3F8180500223F
:10CDD000C3F80821C0B2704707B5094B09490A4892
:10CDE0004FF080421A6000229A6002221A711323C7
:10CDF000009314221223FFF77BFF03B05DF804FBBE
:10CE00002424002000300040302400200160828073
:10CE10007047006870478088704729DF704728DFB7
:10CE200070474FF080531A695B69013B591A5143AF
:10CE30000160704703681868013018BF012070470F
:10CE400008B54FF080531A690368B3FBF2F3184634
:10CE5000FFF7E5FF1128FAD008BD38B504460D46A6
:10CE60001946FFF7EDFF8B081A4629462068FFF7A1
:10CE7000D4FF1128F8D038BD10B502680846043A2E
:10CE8000441AA34204D952F8044F40F8044BF7E780
:10CE900010BD07B500230622694604300093ADF8A3
:10CEA000043003F01DFC003018BF012003B05DF812
:10CEB00004FB0B6843608B88038170470023436049
:10CEC0000381704708B50160FFF7F8FF08BD807A5D
:10CED0007047C0687047007C704700207047C36887
:10CEE000585C704770B50D46114602680446D66915
:10CEF0001A46B0470123A374A36923B121462846EB
:10CF0000BDE87040184770BD70B5044608460D4630
:10CF100004F0C1FA2368C2B229462046DB69BDE8A5
:10CF200070401847044B10B504460360C06808B150
:10CF300003F0CEFB204610BD0836020010B50446B3
:10CF4000FFF7F0FF204602F0DDFD204610BD10B5D2
:10CF5000837A9A42044628BF1A460274C06803F0D6
:10CF6000CEFB606928B1036821461B68BDE810400C
:10CF70001847012010BD000070B504461D46164636
:10CF8000043042F6030200F091F8142D4FF0000235
:10CF900028460A4B236028BF1420A072E260227446
:10CFA0006674A274E2746261A261E261226215B1E8
:10CFB00003F086FBE060204670BD00BF083602002B
:10CFC000407C7047C07C70470346002ADA7414BF67
:10CFD00007220822084653F822200AB119461047B2
:10CFE00070470B299CBF063140F8212070474161F2
:10CFF0007047704700697047007D70470369585C4F
:10D00000704710B5044602F07DFD204610BD0000BB
:10D0100038B50446154604304FF4245200F046F863
:10D02000044B23602561284604F035FA207520461C
:10D0300038BD00BF38360200704770477047002087
:10D0400070477047704700207047002070470020ED
:10D050007047002070470020704700207047002074
:10D060007047002070470020704700207047002064
:10D07000704700207047704770477047704710B581
:10D08000044602F03FFD204610BD0000054A026044
:10D090006422828001210022C28002818172C260EA
:10D0A00002617047543602000161704710B50446B2
:10D0B000FFF7ACFE024A137801331370204610BD0F
:10D0C00044240020014B1878704700BF44240020FE
:10D0D000C06803681B6A1847A0F10400FFF7F8BF97
:10D0E000C06803685B6A1847A0F10400FFF7F8BF47
:10D0F000C06803689B6A1847A0F10400FFF7F8BFF7
:10D10000C0680368DB6A1847A0F10400FFF7F8BFA6
:10D11000C06803681B6B1847A0F10800FFF7F8BF51
:10D12000C06803685B6B1847A0F10800FFF7F8BF01
:10D13000C06803689B6B1847A0F10800FFF7F8BFB1
:10D14000C06810B40468E46BA4465DF8044B604703
:10D15000A0F10800FFF7F4BFC06803681B6C184714
:10D16000A0F10800FFF7F8BFC06803685B6C1847C0
:10D17000A0F10800FFF7F8BFC06803689B6C184770
:10D18000A0F10800FFF7F8BFC0680368DB6C184720
:10D19000A0F10800FFF7F8BFD0F8743113B100F523
:10D1A000B07018477047D0F8783113B100F5B070FF
:10D1B0001847704730B414461A4623685D6A9DF8D4
:10D1C000083000F5B071AC46204630BC604770476F
:10D1D000704770B5054600F5B07411462046FFF75C
:10D1E00068FED5F86C311BB12046BDE87040184789
:10D1F00070BDD0F8703110B500F5B0740BB1204699
:10D2000098472046BDE81040FFF758BE10B41446BA
:10D2100000F5B0711A4620465DF8044BFFF7D4BE06
:10D2200010B4144600F5B0711A4620469DF804303B
:10D230005DF8044B00F04ABAC0680368DB68184721
:10D24000C06803681B691847C0F88C107047C0F8A5
:10D250009C10704738B5D0F8A83004460D463BB94D
:10D2600000F010FA00B2800003F02AFAC4F8A80017
:10D2700094F8AC20D4F8A83043F8225094F8AC309D
:10D28000013384F8AC3038BD10B50446FFF7D4FF45
:10D2900004F5B070BDE81040FFF7FBBD10B50446C3
:10D2A000FFF710FF00B2800003F00AFA04F1B003A8
:10D2B000036004F1BC03436004F1E003836004F500
:10D2C0008073C36004F586730361052384F8A4307A
:10D2D000C4F8A00010BD2DE9F043D0F89010ADB017
:10D2E000002304468DF83030E1B106A800F014FAAE
:10D2F00006A800F043FA022805468CBF1523142324
:10D300008DF8500006A88DF8513000F035FA2A4605
:10D310000146C5F11A050DF1520003F0F0F9EDB226
:10D32000012601E01C250E46D4F88C1031B306A866
:10D3300000F0F2F906A800F021FA431CAB420746C0
:10D340001CDAC6EB46182CAB434402288CBF0622DD
:10D35000022203F8600C03F85F2C06A800F00CFA18
:10D360002CAB984401463A46A8F15E00023D03F01A
:10D37000C6F90136ED1BF6B205F0FF05D4F894109E
:10D38000C9B194F89820B2B1022D14D9531CAB4204
:10D39000C6EB46102CAB0344A4BF023DEAB2FF2506
:10D3A00003F8602C03F85F5C2CAB18445E3803F084
:10D3B000A6F90136F6B2D4F89C50BDB1284604F067
:10D3C0006AF8C0B21D288ABF1D238DF830008DF881
:10D3D00030309DF8302090428CBF082009208DF815
:10D3E000310029460DF1320003F089F9D4F8A0305C
:10D3F00013B92046FFF752FF002742F6030804F155
:10D40000040994F8A4309F4205DB002742F6030884
:10D4100004F108091BE0D4F8A03053F8275028463F
:10D42000FFF7F9FC404506D10DB1281F00E0284662
:10D430004946FFF7DCFD0137E3E7D4F8A83053F89D
:10D4400027502846FFF7E7FC404505D0013794F800
:10D45000AC309F42F1DB07E00DB1281F00E0284609
:10D46000494600F047F9F1E74BB104F596712046C3
:10D47000FFF7F0FE04F59C712046FFF7EBFEE06835
:10D4800094F8AC1002680491D4F8A810039194F8B1
:10D49000A41002919DF83030D4F8A01001910CA98D
:10D4A0000033009118BF01239568314614AAA8479C
:10D4B000E06803681B6D98472DB0BDE8F08338B570
:10D4C000D0F8A03004460D460BB9FFF7E7FE94F8FC
:10D4D000A420D4F8A03043F8225094F8A4300133AB
:10D4E00084F8A43038BDFFF7EABF0000154B10B533
:10D4F00003F1680203600446803342608360FFF7F3
:10D500009FFED4F8A80008B103F0E2F8D4F8A00018
:10D5100008B103F0DDF804F59A7000F0B9F804F5ED
:10D520008470FFF7FFFC04F1DC00FFF7FBFC04F163
:10D53000B800FFF7F7FC04F1100000F001FE2046F0
:10D5400010BD00BFDC36020010B50446FFF7CEFF69
:10D55000204602F0D7FA204610BD07B502AB0222E2
:10D5600023F8021DDC301946FFF7F1FC03B05DF82B
:10D5700004FB00002DE9F843354BDFF8E890DFF8B5
:10D58000E88003F108020446026000F1100703F18D
:10D5900070028833002542608360384601F00CFA3F
:10D5A00004F1B806C4F88C50C4F89050C4F89450F4
:10D5B00084F89850C4F89C50C4F8A05084F8A45043
:10D5C000C4F8A85084F8AC50224904F1B00000F02F
:10D5D0009BF81323022220493046FFF7CDFC02239B
:10D5E0001A461E4904F1DC00FFF7C6FC494604F563
:10D5F000807000F089F804232022414604F58470ED
:10D60000FFF7BAFC494604F5967000F075F8202241
:10D61000414604F59A7000F043F8214604F5B070D5
:10D62000FFF750FC10222946E76004F5B67003F0BE
:10D630008CF80B493046FFF767FC29462046FFF778
:10D640008CFFE0682146FFF72FFD2046BDE8F883F8
:10D65000D4360200B0360200B5360200BA360200F7
:10D66000C9360200BF360200C436020010B50446B7
:10D67000FFF7CCFB024A137801331370204610BD2C
:10D6800045240020014B1878704700BF4524002036
:10D69000704710B5044602F035FA204610BD000070
:10D6A00038B504461546043042F60302FFF7DEFFA4
:10D6B000054B23600023A572E372A36284F8223035
:10D6C0006362204638BD00BF8437020070B504464F
:10D6D000C3720D460C3011461A4603F010F80123B0
:10D6E00084F82230A36A23B121462846BDE8704061
:10D6F000184770BD4162704710B54FF42052044680
:10D70000FFF7B4FF204610BD10B54FF42052044679
:10D71000FFF7CCFC204610BDF7B50446002321607E
:10D72000037508460E468DF804308DF805308DF8E7
:10D73000063003F0B0FE451E002D1ADB277D0F2FAB
:10D7400017D8735D2D2B01D1013510E0721900211E
:10D7500012F8012C8DF8042001A810228DF8053054
:10D7600003F020FF27443871237D01332375023DE8
:10D77000E2E7204603B0F0BD04307047007D7047FB
:10D7800071DF704772DF704773DF704775DF704776
:10D7900076DF704777DF704778DF70477ADF704752
:10D7A0007CDF70477EDF70477FDF704786DF704722
:10D7B00090DF704792DF704796DF704798DF7047C1
:10D7C00099DF7047A0DF7047A2DF7047A3DF704783
:10D7D000A4DF7047A6DF7047A9DF704760DF70479E
:10D7E00061DF704762DF704763DF704753DF704768
:10D7F00010DF704711DF704790F86000003018BFED
:10D800000120704770B590F871600023B34214DABC
:10D810001A01456FAC18AA588A420CD1E38973B13A
:10D82000227B02F0020202F0FF0342B190F878007E
:10D8300080F0010070BD0133E8E7002070BD18469C
:10D8400070BD70B590F871600023B3421ADA1A0106
:10D85000456FAC18AA588A4212D1E189A1B1227B46
:10D8600002F0020202F0FF0382B1012380F8783057
:10D870000022808FFFF7A0FFB0FA80F0400970BD52
:10D880000133E2E7002070BD084670BD184670BD48
:10D8900070B590F871600023B3421CDA1A01456F2D
:10D8A000AC18AA588A4214D1E389B3B1227B13077A
:10D8B00004D590F8780080F0010070BD02F00402F9
:10D8C00002F0FF034AB190F86000003018BF012059
:10D8D00070BD0133E0E7002070BD184670BDF0B5A3
:10D8E00090F871E085B0002474452FDA2501476F68
:10D8F0007E197D598D4227D1F4894CB3357B15F0C3
:10D900000C0127D090F8601021B315F0080F14BF58
:10D9100001250225ADF80A300139012380F8601095
:10D920008DF8045080F87830002501A9808F8DF89B
:10D930000550ADF80640ADF808500392FFF73EFFE2
:10D94000B0FA80F0400906E00134CDE7002002E0A3
:10D95000204600E0084605B0F0BD70B590F8716053
:10D960000023B34210DA1A01456FAC18AA588A4254
:10D9700008D1E08948B1237B13F0300F14BF012098
:10D98000002070BD0133ECE7002070BD7FB590F83A
:10D9900071600023B3422EDA1A01456FAC18AA5801
:10D9A0008A4226D1E28942B3217B11F0300326D08E
:10D9B000012311F0100F14BF194602211A44ADF8CB
:10D9C0000210ADF80620002102228DF80510ADF8F6
:10D9D0000810ADF80A2080F878306A4401A9808FD9
:10D9E0008DF804300392FFF7E9FEB0FA80F04009A9
:10D9F00006E00133CEE7002002E0104600E01846C2
:10DA000004B070BD03681B6C18477FB590F8716057
:10DA10000023B3422ADA1A01456FAC18AA588A4289
:10DA200022D1E28922B3237B13F030034FF00001AF
:10DA300020D001231A44ADF806200222ADF80210CE
:10DA40008DF80510ADF80810ADF80A2080F8783090
:10DA50006A4401A9808F8DF804300392FFF7AEFE6F
:10DA6000B0FA80F0400906E00133D2E7002002E07E
:10DA7000104600E0184604B070BD11F1270F08B53C
:10DA800014DB11F11D0F14DB11F1130F14DB11F175
:10DA90000F0F14DB11F10B0F14DBCA1D15DBCB1CB0
:10DAA00016DB0029D4BF0020042013E06FF027000C
:10DAB00010E06FF01D000DE06FF013000AE06FF052
:10DAC0000F0007E06FF00B0004E06FF0070001E0CB
:10DAD0006FF00300FFF75EFEB0FA80F0400908BD6A
:10DAE0001321808FFFF754BE07B501466846FFF744
:10DAF00047FE086920B103680DF10102DB69984710
:10DB000003B05DF804FB000013B5044602A800232F
:10DB100040F8043DFFF76AFE019802F09BF9084BBC
:10DB2000002202F0FDF902F0DDFC236933B11A682E
:10DB300000EE100A126A21461846904702B010BD46
:10DB40000000D03F704710B5044686B0182200216F
:10DB5000684602F0FAFDA37A33B994F83430002B0A
:10DB600014BF0223032300E000238DF80030A388B4
:10DB700068460A221B0193FBF2F3ADF81030FFF761
:10DB800003FE06B010BD2DE9F043054690F8610094
:10DB90008FB00C460023142683425DDA06FB03F2A5
:10DBA000696E8F188A58A24207D12046FFF708FAFB
:10DBB000C30751D57B6813B94EE00133ECE795F804
:10DBC00033600DF11808324605F11401404602F0A9
:10DBD00096FD236820461B69984704300644F6B238
:10DBE0001F2E39D87868FFF714F901466846FFF709
:10DBF00093FD236895F833701B69204698470EAB58
:10DC00001F44033007F8200C95F833703B4416226C
:10DC1000684603F81F2CFFF7AFFD0237038828F88A
:10DC20000730236895F83370DB68204698472368EF
:10DC300081461B69204698470437474402464946B7
:10DC4000384602F05CFD00231A4631464046FFF795
:10DC500099FDAC63012000E000200FB0BDE8F08327
:10DC60002DE9F047D4B04FF48E7304460DF10A014C
:10DC70000DA8ADF80A30FFF7B3FD0346002840F0C9
:10DC80004482BDF83420302A00F03C8111D8112A9A
:10DC90005CD004D8012A21D0102A27D035E2142ADA
:10DCA00000F0C780192A00F0D080132A40F02D829E
:10DCB0009BE0382A00F0DA8106D8322A00F064812D
:10DCC000362A00F0BA8120E2502A00F0D180522A90
:10DCD00000F01281392A40F01882ECE194F86020BB
:10DCE0009DF83C30134484F860300EE2BDF83800F3
:10DCF000A08705A9FFF776FD20699DF8143084F808
:10DD0000603028B103680DF13D021B682146984739
:10DD1000E288052A12D92389B3F5486F0ED8ADF8E9
:10DD200016300023ADF8183005A94FF4C873A08F42
:10DD3000ADF81420ADF81A30FFF728FD94F86830DC
:10DD4000002B00F0E2810022012109E14FF6FF7271
:10DD5000A28784F8600005464FF01409804694F8C5
:10DD600061309D4216DA676E09FB05F6BB19B8599A
:10DD700083F8108083F81180FFF724F940B12069FF
:10DD800030B10368BA59D3F814A021460023D04714
:10DD90000135E4E7206918B1036821465B689847BC
:10DDA00000230C20194694F86820934202DB0023DC
:10DDB000184605E0E26E00FB032201339160F2E7B2
:10DDC00094F87120934208DA616F1A01114401330B
:10DDD0000873616F0A44D081F2E7002384F8783039
:10DDE000236820469B6998478FE1E068002800F08F
:10DDF0008681FFF71FF8002840F08181012303226C
:10DE00008DF80F3062F306138DF80C3007238DF870
:10DE10000D30102300218DF80E30E36D05938DF841
:10DE2000101009910A910B910691079105AB03AA75
:10DE300068E1E16DBDF84420488A904218BF194658
:10DE4000A08F1A46FFF7B2FC5FE19DF83C20002A44
:10DE500040F05B81E06820B11C2304F14001FEF733
:10DE6000FCFF2069002800F0508103689B68E1E016
:10DE7000BDF83A8006464FF0140994F861309E428E
:10DE800080F24381616E09FB06F3CF183A8942455F
:10DE90000CD12069002800F0388103689DF84420E7
:10DEA00000921D693A680DF1460323E1BA894245A3
:10DEB00020D19DF847009DF8462042EA002295B205
:10DEC00002F001023A74C5F340027A7415F00305BA
:10DED000C85818BF0125FFF775F8A8420AD0206975
:10DEE000002800F0128103683A685E6921462B46DB
:10DEF000B0470AE10136C0E702460146A08FFFF7AE
:10DF00006BFC02E1BDF83A2072BBBDF840500DA990
:10DF100013460C26AB421CDA94F868700020B84215
:10DF200014DAE26E91F810C006FB002292F806E0C7
:10DF3000F44509D1B1F80EC0B2F804E0F44503D1BC
:10DF4000D1F81200906001E00130E8E701330831B8
:10DF5000E0E70DAB03EBC5050022A989013189B2C9
:10DF6000A08FFFF725FCD0E094F868200C209342A6
:10DF700080F2CB80E16E00FB03110D8915B14D8954
:10DF8000002D4BD10133F2E7BDF83A2094F8703000
:10DF9000002A36D1E66E03EB430306EB83030A2522
:10DFA0009B6805930DAB9A8905FB0235AB4223D0E4
:10DFB000002194F87120914219DA626F94F8700090
:10DFC00002EB011200EB400056F8207050688742C7
:10DFD0000BD11F7C907A874207D11089DF89874255
:10DFE00001BF987C1073D88AD0810131E1E7DA8AC9
:10DFF000ADF814200A33D9E705A9A08FFFF7DAFBA3
:10E0000083E001330C2294F868005A4383420CDA0F
:10E01000E16E11440D892DB14D891DB184F8703028
:10E020000831EAE701330C32F0E7206900286CD0B0
:10E030000368DB682146984767E0BDF83A1084F82A
:10E04000780040F20512914201D1E268CAB9BDF8E8
:10E05000401094F871000023834256DA626F02EB9D
:10E060000312D5898D423BD00133F5E7BDF83A1054
:10E0700084F8780040F20512914246D1E268002A05
:10E0800043D01A0E8DF8183042F00102DBB28DF841
:10E09000172043F00103032262F306138DF81430B6
:10E0A00007238DF8153005A91023A08F8DF81630A1
:10E0B000FFF778FB29E09DF84230BDF84050022B75
:10E0C00003D12946A08FFFF77BFB94F87110002342
:10E0D0008B421ADA626F02EB0312D089A8420CD18C
:10E0E000206990B19DF844100368009112689D6901
:10E0F0000DF146032146A84707E00133E8E7002376
:10E100001A468521A08FFFF74FFB54B0BDE8F0877A
:10E1100010B50446FFF76EFB606F08B102F0D8FA45
:10E12000E06E08B102F0D4FA606E08B102F0D0FAE5
:10E13000002384F8613084F8683084F8713010BDB1
:10E1400010B5054B03600446FFF7E2FF2046FEF7DB
:10E1500095FF204610BD00BF9837020010B5044659
:10E16000FFF7EEFF204601F0CDFC204610BD07B5BD
:10E170001288ADF80020ADF802106A4601464FF64D
:10E18000FF700193FFF724FB03B05DF804FB000070
:10E190002DE9F04FEDB09A469DF8E8310193A24B7E
:10E1A000769E9DF8E0810546186808900F4608A8FD
:10E1B00000211446FFF71CFB9C4B099314220021FD
:10E1C0000DA802F0C2FA0A2309A9ADF834300DA84F
:10E1D00001238DF840308DF83C30FFF7FFFA2822FC
:10E1E000ADF82C205022ADF82E204FF000094FF44E
:10E1F000C8720BA8ADF83220ADF83090FFF7CEFA18
:10E200004846FFF7C7FA6B7506230222AB75032356
:10E210002A7585F833301FB314B31444B9451FDA97
:10E2200095F8330014F8023C2A18013313750230B4
:10E2300014F8013C5375C0B285F83300284414F833
:10E24000022C2146143002F05AFA14F8023C95F8D8
:10E250003320134485F8333009F101091F34DDE719
:10E2600024AFBAF1000F20D00EB34FF000090236F0
:10E270004B46D1451CDA16F802BC16F8011C0BF10E
:10E280000102FA549C1CFA18E4B2517038195A462B
:10E29000314602F034FA5C444FF00102E3B285F8F3
:10E2A000342009F101091F36E3E7534600E0334605
:10E2B0003A4695F8331005F11400FFF763FA002091
:10E2C000FFF76AFA002442F6030644450DDA779B0D
:10E2D00053F82400FEF79FFDB04202BF95F861306D
:10E2E000013385F861300134EFE795F861000338B8
:10E2F000C0B285F8610000EB8000800002F0E0F918
:10E3000000266866ADF814600296B146464580F274
:10E31000BE81779B53F826402046FEF77AFD0146E2
:10E3200017A8FFF7F9F917A8FFF726FA074617A865
:10E33000FFF724FA022809D17A783B7843EA0223CE
:10E34000ADF8283001238DF82A301CE03B460DF152
:10E35000B00E07F1100C18685968724603C20833F2
:10E3600063459646F7D17A7B3B7B43EA0223ADF8BF
:10E3700028300DF12A0100232CA88DF8BD308DF82E
:10E38000BC30FFF731FA2046FEF745FDB0F5205FBF
:10E39000204611D1FEF73DFD254903F06AF800281B
:10E3A00000F073812046FEF734FD224903F061F846
:10E3B000002800F06A8131E2FEF72DFD42F60303EA
:10E3C000984240F0358104B1043C271D3846FEF7E1
:10E3D00020FD194903F04DF8B8B99DF8B03001227D
:10E3E00062F3030362F307138DF8B030236820460D
:10E3F000DB689847236807461B69204698473946DB
:10E4000082B22CA8FFF7CCF93FE13846FEF701FDB8
:10E410000A4903F02EF898B923682046DB6898472C
:10E420000088FFF7B9F930E18C3702008020002026
:10E43000B0360200BF360200B5360200BA3602001E
:10E440003846FEF7E6FCC14903F013F8002800F057
:10E450001C812046FEF7B4FD236882461B692046D6
:10E4600098476A6EADF8160009EB89014FEA810BF7
:10E4700002EB0B0342F821400027029A5A601F74F6
:10E480005F741C2239461DA802F05FF92AF00103CF
:10E490001AF0300F8DF8743010D00123194663F351
:10E4A00007118DF81810194606AA63F3071163F3D4
:10E4B00042078DF819108DF81A70229200231AF075
:10E4C000320FADF81C308DF81E300BD09DF81C308B
:10E4D000E968012262F3030301B1022262F3071328
:10E4E0008DF81C301AF00C0F10D0EB6801222BB104
:10E4F0009DF81D3062F30303022203E09DF81D30F6
:10E5000062F3030362F307138DF81D309DF81E308C
:10E51000012262F342038DF81E30236820469B6976
:10E5200098479DF81E3080F0010060F300038DF8DD
:10E530001E30771C47453CDA779B53F827A050469E
:10E54000FEF769FCB0F5245F33D1BAF1000F01D0BA
:10E55000AAF1040A0AF1040318460393FEF759FCD2
:10E560007B4902F086FF039BA0B9DAF800305046E1
:10E570009B6898471E90DAF800305046DB68984751
:10E58000DAF80030ADF87C00DB6850469847ADF80B
:10E590007E000CE01846FEF73CFC6E4902F069FF75
:10E5A00028B9DAF8003050469B6898472090013728
:10E5B000C0E71422002112A802F0C7F80DF1160AD4
:10E5C0000AAB129307AB1393BAF80030ADF8503092
:10E5D000236820469B6898476B6EADF8540000276F
:10E5E0005B44083312AA1DA938461697FFF7ECF8CA
:10E5F000BAF80030BBB12CABBAF8002003939742B5
:10E6000008DA22683946526920469047039BD8555C
:10E610000137F1E76B6E9B4452462CAB0021BBF8EF
:10E620000800FFF7A4FD09F101095FFA89F92CE060
:10E630002046FEF7F0FBB0F5245F26D104B1043C80
:10E64000271D3846FEF7E5FB414902F012FFE0B115
:10E650003846FEF7DEFB404902F00BFFA8B1384612
:10E66000FEF7D7FB3D4902F004FF70B13846FEF7D4
:10E67000D0FB384902F0FDFE38B1D6E02CAB524653
:10E680000021BDF81400FFF772FD01363EE6019B44
:10E6900023B3A3F102085FFA88F6002442F60307C9
:10E6A000B442B0461CDA799B53F824804046FEF70A
:10E6B000B2FBB0F5205F05D195F86830013385F8DD
:10E6C000683009E04046FEF7A6FBB84202BF95F865
:10E6D0007130013385F871300134E1E7DDF80480F1
:10E6E00095F8680000EB4000800001F0E9FFE86663
:10E6F00095F87100000101F0E3FFDDF8E49168672F
:10E70000002609EB88083746B246C14579D059F84A
:10E71000044B2046FEF77DFB01462CA8FEF7FCFFCC
:10E720002CA8FFF729F883462CA8FFF727F8022822
:10E7300016D19BF801209BF8003043EA0223ADF884
:10E740005C3001238DF85E3029E000BFC436020042
:10E75000EA330200F4370200F9370200FE37020004
:10E760005B460DF1740E0BF1100C18685968724677
:10E7700003C2083363459646F7D19BF80D209BF8FA
:10E780000C3043EA0223ADF85C300DF15E0100234A
:10E790001DA88DF881308DF88030FFF725F82046D0
:10E7A000FEF739FBB0F5205F10D1EA6E07EB4701A9
:10E7B0008B00D01842F82140179A4260EA6E134449
:10E7C000013700229A60FFB2A2469EE72046FEF77C
:10E7D00022FB42F60303984297D1696F3301CA18AE
:10E7E00004B1043CCC50C2F804A0179991606A6F40
:10E7F0001A44002111736A6F13440136D981F6B2AD
:10E8000083E7E86818B1FEF715FB002865D12B688F
:10E8100028469B6998476DB0BDE8F08F05AA0AA904
:10E820000120FEF7CFFF02942FE723682046DB6824
:10E83000984712AF14220021ADF81C001DA801F06A
:10E8400084FF4FF0010A00233B806AF34203BB7050
:10E8500023682046DB689847BDF81C10BB78EA683F
:10E8600080B2401A18BF012060F30003BB703B78F0
:10E870002AB16AF30303022262F3071303E06AF387
:10E8800003036AF307133B700AAB1E971D932368BB
:10E89000ADF87C10DB682046984700270DF11C0A74
:10E8A000ADF8800005AA1DA938462197FEF78EFF16
:10E8B000BAF80030002B3FF4E8AE0DF1B00BBAF817
:10E8C00000309F42BFF6DAAE236839461B69204606
:10E8D00098470BF807000137F1E71C23002205F1E8
:10E8E0004001E868FEF7C8FA91E700BF2DE9F04F54
:10E8F00087B004460D46002601274FF014090DF19C
:10E90000060894F861309E4252DA09FB06F3626E03
:10E9100002EB030AD358AB4248D1A36B9D4204D10A
:10E92000236829465B6A204698472B6828461B695E
:10E9300098472B68ADF80600DB68BAF808B028469F
:10E9400098474246034600215846FFF710FC102224
:10E95000002102A801F0F9FEBAF80830ADF808303D
:10E960009AF81030CDF8108073B194F8603053B13C
:10E97000013B84F8603002A90123A08F8DF80A3092
:10E98000FEF728FF00E01F469AF8113073B194F8A3
:10E99000603053B1013B84F8603002A90223A08F9C
:10E9A0008DF80A30FEF716FF00E01F460136A8E793
:10E9B000384607B0BDE8F08F10B50446FEF766FB99
:10E9C000104B236000214FF6FF7304F1400084F8E0
:10E9D000331084F83410A163A38784F8601084F89E
:10E9E0006110616684F86810E16684F8701084F83C
:10E9F0007110616784F87810E0651C2201F0A5FEB3
:10EA0000204610BD9837020070B505460C468E189A
:10EA1000B44206D021782846FEF7D0F904F8010B5D
:10EA2000F6E770BD014A0260416070473024002063
:10EA3000704770B5044615460E464068002100F048
:10EA4000BFFD04F108012068267265720222FFF7FB
:10EA5000DBFF60680121BDE8704000F0B1BD38B552
:10EA600004460D464068002100F0AAFD214665F0ED
:10EA70007F0501F8085F02222068FFF7C5FF606884
:10EA8000012100F09DFD607A38BD000038B50446D4
:10EA90000121406800F072FD0121606800F090FDE6
:10EAA0002068FEF775F90F212046FFF7D8FF0328ED
:10EAB000054605D01249134800F0B4FE284638BD7B
:10EAC000204641221A21FFF7B4FF204602221F21CF
:10EAD000FFF7AFFF2046D8221C21FFF7AAFF2046F0
:10EAE00001222721FFF7A5FFC12220461B21FFF7A6
:10EAF000A0FF0549034800F095FE002038BD00BF87
:10EB000003380200502400201438020070B54D0074
:10EB1000E91C0646FFF7A3FFA91C04463046FFF791
:10EB20009EFF40EA042000B201F094F90022044B59
:10EB300001F0F6F901F0D6FC00EE100A70BD00BF3E
:10EB40000000103F00F060B8D0B52DED048BB0EEA2
:10EB5000409AF0EE609A294C8AB000F04BF994F993
:10EB60000030B0EE408AF0EE608A01330FD0B0EE94
:10EB7000490AF0EE690A00F0D3FB40B100260027F5
:10EB800051EC190B32463B4601F03CFC38B9B0EE73
:10EB9000480AF0EE680A0AB0BDEC048BD0BD184BF1
:10EBA00024780193012200238DED049B8DED029BBF
:10EBB000009208936CB9CDE90667684600F0DEFB69
:10EBC00088B1089BA3B99DED060B0AB0BDEC048B80
:10EBD000D0BD32463B463046394601F0CBFA022CD6
:10EBE000CDE90601E9D101F0FFFC21230360E8E74C
:10EBF00001F0FAFC089B0360E5E700BF88200020D5
:10EC0000A83802000000000051EC110B43422DE92E
:10EC1000F047034321F00048754F48EAD373BB42E5
:10EC200055EC104B49D86342234325F0004A4AEA89
:10EC3000D373BB42A94640D801F1404303F580138A
:10EC400003438E4650D08E1706F0020654EA0A039C
:10EC500046EAD57639D050EA08033ED0B84555D0BB
:10EC6000BA453AD0C8EB0A084FEA2858B8F13C0F29
:10EC700040DC002970DB02460B462046294601F0A5
:10EC800079FA41EC100B00F043FB00F085F951ECF0
:10EC9000100B012E5AD0022E48D0002E42D03EA397
:10ECA000D3E9002300F088FF3DA3D3E9002300F05F
:10ECB00083FF41EC100BBDE8F08722462B4600F0A5
:10ECC0007DFF41EC100BBDE8F087022E16D0032E1D
:10ECD0000ED19FED350BBDE8F087B9F1000F11DBC8
:10ECE0009FED330BBDE8F087BDE8F04700F054B965
:10ECF000BDE8F0872EA1D1E90001CAE79FED280BFE
:10ED0000BDE8F0879FED2C0BBDE8F087C24529D008
:10ED1000022EF3D0032EDCD0012E2DD09FED280B38
:10ED2000BDE8F08741EC100BBDE8F0871AA3D3E9EA
:10ED3000002300F041FF02460B4619A1D1E9000172
:10ED400000F03AFF41EC100BBDE8F08701F1004103
:10ED500041EC100BBDE8F08718F13C0F8BDA002076
:10ED6000002196E7022E13D0032E0DD0012E07D0DE
:10ED70009FED150BBDE8F0879FED150BBDE8F08703
:10ED80009FED150BBDE8F0879FED150BBDE8F087F3
:10ED90009FED150BBDE8F087075C143326A6A13C58
:10EDA000182D4454FB210940182D4454FB2109C05F
:10EDB000182D4454FB21F93F182D4454FB21F9BF71
:10EDC0000000000000000000182D4454FB21E93F22
:10EDD0000000000000000080182D4454FB21E9BF12
:10EDE000D221337F7CD902C0D221337F7CD902402B
:10EDF0000000F07F2DE9F041654955EC104B0E46BF
:10EE00002940B14200F09780002D2B4610EE102AC9
:10EE100074DD2F157FD0A7F2FF37C3F31303F90773
:10EE200043F4801365D403EBD27100260B447F10AA
:10EE30005200B64616204FF400110EEB01049C421E
:10EE40004FEAD2754FEA420203DC1B1B04EB010EB2
:10EE50000E44013805EB43034FEA5101EDD18446DE
:10EE600020244FF0004109E020D003EBD275013C93
:10EE70004FEA51012B444FEA420220D09E4501EB5C
:10EE80000C05F1DA002D05EB010C09DBF04695428B
:10EE9000CEEB030300D9013B521B0844C646E4E70E
:10EEA000BCF1000FF2DB0EF10108F0E795421ED82D
:10EEB000002D05EB010C50DB98460023ECE71343D3
:10EEC00004D0421C4DD000F00103184440087110DA
:10EED000F30701F17F5101F5001148BF40F00040F8
:10EEE00001EB0753024643EC102BBDE8F08173465B
:10EEF000BBE75B0003EBD273520094E725F00041BF
:10EF0000214328D0ADBB2F46D30A153F5205002B15
:10EF1000FAD0DD0228D4002100E001465B00DC02CB
:10EF200001F10100F9D5C0F1200422FA04F42343D1
:10EF30007F1A82406FE710EE102A2B4610EE100A5F
:10EF4000294600F0EDFF22462B4600F037FE41EC4B
:10EF5000100BBDE8F081BDE8F081BCF1000FABDB28
:10EF6000A1E701362046B2E720244FF0FF31002010
:10EF7000DBE710EE102A2B462046294600F01CFE47
:10EF800002460B4601F0F6F841EC100BBDE8F081AB
:10EF90000000F07F000000002DE9F84F55EC104B09
:10EFA000D14B25F000469E42AB4610DDCF4B9E4232
:10EFB00000F3B28000F0AD80BBF1000F40F3FD80A4
:10EFC000ADA5D5E9004545EC104BBDE8F88FC84B21
:10EFD0009E4200F3C080A3F1DE739E4240F3A880FE
:10EFE0004FF0FF3A22462B462046294600F098FF74
:10EFF00002460B468046894600F092FFA0A3D3E963
:10F00000002306460F4600F08BFF9FA3D3E90023A1
:10F0100000F0D4FD32463B4600F082FF9CA3D3E9CA
:10F02000002300F0CBFD32463B4600F079FF9AA367
:10F03000D3E9002300F0C2FD32463B4600F070FFEA
:10F0400097A3D3E9002300F0B9FD32463B4600F018
:10F0500067FF95A3D3E9002300F0B0FD42464B467D
:10F0600000F05EFF92A3D3E9002380468946304634
:10F07000394600F055FF90A3D3E9002300F09CFD32
:10F0800032463B4600F04CFF8DA3D3E9002300F04D
:10F0900093FD32463B4600F043FF8BA3D3E90023A8
:10F0A00000F08AFD32463B4600F03AFF88A3D3E9E0
:10F0B000002300F081FD32463B4600F031FFBAF1FB
:10F0C000FF3F02460B467CD04046494600F076FDA5
:10F0D00022462B4600F024FF864E874B4FEACA0A91
:10F0E00056449A44DAE9002300F066FD22462B4696
:10F0F00000F062FD02460B46D6E9000100F05CFD1F
:10F10000BBF1000F52DB04460D4645EC104BBDE849
:10F11000F88F002C3FF450AF22462B46204629465C
:10F1200000F04CFD04460D4645EC104BBDE8F88F51
:10F1300069A3D3E9002310EE100A294600F03EFD32
:10F1400000226E4B01F07CF900283FF449AF45ECFA
:10F15000104BBDE8F88F00F0DBF8694B9E4255EC90
:10F16000104B3FDCA3F550239E4268DC10EE102AC2
:10F1700010EE100A2B46294600F020FD00225F4BBE
:10F1800000F01AFD002206460F464FF0804320464D
:10F19000294600F013FD02460B463046394600F082
:10F1A000E9FF4FF0000A04460D461BE7044601F153
:10F1B000004545EC104BBDE8F88F49A5D5E9004561
:10F1C000B2E74046494600F0F9FC22462B4600F0E3
:10F1D000A7FE02460B462046294600F0EDFC0446F9
:10F1E0000D46A1E7474B9E421DDC10EE100A00229F
:10F1F000454B294600F0E0FC002206460F46424BF4
:10F200002046294600F08CFE00223C4B00F0D6FC44
:10F2100002460B463046394600F0ACFF4FF0020A7A
:10F2200004460D46DEE62B4610EE102A0020374934
:10F2300000F0A0FF4FF0030A04460D46D2E610EEA0
:10F24000100A00222D4B294600F0B6FC002206468B
:10F250000F462A4B2046294600F0B0FC02460B46DA
:10F260003046394600F086FF4FF0010A04460D464D
:10F27000B8E600BFAFF30080182D4454FB21F93FDE
:10F2800011DA22E33AAD903FEB0D76244B7BA93F98
:10F29000513DD0A0660DB13F6E204CC5CD45B73F66
:10F2A000FF8300922449C23F0D5555555555D53F12
:10F2B0002F6C6A2C44B4A2BF9AFDDE522DDEAD3F06
:10F2C0006D9A74AFF2B0B33F711623FEC671BC3FA6
:10F2D000C4EB98999999C93F9C7500883CE4377EA6
:10F2E000182D4454FB21F9BFFFFF0F440000F07FAD
:10F2F000FFFFDB3FD0380200B03802000000F03FD3
:10F30000FFFFF23FFF7F03400000F83F0000F0BF27
:10F3100053EC102B23F0004343EC102B704700BF3D
:10F3200053EC102B33F0004110B408D01148A3F572
:10F330008014844208D804205DF8044B70471AB941
:10F3400002205DF8044B704703F1FF43094803F5C1
:10F35000E0038342EFD9B1F5801F01D20320EBE730
:10F36000054B994201D00020E6E7B2FA82F040094D
:10F37000E2E700BFFFFFDF7F0000F07F0020704763
:10F380000649074A074B9B1A03DD043BC858D05077
:10F39000FBDC00F061F9FDF785F80000583C020045
:10F3A0008020002050210020FEE7FEE7FEE7FEE778
:10F3B000FEE7FEE7FEE7FEE7FEE7FEE7094B19681A
:10F3C000094B30B5D3F804050A060B0A02434FF483
:10F3D0007A71A2FB014501FB0355E00B40EA454071
:10F3E00030BD00BF482400200010014038B504465D
:10F3F00048B1FFF7E3FF054600F01AF8FFF7DEFF1C
:10F40000401B8442F8D838BD074B0022C3F80421C2
:10F4100082B0D3F80431054A0193019B136801338C
:10F42000DBB2136002B07047001001404824002096
:10F43000704700001F2837B500F293804A4B53F8FD
:10F440002030052B19D007D8032B12D013D8022B4C
:10F4500040F08780012215E01D2B10D003D81C2B13
:10F460007FD105220EE01E2B0BD01F2B79D1082255
:10F4700008E0022206E0032204E0042202E0062261
:10F4800000E00722394B1968082908DD0A2909DD3F
:10F490000D29B5BF0C240E240223032304E0082405
:10F4A000002301E00A2401233148C0F8F03501238C
:10F4B000C0F8003500200546030103F1804303F541
:10F4C000E04301300828C3F81455C3F81055F3D1B0
:10F4D000284B1868284B1B6800021B0303F4805359
:10F4E00000F4E0601843224BC3F81805C3F8142554
:10F4F000C3F810250DF10602C3F82C260122C3F82B
:10F5000030261A60D3F80001194A0028FAD00023E7
:10F51000C2F8003101235360D2F80401144B0028D3
:10F52000FAD00022C3F8042101229A60D3F81421F2
:10F53000002AFBD00E4A0023C2F81431BDF9062080
:10F540009A420B4AB8BFADF806308C42C2F800357B
:10F55000BDF9060006D08BBF611A091BC840884060
:10F5600000E0002003B030BD2838020090200020C9
:10F57000007000408C2000204C2400201F281BD845
:10F580000E4B53F82030032916D8DFE801F0020EA5
:10F59000060A03F5E07300210AE003F5E0730C218D
:10F5A00006E003F5E073042102E003F5E0730321B4
:10F5B0004FF0A04242F82310704700BF28380200E5
:10F5C0001F280CD8064B53F8200001234FF0A0420F
:10F5D000834011B9C2F80C357047C2F8083570473E
:10F5E000283802000C4B1B78062B10D10B4B1B68E4
:10F5F0001A070CD10A4B186800F0F003302B08D022
:10F6000000F0E000A0F1400358425841704700204C
:10F6100070470120704700BFE00F00F0E40F00F0DA
:10F62000E80F00F0094B1B78062B0CD1084B1B6828
:10F630001A0708D1074B186800F0F000A0F130035A
:10F640005842584170470020704700BFE00F00F05B
:10F65000E40F00F0E80F00F008B5FFF7E3FF10B18A
:10F660004B4B4C4A1A60FFF7BDFF28B14A4B4B4A3F
:10F670001B68C3F342331360FFF7D4FF20B1484A3D
:10F68000D36823F08073D360FFF7ACFF40B14FF035
:10F6900080430022C3F80C21C3F81021C3F8382599
:10F6A000FFF7C0FF10B13F4B03221A60FFF7BAFF0C
:10F6B00040B13D4B05221A6001229A6700229A60F0
:10F6C0003F225A60394B1B78062B09D1384B1B68F7
:10F6D0001B0705D1374B1B6803F0F003502B0ED0EE
:10F6E000354AD2F8883043F47003C2F88830BFF34B
:10F6F0004F8FBFF36F8F314B314A1A6008BD4FF007
:10F700008052304BD2F80414C3F82015D2F80814F4
:10F71000C3F82415D2F80C14C3F82815D2F8101425
:10F72000C3F82C15D2F81414C3F83015D2F81814F5
:10F73000C3F83415D2F81C14C3F84015D2F82014BD
:10F74000C3F84415D2F82414C3F84815D2F8281485
:10F75000C3F84C15D2F82C14C3F85015D2F8301455
:10F76000C3F85415D2F83414C3F86015D2F838141D
:10F77000C3F86415D2F83C14C3F86815D2F84014E5
:10F78000C3F86C15D2F84424C3F87025A8E700BF6D
:10F7900074C007400DF0ADBA440200103C050040B3
:10F7A000F0ED00E0A005004010560040E00F00F032
:10F7B000E40F00F0E80F00F000ED00E094200020DE
:10F7C0000090D00300C000402DE9F04106460D46F0
:10F7D00001EB02080C464445A4EB050707D033684B
:10F7E00014F8011B1B68304698470028F3D13846AF
:10F7F000BDE8F08170B505460C46084649B101F0F8
:10F800004AFE2B680246214628465B68BDE87040E8
:10F81000184770BD08B50249FFF7ECFF08BD00BFEF
:10F82000F038020038B50546FFF7E4FF04462846E5
:10F83000FFF7F0FF204438BD012070470368132212
:10F84000DB69184770470369C3F81C15D3F81C21FE
:10F85000002AFBD00022C3F81C21012070470000C1
:10F8600090F85C305AB2520910B4012120320F4C8A
:10F8700003F01F0301FA03F344F8223003695DF833
:10F88000044B0422C3F8082300225960D960C3F84E
:10F8900000254FF0FF32C3F80C251430C3F81425AF
:10F8A000C3F80825C3F8102500F062B900E100E0B4
:10F8B000143000F06FB9143000F072B9143000F059
:10F8C0005BB90000026990F85E3030B5C2F80C35C3
:10F8D00090F85D30C2F8143590F86130012B01BF0B
:10F8E00090F85F40C2F8104590F86040C2F80845B3
:10F8F00018BF0023B1F5966FC2F86C352ED9B1F55B
:10F90000166F2ED9B1F5965F2ED9B1F5165F2DD9A8
:10F91000B1F5615F2CD9B1F5964F2BD9B1F5E14F17
:10F920002AD9B1F5164F29D9B1F5614F29D9B1F5C9
:10F93000963F29D9B1F5E13F28D9B1F5613F28D9E2
:10F94000344B994228D9B1F5E12F28D9B1F5612F6F
:10F950008CBF4FF080534FF0706322E04FF49E2332
:10F960001FE04FF41D231CE02B4B1AE02B4B18E03B
:10F970002B4B16E02B4B14E02B4B12E04FF41D03E6
:10F980000FE04FF46B030CE0284B0AE04FF0EB73F1
:10F9900007E04FF06C7304E04FF0806301E04FF03C
:10F9A000E863C2F8243500210423C2F80035C2F808
:10F9B0000811C2F81C11012111609160C2F80433D2
:10F9C00090F85C2053B2D2B202F01F055C09A94046
:10F9D0006034174D002B45F8241006DA154B02F061
:10F9E0000F02134460221A7606E003F1604303F528
:10F9F0006143602283F8002390F85C3001215AB201
:10FA000003F01F0301FA03F35209094941F82230B8
:10FA100030BD00BF90D0030000B01300005027009D
:10FA200000F03A0000A04E0000C0750000903A01BE
:10FA300000E100E0FCEC00E02DE9F0411E464FF44F
:10FA40007A73002583600E4B4560044640F8143BF2
:10FA50001746884600F076F80A4AC4F8108052F833
:10FA6000263084F85D309DF8183084F85C7052F8C8
:10FA7000233084F85E3084F861502046BDE8F08180
:10FA800008390200283802000369D3F8082110B5AC
:10FA900004464AB1D3F818151430C9B200F05DF825
:10FAA00023690022C3F8082110BD00000148FFF7B8
:10FAB000EBBF00BF5024002007B50D2300930222A6
:10FAC0000E2303490348FFF7B7FF03B05DF804FBBB
:10FAD00000200040502400207047000008B500F0CE
:10FAE00013F8FFF7F9FF0120FFF780FCFDF7C6F8D8
:10FAF000034CFDF717F8002CFBD0AFF30080F8E7BC
:10FB00000000000000F0E4BD0D4BE02283F811235B
:10FB10004FF40032C3F880211A604FF08043012275
:10FB2000C3F818259A6003F588330021C3F8081537
:10FB30000221C3F80413C3F844131A60704700BFCE
:10FB400000E100E010B540220446002100F0FDFD78
:10FB5000002323646364204610BD026C10B5531C5F
:10FB6000446C03F03F039C421CBF8154036410BDEE
:10FB70000023036443647047436C026C93421FBFCD
:10FB8000C25C013303F03F03436414BF10464FF0DF
:10FB9000FF307047036C406C181A48BF4030704704
:10FBA000436C026C934214BFC05C4FF0FF3070474F
:10FBB00081F0004102E000BF83F0004330B54FEA1E
:10FBC00041044FEA430594EA050F08BF90EA020F8B
:10FBD0001FBF54EA000C55EA020C7FEA645C7FEA1E
:10FBE000655C00F0E2804FEA5454D4EB5555B8BF41
:10FBF0006D420CDD2C4480EA020281EA030382EAB2
:10FC0000000083EA010180EA020281EA0303362D43
:10FC100088BF30BD11F0004F4FEA01314FF4801C16
:10FC20004CEA113102D0404261EB410113F0004F28
:10FC30004FEA03334CEA133302D0524263EB4303DF
:10FC400094EA050F00F0A780A4F10104D5F1200E7D
:10FC50000DDB02FA0EFC22FA05F2801841F10001D8
:10FC600003FA0EF2801843FA05F359410EE0A5F1AC
:10FC700020050EF1200E012A03FA0EFC28BF4CF0DD
:10FC8000020C43FA05F3C01851EBE37101F0004593
:10FC900007D54FF0000EDCF1000C7EEB00006EEBA0
:10FCA0000101B1F5801F1BD3B1F5001F0CD349082A
:10FCB0005FEA30004FEA3C0C04F101044FEA445281
:10FCC00012F5800F80F09A80BCF1004F08BF5FEA08
:10FCD000500C50F1000041EB045141EA050130BDE8
:10FCE0005FEA4C0C404141EB010111F4801FA4F18B
:10FCF0000104E9D191F0000F04BF01460020B1FAE0
:10FD000081F308BF2033A3F10B03B3F120020CDA17
:10FD10000C3208DD02F1140CC2F10C0201FA0CF0F5
:10FD200021FA02F10CE002F11402D8BFC2F1200C5A
:10FD300001FA02F120FA0CFCDCBF41EA0C01904010
:10FD4000E41AA2BF01EB0451294330BD6FEA040459
:10FD50001F3C1CDA0C340EDC04F11404C4F1200244
:10FD600020FA04F001FA02F340EA030021FA04F356
:10FD700045EA030130BDC4F10C04C4F1200220FAAD
:10FD800002F001FA04F340EA0300294630BD21FAEB
:10FD900004F0294630BD94F0000F83F4801306BFB1
:10FDA00081F480110134013D4EE77FEA645C18BFA5
:10FDB0007FEA655C29D094EA050F08BF90EA020F3C
:10FDC00005D054EA000C04BF1946104630BD91EA34
:10FDD000030F1EBF0021002030BD5FEA545C05D137
:10FDE0004000494128BF41F0004130BD14F5800476
:10FDF0003CBF01F5801130BD01F0004545F0FE41EA
:10FE000041F470014FF0000030BD7FEA645C1ABF1E
:10FE1000194610467FEA655C1CBF0B46024650EA55
:10FE2000013406BF52EA033591EA030F41F4002181
:10FE300030BD00BF90F0000F04BF0021704730B507
:10FE40004FF4806404F132044FF000054FF00001DC
:10FE500050E700BF90F0000F04BF0021704730B59D
:10FE60004FF4806404F1320410F0004548BF404272
:10FE70004FF000013EE700BF42004FEAE2014FEAC7
:10FE800031014FEA02701FBF12F07F4393F07F4FA2
:10FE900081F06051704792F0000F14BF93F07F4FD4
:10FEA000704730B54FF4607401F0004521F0004117
:10FEB00020E700BF50EA010208BF704730B54FF09D
:10FEC00000050AE050EA010208BF704730B511F0A2
:10FED000004502D5404261EB41014FF4806404F1DA
:10FEE00032045FEA915C3FF4DCAE4FF003025FEA5C
:10FEF000DC0C18BF03325FEADC0C18BF033202EBE4
:10FF0000DC02C2F1200300FA03FC20FA02F001FA3D
:10FF100003FE40EA0E0021FA02F11444C1E600BFDC
:10FF200070B54FF0FF0C4CF4E06C1CEA11541DBF8F
:10FF30001CEA135594EA0C0F95EA0C0F00F0DEF85A
:10FF40002C4481EA030621EA4C5123EA4C5350EA3F
:10FF5000013518BF52EA033541F4801143F4801390
:10FF600038D0A0FB02CE4FF00005E1FB02E506F021
:10FF70000042E0FB03E54FF00006E1FB03569CF076
:10FF8000000F18BF4EF0010EA4F1FF04B6F5007F7C
:10FF900064F5407404D25FEA4E0E6D4146EB0606EE
:10FFA00042EAC62141EA55514FEAC52040EA5E5077
:10FFB0004FEACE2EB4F1FD0C88BFBCF5E06F1ED821
:10FFC000BEF1004F08BF5FEA500E50F1000041EB58
:10FFD000045170BD06F0004646EA010140EA020005
:10FFE00081EA0301B4EB5C04C2BFD4EB0C0541EA27
:10FFF000045170BD41F480114FF0000E013C00F33C
:020000022000DC
:10000000AB8014F1360FDEBF002001F0004170BD5F
:10001000C4F10004203C35DA0C341BDC04F1140478
:10002000C4F1200500FA05F320FA04F001FA05F204
:1000300040EA020001F0004221F0004110EBD370D1
:1000400021FA04F642EB06015EEA430E08BF20EAFD
:10005000D37070BDC4F10C04C4F1200500FA04F3A0
:1000600020FA05F001FA04F240EA020001F0004132
:1000700010EBD37041F100015EEA430E08BF20EAA5
:10008000D37070BDC4F1200500FA05F24EEA020EED
:1000900020FA04F301FA05F243EA020321FA04F01C
:1000A00001F0004121FA04F220EA020000EBD370D3
:1000B0005EEA430E08BF20EAD37070BD94F0000FD3
:1000C0000FD101F00046400041EB010111F4801F07
:1000D00008BF013CF7D041EA060195F0000F18BFB8
:1000E000704703F00046520043EB030313F4801FF4
:1000F00008BF013DF7D043EA0603704794EA0C0FAE
:100100000CEA135518BF95EA0C0F0CD050EA4106C3
:1001100018BF52EA4306D1D181EA030101F0004140
:100120004FF0000070BD50EA410606BF1046194668
:1001300052EA430619D094EA0C0F02D150EA013674
:1001400013D195EA0C0F05D152EA03361CBF1046B5
:1001500019460AD181EA030101F0004141F0FE4154
:1001600041F470014FF0000070BD41F0FE4141F4D8
:10017000780170BD70B54FF0FF0C4CF4E06C1CEAD8
:1001800011541DBF1CEA135594EA0C0F95EA0C0F8D
:1001900000F0A7F8A4EB050481EA030E52EA033548
:1001A0004FEA013100F088804FEA03334FF0805569
:1001B00045EA131343EA12634FEA022245EA111596
:1001C00045EA10654FEA00260EF000419D4208BF47
:1001D000964244F1FD0404F5407402D25B084FEAF4
:1001E0003202B61A65EB03055B084FEA32024FF4A0
:1001F00080104FF4002CB6EB020E75EB030E22BFFD
:10020000B61A754640EA0C005B084FEA3202B6EBBC
:10021000020E75EB030E22BFB61A754640EA5C006B
:100220005B084FEA3202B6EB020E75EB030E22BFFB
:10023000B61A754640EA9C005B084FEA3202B6EBFC
:10024000020E75EB030E22BFB61A754640EADC00BB
:1002500055EA060E18D04FEA051545EA16754FEA1D
:1002600006164FEAC30343EA52734FEAC2025FEA3B
:100270001C1CC0D111F4801F0BD141EA00014FF0CA
:1002800000004FF0004CB6E711F4801F04BF01439B
:100290000020B4F1FD0C88BFBCF5E06F3FF6AFAEB7
:1002A000B5EB030C04BFB6EB020C5FEA500C50F147
:1002B000000041EB045170BD0EF0004E4EEA1131CA
:1002C00014EB5C04C2BFD4EB0C0541EA045170BDD1
:1002D00041F480114FF0000E013C90E645EA060E15
:1002E0008DE60CEA135594EA0C0F08BF95EA0C0F43
:1002F0003FF43BAF94EA0C0F0AD150EA01347FF48B
:1003000034AF95EA0C0F7FF425AF104619462CE761
:1003100095EA0C0F06D152EA03353FF4FDAE1046C4
:10032000194622E750EA410618BF52EA43067FF415
:10033000C5AE50EA41047FF40DAF52EA43057FF4A5
:10034000EBAE12E74FF0FF3C06E000BF4FF0010CB0
:1003500002E000BF4FF0010C4DF804CD4FEA410C14
:100360007FEA6C5C4FEA430C18BF7FEA6C5C1BD0E1
:1003700001B050EA410C0CBF52EA430C91EA030F62
:1003800002BF90EA020F0020704710F1000F91EABF
:10039000030F58BF994208BF90422CBFD8176FEA8D
:1003A000E37040F0010070474FEA410C7FEA6C5C5B
:1003B00002D150EA013C07D14FEA430C7FEA6C5C62
:1003C000D6D152EA033CD3D05DF8040B704700BF8E
:1003D0008446104662468C461946634600E000BFDC
:1003E00001B5FFF7B7FF002848BF10F1000F01BDAE
:1003F0004DF808EDFFF7F4FF0CBF012000205DF879
:1004000008FB00BF4DF808EDFFF7EAFF34BF0120FD
:1004100000205DF808FB00BF4DF808EDFFF7E0FF96
:1004200094BF012000205DF808FB00BF4DF808EDE7
:10043000FFF7CEFF94BF012000205DF808FB00BF4E
:100440004DF808EDFFF7C4FF34BF012000205DF830
:1004500008FB00BF4FEA410212F5001215D211D578
:100460006FF47873B3EB625212D94FEAC12343F0B1
:10047000004343EA505311F0004F23FA02F018BF33
:10048000404270474FF00000704750EA013005D1FC
:1004900011F0004008BF6FF0004070474FF00000BF
:1004A000704700BF4A0011D212F5001211D20DD5CB
:1004B0006FF47873B3EB62520ED44FEAC12343F06A
:1004C000004343EA505323FA02F070474FF0000014
:1004D000704750EA013002D14FF0FF3070474FF0C3
:1004E000000070474FEA4102B2F1E04324BFB3F588
:1004F000001CDCF1FE5C0DD901F0004C4FEAC0029B
:100500004CEA5070B2F1004F40EB830008BF20F07E
:100510000100704711F0804F21D113F13872BCBF38
:1005200001F00040704741F480114FEA5252C2F18D
:100530001802C2F1200C10FA0CF320FA02F018BFD6
:1005400040F001004FEAC1234FEAD32303FA0CFC29
:1005500040EA0C0023FA02F34FEA4303CCE77FEAB8
:10056000625307D150EA01331EBF4FF0FE4040F402
:100570004000704701F0004040F0FE4040F40000B1
:10058000704700BF0B460146184600F01FB8000038
:100590001FB51C46094B1B680546D86812B9084BA5
:1005A0001A4600E0074B02928DE80A0022462B46CD
:1005B000054900F033F801F0FBF800BFF8200020F7
:1005C000F2380200303902003D39020010B5054C06
:1005D00013462CB10A4601460220AFF3008010BD3D
:1005E000204610BD00000000014B1868704700BF96
:1005F000F820002008B5074B044613B10021AFF3E3
:100600000080054B1868836A03B19847204602F0C2
:10061000C9FE00BF00000000703902000EB403B52F
:10062000014603AB054853F8042B0068019300F022
:1006300059F902B05DF804EB03B07047F8200020D0
:1006400070B50E4B0E4CE41AA41000251E46A542B0
:1006500004D056F8253098470135F8E702F0A4FE9B
:10066000084C094BE41AA41000251E46A54204D0EC
:1006700056F8253098470135F8E770BD382100203D
:10068000382100204821002038210020931E222BF1
:1006900010B50C4602D90020087010BD0A2A06D1F8
:1006A000002804DA2D230B704042012100E00021D4
:1006B000214400F081FF204610BDFFF7E7BF000096
:1006C000024B0146186800F08FB800BFF8200020E8
:1006D000024B0146186800F041B800BFF820002026
:1006E00010B501390244904207D010F8013B11F8CF
:1006F000014FA342F7D0181B10BD002010BD10B54C
:10070000431E0A44914204D011F8014B03F8014FF3
:10071000F8E710BD884210B501EB020301D8421E74
:100720000BE09842FBD28118D21AD34204D013F8BE
:10073000014D01F8014DF8E710BD994204D011F8C0
:10074000014B02F8014FF8E710BD02440346934203
:1007500002D003F8011BFAE77047000030B500290A
:100760003ED051F8042C0B1F1E49002AB8BF9B181D
:100770000A680C4612B95A600B6030BD9A420ED915
:1007800019685818824204BF106852685A6004BF42
:1007900009181960236030BD994203D80A46516890
:1007A0000029F9D1146815199D420AD11B68234408
:1007B000D0188142136013D10868034413604B685A
:1007C0000DE002D90C23036030BD18681C18A1424B
:1007D00004BF0C684968596004BF00191860536071
:1007E00030BD00BFB824002070B5CD1C25F0030536
:1007F00008350C2D38BF0C25002D064603DA0C23D6
:100800003360002070BDA942F9D81F4B1C681A46FE
:100810002146A1B10B685B1B0ED40B2B03D90B60D7
:10082000CC18CD501EE08C420DBF63684B686360EE
:10083000136018BF0C4615E00C464968E9E7134CF5
:1008400023681BB9304600F0C3FD206029463046BE
:1008500000F0BEFD431CD2D0C41C24F00304A0420F
:100860000AD1256004F10B00231D20F00700C31AF4
:1008700009D05A42E25070BD211A304600F0A8FD5E
:100880000130EED1BBE770BDB8240020B4240020B5
:100890009368013B002B10B4936009DA9469A3427A
:1008A00002DBCBB20A2B03D15DF8044B00F0C0BED3
:1008B0001368581C10601970C8B25DF8044B70477B
:1008C000F8B506460F461446D518AC4208D03A464D
:1008D00014F8011B3046FFF7DBFF431CF5D100E0A5
:1008E0000020F8BD2DE9F04F9DB00C46174603934C
:1008F000064618B183690BB901F084FE7F4B9C4218
:1009000001D1746808E07E4B9C4201D1B46803E0D9
:100910007C4B9C4208BFF468A38918070CD5236957
:1009200053B10023099320238DF8293030238DF80B
:100930002A30DFF8D4B144E02146304600F0CCFE46
:100940000028EED04FF0FF30D5E0039A111D126859
:100950000391002A80F28C80524243F002000792F9
:10096000049098F800302E2B00F08480032298F831
:100970000010654801F024FF48B14023CBEB000094
:1009800003FA00F0049B1843049008F1010898F85A
:1009900000105E488DF82810062208F1010701F0CA
:1009A0000FFF002800F09580594B002B40F0888005
:1009B000039B073323F0070308330393099B534436
:1009C0000993B846454615F8013B1BB9B8EB070932
:1009D0000FD003E0252BF9D0A846F3E74B463A4663
:1009E00021463046FFF76CFF01307FD0099B4B4416
:1009F000099398F80030002B78D000234FF0FF3295
:100A000004930793059206938DF853301A930127A8
:100A1000052229783F4801F0D3FE05F10108049B27
:100A200038B13C4A801A07FA00F018430490454652
:100A3000EEE7D90644BF20228DF853201A0744BFA1
:100A40002B228DF853202A782A2A3FF47EAF079A6A
:100A500000210A20A846013598F80030303B092BC8
:100A600003D800FB02320121F4E700293FF479AFFB
:100A7000079276E798F801302A2B0BD1039B1A1DB9
:100A80001B680392002BB8BF4FF0FF3308F1020838
:100A900005936BE70023059308F1010019460A2529
:100AA0008046013098F80020303A092A03D805FB27
:100AB00001210123F4E7002B3FF458AF059155E7DE
:100AC00003AB00932246144B04A9304600F0BAF859
:100AD00007E003AB009322460F4B04A9304600F019
:100AE00051FBB0F1FF3F82467FF468AFA3895B06FC
:100AF0003FF528AF09981DB0BDE8F08FE43A020039
:100B0000043B0200243B02007A3902007E390200D5
:100B1000450C020074390200C10802002DE9FF47AC
:100B200055EC104B0D9FDDF830A0002D0E46914680
:100B30001946B8BF22462B4627F02007BBBF05F158
:100B400000431D4600232D23B8BF1446462F0B70CB
:100B500003D0452F03D1013601E0032100E002213B
:100B600003AB019302AB00933246534645EC104B66
:100B700000F0B6FE472F804602D119F0010F28D0B1
:100B8000462F08EB060911D198F80030302B0AD116
:100B90000022002320462946FFF72AFC18B9C6F197
:100BA0000106CAF80060DAF80030994400220023F8
:100BB00020462946FFF71CFC08B9302202E0CDF898
:100BC0000C9006E0039B994503D9591C03911A70B8
:100BD000F8E7039B0E9AC8EB03034046136004B08A
:100BE000BDE8F08773B503460029B8BF494203F852
:100BF000022BB4BF2D222B220929427019DD0DF1E1
:100C0000070216460A2591FBF5F405FB1411303155
:100C1000092C02F8011D2146F5DC3031541E02F882
:100C2000011CB4421A460AD214F8012B03F8012B16
:100C3000F7E730241A46214402F8024B5970101A83
:100C400002B070BD2DE9F04F8BB00C4616461F4622
:100C5000DDF85080054601F05FFDD0F800B0584641
:100C600000F019FC00230893D8F8003004900733F3
:100C700023F0070303F1080294F81890C8F8002045
:100C8000D3E90023C4E9122394ED120BFEF748FBCD
:100C9000012819D100220023D4E91201FFF7B2FB89
:100CA00010B12D2384F84330974B984AB9F1470F80
:100CB0008CBF9046984603232361236823F00403E6
:100CC00023604FF0000A8EE094ED120BFEF728FB34
:100CD000226860B98E4B8F4922F00402B9F1470FA8
:100CE0008CBF88469846032323612260E9E7616848
:100CF0004B1C94ED120B08A801D1062309E0B9F1B1
:100D0000670F02D0B9F1470F04D1002940F0AF813D
:100D100001236360002342F48062039307AB0290D7
:100D2000009322600DF11B03CDF804906168284602
:100D3000FFF7F4FE09F0DF03472B804609D1079B3C
:100D4000D81C02DB6268934230DDA9F102095FFA28
:100D500089F9B9F1650F079912D801394A4604F1AA
:100D600050000791FFF73EFF089A8318012A824638
:100D7000236102DC2268D1072FD5013323612CE0E7
:100D8000B9F1660F14D10029636807DD216113B939
:100D90002268D2071DD501330B4419E013B922682C
:100DA000D00701D5023313E0012311E04FF06709AA
:100DB000079B089A934205DB22682361D10708D577
:100DC000013305E0002BD4BFC3F102030123134418
:100DD0002361079BA3654FF0000A9DF81B3013B1F8
:100DE0002D2384F843300097334609AA214628462C
:100DF00000F052F9013002D14FF0FF3048E1236892
:100E00005A0501D4236965E0B9F1650F40F2D48039
:100E100000220023D4E91201FFF7EAFA78B3012394
:100E20003D4A31462846B8470130E5D0089B079A2D
:100E30009A420BDB2368D80708D423689B0740F14C
:100E400010814FF0000804F1190905E1049B5A468E
:100E500031462846B8470130CED04FF0000804F1A3
:100E60001A09089B013B9845E7DA01234A463146B7
:100E70002846B8470130BFD008F10108F1E7079BC9
:100E8000002B29DC0123244A31462846B84701308B
:100E9000B2D0079B23B9089B13B92368D907CCD5D7
:100EA000049B5A4631462846B8470130A4D04FF03B
:100EB000000904F11A0A079B5B42994509DA0123EC
:100EC000524631462846B847013095D009F101090C
:100ED000F1E7089B4246A6E0089AA36D9A42A8BF94
:100EE0001A46002A914607DC04F11A034FF0000A63
:100EF00029EAE97905931BE0134631464246284624
:100F0000B8470130F0D177E785390200F7380200A1
:100F100089390200F3380200B33602000123059A32
:100F200031462846B84701303FF466AF0AF1010A5E
:100F3000A36DC9EB03029245F0DB08EB0309079AA6
:100F4000089B9A420FDB2368DA070CD4089B079AA8
:100F50009844C9EB08089B1A9845A8BF9846B8F171
:100F6000000F08DC0FE0049B5A4631462846B8477C
:100F70000130EBD140E743464A4631462846B84760
:100F800001303FF439AF4FF0000928EAE87804F166
:100F90001A0A09E00123524631462846B847013073
:100FA0003FF42AAF09F10109079A089B9B1AC8EB85
:100FB00003039945EEDB40E7089A012A01DCDB07D1
:100FC00038D50123424631462846B84701303FF420
:100FD00013AF049B5A4631462846B84701303FF4C8
:100FE0000BAF00220023D4E91201FFF701FA20B170
:100FF0004FF0000804F11A090EE0089B08F1010205
:10100000013B19E001234A4631462846B8470130E2
:101010003FF4F2AE08F10108089B013B9845F1DB73
:10102000534604F1500231462846B84701307FF458
:1010300004AFE1E60123424631462846B847013075
:10104000EED1D9E601234A4631462846B847013059
:101050003FF4D2AE08F10108E368099A9B1A98455B
:10106000F0DBE068099B9842B8BF184610E0002307
:1010700042F48062039307AB029000932260CDF8A4
:1010800004900DF11B032846FFF748FD804656E605
:101090000BB0BDE8F08F00BF2DE9F04791461F4629
:1010A0000A698B68DDF820809342B8BF1346C9F8FF
:1010B000003091F8432006460C4612B10133C9F8BE
:1010C00000302368990642BFD9F800300233C9F8CE
:1010D0000030256815F0060510D104F1190A07E063
:1010E0000123524639463046C04701301AD00135F7
:1010F000E368D9F800209B1A9D42F1DB94F8433055
:101100002268003318BF012392060FD5E1185A1C3C
:10111000302081F84300224494F8451082F84310AF
:10112000023303E04FF0FF30BDE8F08704F14302E3
:1011300039463046C0470130F4D02268D9F8005013
:10114000E36802F00602042A08BF5D1B2269A36857
:101150000CBF25EAE57500259342C4BF9B1AED1824
:101160004FF000091A344D4509D001232246394673
:101170003046C0470130D5D009F10109F3E700201E
:10118000BDE8F0872DE9F04317460A7E85B06E2A48
:10119000984606460C460C9B01F1430E00F0AE80CB
:1011A00011D8632A22D009D8002A00F0BB80582A1F
:1011B00040F0CA8081F84520834955E0642A1ED05A
:1011C000692A1CD0C0E0732A00F0B08009D86F2AC9
:1011D0002ED0702A40F0B8800A6842F020020A60DF
:1011E0003EE0752A24D0782A3AD0ADE01A6801F1A1
:1011F0004205111D1960136884F84230A8E0216887
:101200001A6811F0800F02D0111D196008E011F06A
:10121000400F02F10401196002D0B2F9003000E081
:101220001368002B3CDA2D225B4284F8432037E020
:1012300021681A6811F0800F02D0111D196007E0B3
:1012400011F0400F02F10401196001D0138800E091
:101250001368227E5C496F2A14BF0A2208221BE011
:1012600078225A4984F845202268186812F0800FC5
:1012700000F104051D6003D1550601D5038800E087
:101280000368D00744BF42F0200222601BB92268E5
:1012900022F0200222601022002084F8430001E0A6
:1012A00049490A226568A560002D08DB206820F006
:1012B000040020602BB9002D7DD175460CE0002B79
:1012C00079D07546B3FBF2F002FB1033CB5C05F826
:1012D000013D03460028F5D1082A0BD12368DA071F
:1012E00008D5236962689A42DEBF302305F8013CC5
:1012F00005F1FF35C5EB0E0323612EE008681A687F
:10130000496910F0800F03D0101D1860136808E0C1
:1013100010F0400F02F104001860136801D019802A
:1013200000E0196000232361754616E01A68111D5C
:101330001960156862680021284601F041FA08B179
:10134000401B6060636804E004F1420584F84220B9
:1013500001232361002384F84330CDF800803B460D
:1013600003AA21463046FFF797FE013002D14FF025
:10137000FF3026E023692A4639463046C04701300F
:10138000F5D023689B0710D5002504F1190907E063
:1013900001234A4639463046C0470130E7D001357F
:1013A000E368039A9B1A9D42F2DBE068039B984234
:1013B000B8BF184605E00B7884F8423004F14205C6
:1013C0008AE705B0BDE8F0838D3902009E3902003E
:1013D00038B5064C002305460846236001F0CCFFD3
:1013E000431C02D1236803B12B6038BDC024002008
:1013F0000CB430B5164B0C1E9DB01D6804DA8B235F
:101400002B604FF0FF301EE04FF40273ADF8143044
:1014100014BF04F1FF332346049307934FF6FF7381
:1014200002900690ADF81630209A21AB02A928460A
:10143000019301F079FD431CBCBF8B232B6014B1D9
:10144000029B00221A701DB0BDE8304002B0704708
:10145000F820002010B50246134601321C78002CFB
:10146000FAD1013B11F8012B03F8012F002AF9D121
:1014700010BD10F8012B11F8013B012A28BF9A4238
:10148000F7D0D01A7047034611F8012B03F8012B4F
:10149000002AF9D17047034613F8012B002AFBD12B
:1014A000181A0138704700002DE9F04780463C4883
:1014B000D0F800900E46354615F8014B09EB0400B4
:1014C000407800F0080000F0FF0708B12E46F2E770
:1014D0002D2C03D1B51C7478012703E02B2C04BFFD
:1014E0007478B51C13B1102B0AD153E0302C4FD1B6
:1014F000287800F0DF00582845D16C781023023599
:101500004FF0FF3C0026BCFBF3FC03FB0CFA6FEA38
:101510000A0A304609EB040E9EF801E01EF0040FA3
:1015200001D0303C0BE01EF0030E1AD0BEF1010FCB
:101530000CBF4FF0370E4FF0570ECEEB0404A34212
:101540000FDD002E08DB604506D801D1544503DCD1
:1015500003FB0040012601E04FF0FF3615F8014B78
:10156000D8E7002E07DA2223C8F800304FF0FF300A
:101570002AB9BDE8F08707B1404272B106B1691ED1
:101580001160BDE8F0873024002BB9D10823B7E7FC
:101590000A23B5E7302CABD0B2E7BDE8F08700BF37
:1015A000FC20002013460A46014602480068FFF767
:1015B0007BBF00BFF8200020F0B51C4C8BB0034669
:1015C0000F466D4604F1200E206861682E4603C662
:1015D000083474453546F7D121793171911E206860
:1015E000306022294FF0000001D938701CE07D1EC8
:1015F000B3FBF2F40AAE02FB14333344411C13F87C
:10160000283C05F8013F23460CB10846F0E77C541E
:101610003A18C11A8B4206DAF95C1478FC5402F8C5
:1016200001190133F5E738460BB0F0BDAF390200C0
:10163000F8B50F461446064618B183690BB900F099
:10164000E1FF224B9C4201D1746808E0204B9C4290
:1016500001D1B46803E01F4B9C4208BFF468A36942
:10166000A360A3891A0709D523693BB123682069C0
:10167000181A63699842FDB20FDB08E02146304634
:1016800000F02AF80028F1D04FF0FF30F8BD2146D5
:10169000304600F04DFF0028F6D1A368013BA3605F
:1016A00023685A1C22601F706269431C934204D055
:1016B000A389DB0707D50A2D05D12146304600F066
:1016C00037FF0028E0D12846F8BD00BFE43A020009
:1016D000043B0200243B0200314B70B51D680646F6
:1016E0000C4625B1AB6913B9284600F08BFF2D4B92
:1016F0009C4201D16C6808E02B4B9C4201D1AC6844
:1017000003E02A4B9C4208BFEC68A3899AB21107F8
:101710001DD4D50602D40922326038E0500712D514
:10172000616B41B104F14403994202D03046FFF7A6
:1017300015F800236363A38923F02403A381002306
:10174000636023692360A38943F00803A3812369AD
:101750004BB9A38903F42073B3F5007F03D021466E
:10176000304600F0DDFFA38913F0010205D000220E
:10177000A26062695242A26103E0990758BF6269A0
:10178000A26022694AB903F0800080B230B143F010
:101790004003A3814FF0FF3070BD002070BD00BF3B
:1017A000F8200020E43A0200043B0200243B02003F
:1017B00008B5062001F0D6FC012001F0F3FD2DE96B
:1017C000F74F03690C699C42804600F38380013C1B
:1017D00001F114074FEA840E00F1140657F8245063
:1017E00006EB0E030193013556F82430B3FBF5F5F3
:1017F00007EB0E09002D39D04FF0000A3846B446E9
:10180000D34650F8042B93B205FB03A34FEA134AC7
:101810009BB2C3EB0B03120CBCF800B005FB02A299
:1018200013FA8BF34FEA124A1FFA82FBDCF800200E
:10183000CBEB124202EB23429BB243EA02438145C7
:101840004FEA224B4CF8043BDBD256F80E306BB912
:10185000019B043B9E421A4602D3C8F8104005E0A3
:101860001268043B002AF8D1013CF3E7404601F03E
:1018700004FA00282CDB013530464FF0000E57F8F3
:10188000041BD0F800C08AB2C2EB0E03090C13FA95
:101890008CF3C1EB1C4202EB23429BB243EA0243AE
:1018A000B9454FEA224E40F8043BE8D256F82420CE
:1018B00006EB840362B9043B9E421A4602D3C8F881
:1018C000104005E01268043B002AF8D1013CF3E720
:1018D000284600E0002003B0BDE8F08F00000000C3
:1018E0002DE9F04F59EC108B97B0456A069182466E
:1018F00009921093209CCDE9008945B91020FEF78C
:10190000DFFECAF82400456085600560C560DAF82E
:101910002430196859B15A684A60012393408B609A
:10192000504600F0D2FFDAF8243000221A60019B02
:101930009F4A002BBFBF01232360019B23F000437C
:10194000B8BF0193019FA4BF0023236027F0004389
:101950001B0D1B0593421DD1109A42F20F731360A9
:10196000009B43B9934A944BC7F31300002814BF5C
:101970001846104600E09048219B002B00F04A8555
:10198000C37813B100F1080300E0C31C219A13606F
:1019900000F040BDDDE90045002200232046294635
:1019A000FEF726FD804658B1109A01231360219B53
:1019B000002B00F0228581481860013800F02ABD14
:1019C00014AA15A945EC104B504601F0D1F9C7F304
:1019D0000A5602905EB1C5F3130343F07F512046CF
:1019E00041F44011A6F2FF36CDF844801DE0159B6E
:1019F000149E1E4406F23243202B0ADD009A06F2A2
:101A00001240C3F1400322FA00F007FA03F318432F
:101A100004E0C3F12000009B03FA00F0FEF70AFA8D
:101A20000123A1F1F871013E11930022644BFEF7EE
:101A3000C3F859A3D3E90023FEF772FA58A3D3E9F8
:101A40000023FEF7BBF8044630460D46FEF702FAC7
:101A500055A3D3E90023FEF763FA02460B4620465E
:101A60002946FEF7ABF804460D46FEF7F3FC0022CC
:101A70008346002320462946FEF7C4FC58B1584649
:101A8000FEF7E8F902460B4620462946FEF7B0FC71
:101A900008B90BF1FF3BBBF1160F0DD8494901EB1B
:101AA000CB01DDE90023D1E90001FEF7C9FC30B12B
:101AB0000BF1FF3B002300E001230D9300E00D90AC
:101AC000149B9E1B731E059343BFC3F100090023A3
:101AD00005934FF00009BBF1000F07DB059BCDF824
:101AE00030B05B4405930023079306E0CBF100037D
:101AF00007930023CBEB09090C93069B092B27D8EE
:101B0000052BC4BF043B0693069BA3F10203CCBF85
:101B100000250125032B20D8DFE803F0060E020480
:101B2000012302E0012308E000230893099B002B16
:101B30001CDD039398461EE000230893099B5B4439
:101B400003F1010803934346012BB8BF012312E0C0
:101B5000012500230693089501E0012308934FF027
:101B6000FF33039398460022122303E001230393DB
:101B700098461A460992DAF824400022626004214D
:101B800001F114029A421FD8626801326260490072
:101B9000F6E700BFAFF3008061436F63A787D23FD2
:101BA000B3C8608B288AC63FFB799F501344D33F4C
:101BB0000000F07FD53A0200DE3A0200B43602009F
:101BC0000000F83F503B02006168504600F048FEBC
:101BD000DAF8243020601B680493B8F10E0F00F28D
:101BE0005D81002D00F05A819DED007BBBF1000F5F
:101BF0008DED0E7B31DDA04A0BF00F0302EBC3032A
:101C000093ED007B4FEA2B14E2068DED0A7B0CD599
:101C10009A4BDDE90E01D3E90823FEF7ABFA04F095
:101C20000F04CDE90001032600E00226934D6CB1BC
:101C3000E30708D5DDE90A01D5E90023FEF770F9CD
:101C4000CDE90A01013664100835F0E7DDE90A2321
:101C5000DDE90001FEF78EFA20E0CBF1000404B3C9
:101C6000854B864D04F00F0203EBC203D3E900233A
:101C7000DDE90E01FEF754F9CDE90001241100233E
:101C8000022654B1E70705D5D5E90023FEF748F948
:101C90000136012364100835F3E71BB1CDE90001DB
:101CA00000E002260D9BEBB1DDE900450022744BFC
:101CB00020462946FEF7A6FBA0B1B8F1000F11D0CF
:101CC000039B002B40F3E6800BF1FF330A930022C5
:101CD0006C4B20462946FEF723F90136CDE9000179
:101CE000039F02E0CDF828B047463046FEF7B2F831
:101CF000DDE90023FEF714F90022634BFDF75EFFD8
:101D00000446A1F15075CFB90022604BDDE9000116
:101D1000FDF752FF22462B46CDE90001FEF790FB6E
:101D2000002840F04182224605F10043DDE9000130
:101D3000FEF768FB002840F02E82ABE0089A4E4B7D
:101D4000791E002A4AD003EBC103D3E90023002007
:101D50004F49FEF70FFA22462B46FDF72DFF049C54
:101D600005460E46DDE90001FEF774FB1290FEF712
:101D700071F802460B46DDE90001FDF71DFF129BDD
:101D8000303304F8013B2A463346CDE90001FEF723
:101D900039FB002840F02183DDE900230020384989
:101DA000FDF70AFF2A463346FEF72CFB002840F0D9
