:020000021000EC
:10C000000000012055C501007DC501007FC501006C
:10C0100081C5010083C5010085C501000000000045
:10C0200000000000000000000000000087C50100C3
:10C0300089C50100000000008BC501008DC501000D
:10C040008FC501008FC50100F5CA01008FC5010031
:10C050008FC501008FC501008FC501008FC501008C
:10C060008FC501008FC501008FC501008FC501007C
:10C070008FC501008FC501008FC501008FC501006C
:10C080008FC50100DDC501008FC501008FC501000E
:10C090008FC501008FC501008FC501008FC501004C
:10C0A0008FC501008FC501008FC501008FC501003C
:10C0B0008FC501008FC501000000000000000000D6
:10C0C0008FC501008FC501008FC501008FC501001C
:10C0D0008FC501008FC501008FC501000000000061
:10C0E0000000000000000000000000000000000050
:10C0F0000000000000000000000000000000000040
:10C10000000000000000000000000000000000002F
:10C11000000000000000000000000000000000001F
:10C40000044B05481B1A062B02D9044B03B11847ED
:10C41000704700BFF7200020F4200020000000003B
:10C4200005490648091A891001EBD171491002D05B
:10C43000034B03B118477047F4200020F42000207C
:10C440000000000010B5064C237843B9FFF7D8FF71
:10C45000044B13B10448AFF300800123237010BDD7
:10C46000F4200020000000004CCD010008B5084B6E
:10C470001BB108490848AFF300800848036813B9A6
:10C48000BDE80840CCE7064B002BF9D09847F7E70A
:10C4900000000000F82000204CCD0100F02000201A
:10C4A00000000000154B002B08BF134B9D46A3F561
:10C4B000803A00218B460F461348144A121A00F0A6
:10C4C000D3FB0F4B002B00D098470E4B002B00D016
:10C4D00098470020002104000D000D48002802D0DC
:10C4E0000C48AFF3008000F099FB2000290000F019
:10C4F00019FB00F07FFB00BF0000080000000120D6
:10C500000000000000000000F4200020782100203E
:10C51000000000000000000008B50121042000F028
:10C5200073F800210420BDE8084000F08FB808B57A
:10C530000121042000F08AF84FF4FA6000F040F87E
:10C540000420002100F082F84FF4FA60BDE80840B2
:10C5500000F036B80649074A074B9B1A03DD043B37
:10C56000C858D050FBDC00F0BDF8FFF79BFF00007F
:10C5700058CD010080200020F4200020FEE7FEE7D7
:10C58000FEE7FEE7FEE7FEE7FEE7FEE7FEE7FEE783
:10C59000094B1968094B30B5D3F804050A060B0A94
:10C5A00002434FF47A71A2FB014501FB0355E00BF6
:10C5B00040EA454030BD00BF10210020001001407E
:10C5C00038B5044648B1FFF7E3FF054600F01AF816
:10C5D000FFF7DEFF401B8442F8D838BD074B00222E
:10C5E000C3F8042182B0D3F80431054A0193019BBA
:10C5F00013680133DBB2136002B0704700100140D2
:10C6000010210020704700001F281BD80E4B53F844
:10C610002030032916D8DFE801F0020E060A03F5E0
:10C62000E07300210AE003F5E0730C2106E003F556
:10C63000E073042102E003F5E07303214FF0A04210
:10C6400042F82310704700BF94CC01001F280CD87B
:10C65000064B53F8200001234FF0A042834011B94C
:10C66000C2F80C357047C2F80835704794CC010009
:10C670000C4B1B78062B10D10B4B1B681A070CD1E7
:10C680000A4B186800F0F003302B08D000F0E000EF
:10C69000A0F14003584258417047002070470120E4
:10C6A000704700BFE00F00F0E40F00F0E80F00F06B
:10C6B000094B1B78062B0CD1084B1B681A0708D1B5
:10C6C000074B186800F0F000A0F1300358425841C1
:10C6D00070470020704700BFE00F00F0E40F00F04B
:10C6E000E80F00F008B5FFF7E3FF10B14B4B4C4AE1
:10C6F0001A60FFF7BDFF28B14A4B4B4A1B68C3F3D2
:10C7000042331360FFF7D4FF20B1484AD36823F0C7
:10C710008073D360FFF7ACFF40B14FF0804300223D
:10C72000C3F80C21C3F81021C3F83825FFF7C0FF68
:10C7300010B13F4B03221A60FFF7BAFF40B13D4BE7
:10C7400005221A6001229A6700229A603F225A60ED
:10C75000394B1B78062B09D1384B1B681B0705D1B9
:10C76000374B1B6803F0F003502B0ED0354AD2F83C
:10C77000883043F47003C2F88830BFF34F8FBFF3A3
:10C780006F8F314B314A1A6008BD4FF08052304BE9
:10C79000D2F80414C3F82015D2F80814C3F82415ED
:10C7A000D2F80C14C3F82815D2F81014C3F82C15BD
:10C7B000D2F81414C3F83015D2F81814C3F834158D
:10C7C000D2F81C14C3F84015D2F82014C3F844154D
:10C7D000D2F82414C3F84815D2F82814C3F84C151D
:10C7E000D2F82C14C3F85015D2F83014C3F85415ED
:10C7F000D2F83414C3F86015D2F83814C3F86415AD
:10C80000D2F83C14C3F86815D2F84014C3F86C157C
:10C81000D2F84424C3F87025A8E700BF74C00740CD
:10C820000DF0ADBA440200103C050040F0ED00E010
:10C83000A005004010560040E00F00F0E40F00F0AB
:10C84000E80F00F000ED00E0802000200090D00311
:10C8500000C000402DE9F04106460D4601EB0208FC
:10C860000C464445A4EB050707D0336814F8011BB8
:10C870001B68304698470028F3D13846BDE8F08160
:10C880000120704703681322DB691847704703696A
:10C89000C3F81C15D3F81C21002AFBD00022C3F8D2
:10C8A0001C2101207047000090F85C305AB25209F8
:10C8B00010B4012120320F4C03F01F0301FA03F3DF
:10C8C00044F8223003695DF8044B0422C3F80823BE
:10C8D00000225960D960C3F800254FF0FF32C3F839
:10C8E0000C251430C3F81425C3F80825C3F8102507
:10C8F00000F060B900E100E0143000F06DB91430D0
:10C9000000F070B9143000F059B90000026990F8D5
:10C910005E3030B5C2F80C3590F85D30C2F8143591
:10C9200090F86130012B01BF90F85F40C2F81045CC
:10C9300090F86040C2F8084518BF0023B1F5966F23
:10C94000C2F86C352ED9B1F5166F2ED9B1F5965FB8
:10C950002ED9B1F5165F2DD9B1F5615F2CD9B1F59E
:10C96000964F2BD9B1F5E14F2AD9B1F5164F29D9F8
:10C97000B1F5614F29D9B1F5963F29D9B1F5E13F1C
:10C9800028D9B1F5613F28D9344B994228D9B1F55E
:10C99000E12F28D9B1F5612F8CBF4FF080534FF0B4
:10C9A000706322E04FF49E231FE04FF41D231CE030
:10C9B0002B4B1AE02B4B18E02B4B16E02B4B14E0C3
:10C9C0002B4B12E04FF41D030FE04FF46B030CE010
:10C9D000284B0AE04FF0EB7307E04FF06C7304E074
:10C9E0004FF0806301E04FF0E863C2F82435002186
:10C9F0000423C2F80035C2F80811C2F81C11012145
:10CA000011609160C2F8043390F85C2053B2D2B246
:10CA100002F01F055C09A9406034174D002B45F852
:10CA2000241006DA154B02F00F02134460221A7626
:10CA300006E003F1604303F56143602283F80023BD
:10CA400090F85C3001215AB203F01F0301FA03F39E
:10CA50005209094941F8223030BD00BF90D003008F
:10CA600000B013000050270000F03A0000A04E0074
:10CA700000C0750000903A0100E100E0FCEC00E02D
:10CA80002DE9F0411E464FF47A73002583600E4B6A
:10CA90004560044640F8143B1746884600F074F899
:10CAA0000A4AC4F8108052F8263084F85D309DF8A8
:10CAB000183084F85C7052F8233084F85E3084F8C3
:10CAC00061502046BDE8F0811CCD010094CC0100EE
:10CAD0000369D3F8082110B504464AB1D3F81815F4
:10CAE0001430C9B200F05BF823690022C3F80821B2
:10CAF00010BD00000148FFF7EBBF00BF142100206C
:10CB000007B51A2300930222192303490348FFF7AC
:10CB1000B7FF03B05DF804FB0020004014210020A3
:10CB20007047000008B500F011F8FFF7F9FF012089
:10CB3000FFF746FDFFF7F0FC034CFFF7F8FC002C75
:10CB4000FBD0AFF30080F8E7000000000D4BE022BF
:10CB500083F811234FF40032C3F880211A604FF09C
:10CB600080430122C3F818259A6003F58833002119
:10CB7000C3F808150221C3F80413C3F844131A605C
:10CB8000704700BF00E100E010B5402204460021DC
:10CB900000F06AF8002323646364204610BD026C31
:10CBA00010B5531C446C03F03F039C421CBF8154DE
:10CBB000036410BD0023036443647047436C026C3C
:10CBC00093421FBFC25C013303F03F03436414BFB1
:10CBD00010464FF0FF307047036C406C181A48BF86
:10CBE00040307047436C026C934214BFC05C4FF0FE
:10CBF000FF30704708B5074B044613B10021AFF36F
:10CC00000080054B1868836A03B19847204600F0FE
:10CC100033F800BF0000000048CD010070B50E4B96
:10CC20000E4CE41AA41000251E46A54204D056F866
:10CC3000253098470135F8E700F020F8084C094BFB
:10CC4000E41AA41000251E46A54204D056F825304B
:10CC500098470135F8E770BDE4200020E42000206B
:10CC6000EC200020E420002002440346934202D03E
:10CC700003F8011BFAE77047FEE700BFF8B500BFF5
:10CC8000F8BC08BC9E467047F8B500BFF8BC08BCAD
:10CC90009E467047000000000100000002000000F6
:10CCA0000300000004000000050000000600000072
:10CCB0000700000008000000090000000A00000052
:10CCC0000B0000000C0000000D0000000E00000032
:10CCD0000F00000010000000110000001200000012
:10CCE00013000000140000001500000016000000F2
:10CCF0001700000018000000190000001A000000D2
:10CD00001B0000001C0000001D0000001E000000B1
:10CD10001F00000000000000000000008FC801009C
:10CD200055C80100F9C8010005C90100FFC801008C
:10CD30008DC8010085C801000DC90100A9C8010006
:10CD400081C8010043000000842000200000000092
:08CD500054F7FF7F0100000011
:10CD58000090D00300000000000000000000000068
:10CD680000000000000000000000000000000000BB
:10CD78000000000044CD0100000000000000000099
:10CD8800000000000000000000000000000000009B
:10CD9800000000000000000000000000000000008B
:10CDA800000000000000000000000000000000007B
:10CDB800000000006DC4010001CB010045C4010062
:04CDC8000000000067
:040000031000C555CF
:00000001FF
