:020000021000EC
:10C0000000000120CD020200F5020200F70202004A
:10C01000F9020200FB020200FD0202000000000023
:10C02000000000000000000000000000FF0202000D
:10C0300001030200000000000303020005030200E8
:10C040000703020007030200210B0200070302009E
:10C0500007030200070302000703020007030200B0
:10C0600007030200070302000703020007030200A0
:10C070000703020007030200070302000703020090
:10C080000703020085030200070302000703020002
:10C090000703020007030200070302000703020070
:10C0A0000703020007030200070302000703020060
:10C0B0000703020007030200000000000000000068
:10C0C0000703020007030200070302000703020040
:10C0D000070302000703020007030200000000003C
:10C0E0000000000000000000000000000000000050
:10C0F0000000000000000000000000000000000040
:10C10000000000000000000000000000000000002F
:10C11000000000000000000000000000000000001F
:10C40000044B05481B1A062B02D9044B03B11847ED
:10C41000704700BF67220020642200200000000057
:10C4200005490648091A891001EBD171491002D05B
:10C43000034B03B118477047642200206422002098
:10C440000000000010B5064C237843B9FFF7D8FF71
:10C45000044B13B10448AFF300800123237010BDD7
:10C4600064220020000000007C53020008B5084B45
:10C470001BB108490848AFF300800848036813B9A6
:10C48000BDE80840CCE7064B002BF9D09847F7E70A
:10C4900000000000682200207C530200602200207F
:10C4A00000000000154B002B08BF134B9D46A3F561
:10C4B000803A00218B460F461348144A121A05F0A1
:10C4C000CCFA0F4B002B00D098470E4B002B00D01E
:10C4D00098470020002104000D000D48002802D0DC
:10C4E0000C48AFF3008005F033FA2000290004F077
:10C4F00055FC05F007FA00BF00000800000001200D
:10C50000000000000000000064220020002A00203B
:10C5100000000000000000000B4B012210B51A7053
:10C520000A4B1B78044653B109490A4804F08CF8B9
:10C53000204602F08BF80146064804F0A7F80520D3
:10C54000BDE8104003F010BFB423002034250020C4
:10C55000904902008C2900200B4B002210B51A7064
:10C560000A4B1B78044653B109490A4804F06CF899
:10C57000204602F06BF80146064804F087F80520D3
:10C58000BDE8104003F0F0BEB423002034250020A5
:10C59000AB4902008C2900202DE9F041294B1A7883
:10C5A00086B00C461F461AB12749284804F04CF8BB
:10C5B00023682046DB689847236806461B692046A7
:10C5C000984723498046684604F002FB3546AB1B7A
:10C5D000DBB298454FF010020CD915F8011B03A8E7
:10C5E00004F069FB03A9684604F08DFB03A804F07E
:10C5F000ADFAECE70021009806F062F9154B3A78A5
:10C6000018601D461AB11449104804F026F80A2291
:10C6100029680E4804F094F823682046DB689847A0
:10C62000236805461B69204698470146284602F0C4
:10C63000AFFC052003F098FE684604F087FA06B0C8
:10C64000BDE8F08134250020C94902008C29002072
:10C65000C44A02000C210020F649020010B5034B29
:10C660000360044602F036F8204610BDF04D02008B
:10C6700010B50446FFF7F2FF204604F0A3FB204666
:10C6800010BD000010B5034B03600446FFF7E6FF42
:10C69000204610BDF847020010B50446FFF7F2FF30
:10C6A000204604F08FFB204610BD000013B52D4935
:10C6B0002D4802F0A2F92B492B4802F02EFB2B4803
:10C6C00001F07DFF0146284802F094F94FF6FF7112
:10C6D000254802F025FB2549234802F0E4FA2449C5
:10C6E000214802F0E0FA23491F4802F0DCFA22490F
:10C6F0001D4802F0D8FA214A1B48002102F0A7F990
:10C700001F4A1948012102F0A2F91E4A1E480021C1
:10C7100002F03FF81B4A1D48002102F03AF802A936
:10C72000002401F8014D0122174801F0E8FF02A999
:10C73000012201F8024D154801F0E1FF144B49F6C2
:10C7400040421A6003F0F8FD124B1860064802F0F0
:10C75000A2F9114B1B781BB11049114803F096FF49
:10C7600002B010BD594A0200F4250020082500201F
:10C77000C0240020D42500201425002019C5010064
:10C7800059C5010099C50100BC240020D025002016
:10C79000B8240020A427002034250020634A02008A
:10C7A0008C29002030B5A5B004460D460222084968
:10C7B00004A805F0ADFF2A4604A9684605F0A8FFC5
:10C7C0006946204604F004FA204625B030BD00BF7B
:10C7D0007D4A020030B505468BB00C460F20002183
:10C7E00003F008FE0520013800BF00BF00BF00BFF6
:10C7F00000BF00BF00BF00BF00BF00BF00BF00BF41
:10C8000000BF00BF00BF00BF00BF00BF00BF00BF30
:10C8100000BF00BF00BF00BF00BF00BF00BF00BF20
:10C8200000BF00BF00BF00BF00BF00BF00BF00BF10
:10C8300000BF00BF00BF00BF00BF00BF00BF00BF00
:10C8400000BF00BF00BF00BF00BF00BF00BF00BFF0
:10C8500000BF00BF00BF00BF00BF00BFC3D145F095
:10C860004001C9B27E4801F07EFE0520013800BFBC
:10C8700000BF00BF00BF00BF00BF00BF00BF00BFC0
:10C8800000BF00BF00BF00BF00BF00BF00BF00BFB0
:10C8900000BF00BF00BF00BF00BF00BF00BF00BFA0
:10C8A00000BF00BF00BF00BF00BF00BF00BF00BF90
:10C8B00000BF00BF00BF00BF00BF00BF00BF00BF80
:10C8C00000BF00BF00BF00BF00BF00BF00BF00BF70
:10C8D00000BF00BF00BF00BF00BF00BF00BF00BF60
:10C8E00000BFC3D100215E4801F03DFE05200138A4
:10C8F00000BF00BF00BF00BF00BF00BF00BF00BF40
:10C9000000BF00BF00BF00BF00BF00BF00BF00BF2F
:10C9100000BF00BF00BF00BF00BF00BF00BF00BF1F
:10C9200000BF00BF00BF00BF00BF00BF00BF00BF0F
:10C9300000BF00BF00BF00BF00BF00BF00BF00BFFF
:10C9400000BF00BF00BF00BF00BF00BF00BF00BFEF
:10C9500000BF00BF00BF00BF00BF00BF00BF00BFDF
:10C9600000BF00BFC3D13E48E1B201F0FCFD0A2088
:10C97000013800BF00BF00BF00BF00BF00BF00BF45
:10C9800000BF00BF00BF00BF00BF00BF00BF00BFAF
:10C9900000BF00BF00BF00BF00BF00BF00BF00BF9F
:10C9A00000BF00BF00BF00BF00BF00BF00BF00BF8F
:10C9B00000BF00BF00BF00BF00BF00BF00BF00BF7F
:10C9C00000BF00BF00BF00BF00BF00BF00BF00BF6F
:10C9D00000BF00BF00BF00BF00BF00BF00BF00BF5F
:10C9E00000BF00BF00BFC3D101210F2003F002FD33
:10C9F0001C4B1B78002B30D01B491C4803F03CFE1D
:10CA00001B4904A804F0E4F8294601A8FFF7CAFE70
:10CA100001A904A804F08AF9164904F093F9214603
:10CA2000054607A8FFF7BEFE07A9284604F07EF9D1
:10CA3000104904F087F901460C4803F009FE07A8E5
:10CA400004F084F801A804F081F804A804F07EF84A
:10CA500002222146054803F073FE0BB030BD00BF33
:10CA600060290020B0270020702700208C2900209A
:10CA7000864A0200C34A020030B5002187B005464D
:10CA80000F2003F0B7FC45F02001C9B27E4801F049
:10CA90006AFD0520013800BF00BF00BF00BF00BF16
:10CAA00000BF00BF00BF00BF00BF00BF00BF00BF8E
:10CAB00000BF00BF00BF00BF00BF00BF00BF00BF7E
:10CAC00000BF00BF00BF00BF00BF00BF00BF00BF6E
:10CAD00000BF00BF00BF00BF00BF00BF00BF00BF5E
:10CAE00000BF00BF00BF00BF00BF00BF00BF00BF4E
:10CAF00000BF00BF00BF00BF00BF00BF00BF00BF3E
:10CB000000BF00BF00BF00BF00BFC3D100215E480F
:10CB100001F029FD0520013800BF00BF00BF00BFA4
:10CB200000BF00BF00BF00BF00BF00BF00BF00BF0D
:10CB300000BF00BF00BF00BF00BF00BF00BF00BFFD
:10CB400000BF00BF00BF00BF00BF00BF00BF00BFED
:10CB500000BF00BF00BF00BF00BF00BF00BF00BFDD
:10CB600000BF00BF00BF00BF00BF00BF00BF00BFCD
:10CB700000BF00BF00BF00BF00BF00BF00BF00BFBD
:10CB800000BF00BF00BF00BF00BF00BFC3D1002176
:10CB90003D4801F0E8FC04460120013800BF00BF19
:10CBA00000BF00BF00BF00BF00BF00BF00BF00BF8D
:10CBB00000BF00BF00BF00BF00BF00BF00BF00BF7D
:10CBC00000BF00BF00BF00BF00BF00BF00BF00BF6D
:10CBD00000BF00BF00BF00BF00BF00BF00BF00BF5D
:10CBE00000BF00BF00BF00BF00BF00BF00BF00BF4D
:10CBF00000BF00BF00BF00BF00BF00BF00BF00BF3D
:10CC000000BF00BF00BF00BF00BF00BF00BF00BF2C
:10CC1000C3D101210F2003F0EDFB1C4B1B787BB32C
:10CC20001B491C4803F028FD1B4903A803F0D0FF53
:10CC300029466846FFF7B6FD694603A804F076F872
:10CC40000146144803F018FD684603F07FFF03A86F
:10CC500003F07CFF114903A803F0BAFF21466846A0
:10CC6000FFF7A0FD694603A804F060F801460948F3
:10CC700003F002FD684603F069FF03A803F066FFB6
:10CC8000204607B030BD00BF60290020B02700203B
:10CC9000702700208C290020864A02008D4A02005D
:10CCA00010B5002104460F2003F0A4FB0520013835
:10CCB00000BF00BF00BF00BF00BF00BF00BF00BF7C
:10CCC00000BF00BF00BF00BF00BF00BF00BF00BF6C
:10CCD00000BF00BF00BF00BF00BF00BF00BF00BF5C
:10CCE00000BF00BF00BF00BF00BF00BF00BF00BF4C
:10CCF00000BF00BF00BF00BF00BF00BF00BF00BF3C
:10CD000000BF00BF00BF00BF00BF00BF00BF00BF2B
:10CD100000BF00BF00BF00BF00BF00BF00BF00BF1B
:10CD200000BF00BFC3D12348214601F01CFC0A20EC
:10CD3000013800BF00BF00BF00BF00BF00BF00BF81
:10CD400000BF00BF00BF00BF00BF00BF00BF00BFEB
:10CD500000BF00BF00BF00BF00BF00BF00BF00BFDB
:10CD600000BF00BF00BF00BF00BF00BF00BF00BFCB
:10CD700000BF00BF00BF00BF00BF00BF00BF00BFBB
:10CD800000BF00BF00BF00BF00BF00BF00BF00BFAB
:10CD900000BF00BF00BF00BF00BF00BF00BF00BF9B
:10CDA00000BF00BF00BFC3D101210F2003F022FB51
:10CDB00010BD00BF6029002008B50121112003F03B
:10CDC000F7FA0021102003F0F3FA0121172003F0F5
:10CDD000EFFA0121082003F0EBFA01210F2003F004
:10CDE000E7FA0121162003F0E3FA0121142003F0F1
:10CDF000DFFA0021092003F0DBFA01210F2003F004
:10CE0000F9FA1420002103F0F5FA0120BDE80840EA
:10CE100003F0AABA10B50A4C204601F041FB2046A7
:10CE2000002101F06AFB2046102101F079FB204629
:10CE3000012101F04BFB0120BDE8104003F094BA42
:10CE4000602900202DE9F04701218CB0162003F065
:10CE5000D1FA4FF47A7003F087FA0021162003F01C
:10CE6000C9FA4FF47A7003F07FFA0121162003F01B
:10CE7000C1FA642003F078FA00210F2003F0BAFA17
:10CE80004FF47A7003F070FA01210F2003F0B2FA28
:10CE90004FF4FA7003F068FA1120FFF701FF0A203F
:10CEA00003F062FA2020FFF7E7FDA849044609A82D
:10CEB00003F08EFE0A22214606A803F0EAFE06A928
:10CEC00009A803F033FFA249A24C03F03BFF01463F
:10CED000A14803F0BDFB06A803F038FE09A803F043
:10CEE00035FE00210B20FFF775FC23783BB19B49F1
:10CEF000994803F0C1FB9A49974803F0C7FB012109
:10CF00000846FFF767FCA0210220FFF763FC4FF4FF
:10CF10007A7003F029FA2378002B5BD08F498E4872
:10CF200003F0AAFB8F498C4803F0B0FB0120FFF708
:10CF3000A3FD8D49054606A803F04AFE0A222946AC
:10CF400003A803F0A6FE03A906A803F0EFFE874995
:10CF500003F0F8FE2946064609A8FFF723FC09A9B5
:10CF6000304603F0E3FE01467B4803F085FB09A849
:10CF700003F0ECFD03A803F0E9FD06A803F0E6FDCD
:10CF80000220FFF779FD7A49054606A803F020FE46
:10CF90000A22294603A803F07CFE03A906A803F091
:10CFA000C5FE724903F0CEFE2946064609A8FFF7E2
:10CFB000F9FB09A9304603F0B9FE0146664803F0C3
:10CFC0005BFB09A803F0C2FD03A803F0BFFD06A8A0
:10CFD00003F0BCFD23783BB160495F4803F04CFB94
:10CFE00064495D4803F052FB634F01253B68DFF85D
:10CFF00088819D420ADCEE1C60213046FFF7EAFB87
:10D0000000213046FFF7E6FB0135EFE70121142050
:10D0100003F0F0F9962003F0A7F923783BB14F49CC
:10D020004D4803F029FB55494B4803F02FFB544D65
:10D03000DFF8549100232B600126D8F800309E427F
:10D0400000F3A4800120013800BF00BF00BF00BF73
:10D0500000BF00BF00BF00BF00BF00BF00BF00BFD8
:10D0600000BF00BF00BF00BF00BF00BF00BF00BFC8
:10D0700000BF00BF00BF00BF00BF00BF00BF00BFB8
:10D0800000BF00BF00BF00BF00BF00BF00BF00BFA8
:10D0900000BF00BF00BF00BF00BF00BF00BF00BF98
:10D0A00000BF00BF00BF00BF00BF00BF00BF00BF88
:10D0B00000BF00BF00BF00BF00BF00BFC3D1F01C56
:10D0C000FFF7DAFC00F00703012B14BF0123002354
:10D0D00006F809301EBF2B6801332B602378074602
:10D0E00093B30A223146684603F0D3FD694603A88C
:10D0F00003F0ACFD234903A803F024FE0A22824674
:10D10000394606A803F0C5FD06A9504603F00EFEF9
:10D11000164903F017FE3946824609A8FFF742FB7D
:10D1200009A9504603F002FE01460B4803F0A4FA99
:10D1300009A803F00BFD06A803F008FD03A803F0FF
:10D1400005FD684603F002FD013676E7984A0200C5
:10D15000714C0200B02700208C290020702700208D
:10D160009E4A0200AA4A0200B84A0200C24A0200CD
:10D17000C54A0200CF4A020010210020DC4A02000A
:10D1800088200020BF4A0200352500202378CBB13B
:10D190000E4909A803F01CFD0A22296806A803F01D
:10D1A00078FD06A909A803F0C1FD094903F0CAFDED
:10D1B0000146084803F060FA06A803F0C7FC09A876
:10D1C00003F0C4FC0CB0BDE8F08700BFF74A0200D2
:10D1D000014B02008C2900202DE9F8437C4B1B6891
:10D1E00003EB4303083323F0070300AF0021ADEB4B
:10D1F000030D0F2003F0FEF80120013800BF00BF2F
:10D2000000BF00BF00BF00BF00BF00BF00BF00BF26
:10D2100000BF00BF00BF00BF00BF00BF00BF00BF16
:10D2200000BF00BF00BF00BF00BF00BF00BF00BF06
:10D2300000BF00BF00BF00BF00BF00BF00BF00BFF6
:10D2400000BF00BF00BF00BF00BF00BF00BF00BFE6
:10D2500000BF00BF00BF00BF00BF00BF00BF00BFD6
:10D2600000BF00BF00BF00BF00BF00BF00BF00BFC6
:10D27000C3D11221574801F076F90120013800BFCF
:10D2800000BF00BF00BF00BF00BF00BF00BF00BFA6
:10D2900000BF00BF00BF00BF00BF00BF00BF00BF96
:10D2A00000BF00BF00BF00BF00BF00BF00BF00BF86
:10D2B00000BF00BF00BF00BF00BF00BF00BF00BF76
:10D2C00000BF00BF00BF00BF00BF00BF00BF00BF66
:10D2D00000BF00BF00BF00BF00BF00BF00BF00BF56
:10D2E00000BF00BF00BF00BF00BF00BF00BF00BF46
:10D2F00000BFC3D10021374801F035F900218DF876
:10D300000000344801F02FF90021324801F02BF9D8
:10D310000120013800BF00BF00BF00BF00BF00BF39
:10D3200000BF00BF00BF00BF00BF00BF00BF00BF05
:10D3300000BF00BF00BF00BF00BF00BF00BF00BFF5
:10D3400000BF00BF00BF00BF00BF00BF00BF00BFE5
:10D3500000BF00BF00BF00BF00BF00BF00BF00BFD5
:10D3600000BF00BF00BF00BF00BF00BF00BF00BFC5
:10D3700000BF00BF00BF00BF00BF00BF00BF00BFB5
:10D3800000BF00BF00BF00BFC3D1DFF85080124E06
:10D390000125D8F800309D4222DC00210D4801F023
:10D3A000E2F8002181460B4801F0DDF80021044637
:10D3B000084801F0D8F844EA092440EA0420C315DB
:10D3C000012B08BF40F07F4046F825000135E0E71B
:10D3D00088200020602900200C230020102100203C
:10D3E0000220013800BF00BF00BF00BF00BF00BF68
:10D3F00000BF00BF00BF00BF00BF00BF00BF00BF35
:10D4000000BF00BF00BF00BF00BF00BF00BF00BF24
:10D4100000BF00BF00BF00BF00BF00BF00BF00BF14
:10D4200000BF00BF00BF00BF00BF00BF00BF00BF04
:10D4300000BF00BF00BF00BF00BF00BF00BF00BFF4
:10D4400000BF00BF00BF00BF00BF00BF00BF00BFE4
:10D4500000BF00BF00BF00BFC3D101210F2002F0F9
:10D46000C9FFBD46BDE8F88314220249024801F015
:10D4700046B900BFF822002010250020000000005F
:10D480002DE9F047B84E2DED048B337886B0002B94
:10D490005BD0B649B648B74C03F0DFF804F1280575
:10D4A00054F8040B03F076FE41EC100B0621B04853
:10D4B00003F0EEF9B049AE4803F0CFF8AC42EFD13B
:10D4C000AE4C04F1280554F8040B03F063FE41EC64
:10D4D000100B0621A64803F0DBF9A749A44803F086
:10D4E000BCF8AC42EFD1A649A148A64C03F0CEF857
:10D4F000A5499F4803F0B1F804F1280554F8040B3E
:10D5000003F048FE41EC100B0621994803F0C0F9E6
:10D510009949974803F0A1F8AC42EFD19B4C04F134
:10D52000280554F8040B03F035FE41EC100B0621DE
:10D530008F4803F0ADF990498D4803F08EF8AC4266
:10D54000EFD18F498A4803F0A1F88C4C904BD4ED71
:10D55000090A9048C3ED000A90ED091A8E4B8B49D9
:10D5600083ED001AD1ED091A8C4B8D4AC3ED001AD8
:10D5700092ED092A8B4B8C4D83ED002A8B4BDFF803
:10D58000F481D3ED092ADFF85CC2C5ED002A884D8D
:10D59000DFF8F0E1D5ED009A864D874F95ED009AC2
:10D5A000864DD5ED008A864D95ED008A854D95ED29
:10D5B000000A854D4FF00A09B8EC013AFCEC013A3B
:10D5C000BEEC014AF7EC014AB5EC015AF4EC015A01
:10D5D000B0EC016AF1EC016AB2EC017AF3EC017A89
:10D5E000B9F1010933EE293A73EE893A34EE284A4B
:10D5F00074EE884A35EE005A70EEA55A31EE066A8E
:10D6000071EEA66A32EE077A72EEA77AD4D16F4B2A
:10D6100083ED087A83ED003AC3ED013A83ED024AC7
:10D62000C3ED034A83ED045AC3ED055A83ED066A40
:10D63000C3ED076AC3ED097A1C4603F128071D46AE
:10D64000B2EE067AD3ED006AC6EE877AE3EC017A91
:10D650009F42F7D133781BB15D49454802F0FDFF89
:10D6600033784BB94649424803F010F8574B9FEDC9
:10D67000596ADFED596A12E0DFF8508158F8040B5F
:10D6800003F088FD41EC100B0621394803F000F946
:10D690003949374802F0E1FF4745EFD1E2E7D3EDE2
:10D6A000007A77EE867A87EEA67AA3EC017A9F421B
:10D6B000F5D133781BB149492D4802F0CEFF3378BC
:10D6C00053B92F492A48DFF804A1DFED458A02F05B
:10D6D000DDFFB7EE009A21E0DFF8F08058F8040B88
:10D6E00003F058FD41EC100B0621214803F0D0F85F
:10D6F00021491F4802F0B1FF4745EFD1E1E716A3EA
:10D70000D3E900234046494604F028F8002808BF22
:10D71000B0EE688AAAEC018A574565D09AED008A76
:10D7200018EE100A03F036FD0BA3D3E90023804660
:10D73000894604F013F80028E1D009A3D3E90023B7
:10D740004046494603F0ECFF002808BFB0EE498A86
:10D75000E0E700BFAFF300803A8C30E28E79453EBF
:10D76000479CA1FAFFFFEF3FB0270020134B0200B8
:10D770008C29002090200020C34A0200A82200200B
:10D78000A8500200B82000202E4B0200E024002008
:10D790004021002080220020A42100208C20002095
:10D7A0007C270020082100203C210020D0220020DE
:10D7B0004821002084200020502100204C210020FE
:10D7C0007821002044210020E02000207C2100203E
:10D7D000494B02000000FA4500007A469A4B0200CD
:10D7E00077CC2B321421002033781BB17C497D4843
:10D7F00002F033FF3378002B40F0DC807A4979481F
:10D8000002F044FF03A8794901F014F903A800F0DD
:10D810000DFF002800F0DF80DFED757AD5ED002ADE
:10D8200095ED013AD5ED023A95ED034AD5ED044A5E
:10D8300095ED055AD5ED065A95ED076AD5ED086ABE
:10D840006C4B22EEA77ABDEEC77A8DED017A23EEFE
:10D85000277A9DF8048083F80080BDEEC77A8DEDAD
:10D86000017A23EEA77A9DF80490BDEEC77A8DED7C
:10D87000017A24EE277A9DF804E0BDEEC77A8DED9B
:10D88000017A24EEA77A9DF80470BDEEC77A8DED7B
:10D89000017A25EE277A9DF80460BDEEC77A8DEDFA
:10D8A000017A25EEA77A9DF804C0BDEEC77A8DED0A
:10D8B000017A26EE277A9DF80440BDEEC77A8DEDF9
:10D8C000017A26EEA77A9DF80400BDEEC77A8DEDA9
:10D8D000017A95ED097A9DF8041067EE277AFDEE3E
:10D8E000E77ACDED017ADFED447A9DF8042062EE0F
:10D8F000A72A23EE273AFDEEE22ABDEEC33A12EE46
:10D90000905A63EEA73AC8EB050813EE105A24EEBE
:10D91000274AFDEEE33AC9EB050564EEA74A83F812
:10D920000180BDEEC44A83F80290DD7013EE905A78
:10D9300025EE275A83F804E0FDEEE44ACEEB050E0F
:10D9400014EE105A9F71BDEEC55AEF1B14EE905A9B
:10D9500065EEA75A1E72AE1B15EE105AFDEEE55A83
:10D96000CCEB050526EE276ADD7215EE905ABDEE6A
:10D97000C66A66EEA76A1C732C1B5C7316EE104A0F
:10D98000FDEEE66A987367EE277A201AD87316EED2
:10D99000900AFDEEE77A1974411A597417EE901A3D
:10D9A0009A748A1A83F805E0DF715E7283F80AC000
:10D9B000DA7410E054F8040B03F0ECFB41EC100BAC
:10D9C0000621084802F064FF0C49064802F045FEB3
:10D9D000A742EFD112E706B0BDEC048BBDE8F0879B
:10D9E000EA4B02008C290020A8500200F4250020F8
:10D9F0000000C842F822002000401C46C34A020032
:10DA0000D0F8CC20DFED137A00EB820370B583ED04
:10DA1000000A00F16406002319249D1895FBF4F117
:10DA200004FB115100EB8101F6EC016A91ED007AE3
:10DA30000133192BE6EE877AEFD1013290ED320AED
:10DA400092FBF3F103FB1122C0F8CC2087EE800A91
:10DA500070BD00BF0000000070B500F16406044610
:10DA60006422304603F0D3FF4FF07E53C4F8C83031
:10DA70001925B7EE000A2046FFF7C2FF013DF8D195
:10DA8000C4F8CC502346002243F8042B9E42FBD11D
:10DA900084ED320A70BD0000D0F8FC20DFED147A6E
:10DAA00000EB820370B583ED000A00F17C050023D2
:10DAB0001F26991891FBF6F4C4EB4414091B00EBE4
:10DAC0008101F5EC016A91ED007A01331F2BE6EE3E
:10DAD000877AEED1013290ED3E0A92FBF3F3C3EB6D
:10DAE0004313D31AC0F8FC3087EE800A70BD00BF24
:10DAF00000000000D0F89C20DFED137A00EB8203D9
:10DB000070B583ED000A00F14C06002313249D1824
:10DB100095FBF4F104FB115100EB8101F6EC016A75
:10DB200091ED007A0133132BE6EE877AEFD10132C3
:10DB300090ED260A92FBF3F103FB1122C0F89C2022
:10DB400087EE800A70BD00BF00000000D0F88C2076
:10DB5000DFED147A00EB820370B583ED000A00F16B
:10DB6000440500231126991891FBF6F404EB0414E4
:10DB7000091B00EB8101F5EC016A91ED007A01339C
:10DB8000112BE6EE877AEED1013290ED220A92FB5C
:10DB9000F3F303EB0313D31AC0F88C3087EE800A3B
:10DBA00070BD00BF000000002DE9F0472DED028B95
:10DBB000AF4EB04CB04FB14DDFF80C83DFF80C9393
:10DBC00082B002F0B9FB33680133502B07EE900AA4
:10DBD000C8BF0123B8EE678A3360FFF7FDFA6068BB
:10DBE00003F0C6FAA0A3D3E9002303F051FC03F02D
:10DBF000BFFD00B207EE900AA148B8EEE70AFFF7B2
:10DC0000FFFEFDEEC07A6068CDED017ABDF904300B
:10DC100007EE903AF8EEE77AC7ED007A03F0A8FA3B
:10DC200091A3D3E9002303F033FC03F0A1FD00B27C
:10DC300007EE900A9348B8EEE70AFFF72DFFFDEED6
:10DC4000C07A6068CDED017ABDF9043007EE903AF4
:10DC5000F8EEE77AC5ED007A03F08AFA82A3D3E9F9
:10DC6000002303F015FC03F083FD00B207EE900AD9
:10DC70008548B8EEE70AFFF7C3FEFDEEC07A60689C
:10DC8000CDED017ABDF9043007EE903AF8EEE77A6F
:10DC9000C8ED007A03F06CFA73A3D3E9002303F014
:10DCA000F7FB03F065FD00B207EE900A7748B8EE87
:10DCB000E70AFFF71FFFFDEEC07A6068CDED017A3D
:10DCC000BDF90430724C07EE903AF8EEE77AC9EDF0
:10DCD000007A03F04DFA64A3D3E9002303F0D8FBE4
:10DCE00003F046FD00B207EE900A6A48B8EEE70A74
:10DCF000FFF72CFFFDEEC07A3A68CDED017ABDF951
:10DD000004306548654907EE903A654BF8EEE77ACE
:10DD10008E46C3ED007A634B5A622A686262D8F875
:10DD200000204262D9F800204A625F4A1D469946A7
:10DD3000C2ED097A17468446A0460023D9F804A00C
:10DD400049F804ABD8F804A048F804ABDCF804A008
:10DD50004CF804AB0133DEF804A04EF804AB092BF9
:10DD6000D7F804A047F804ABE8D133680A2B03D0F6
:10DD7000232B01D03C2B1CD14C484D4C00F032FEE3
:10DD800002F0DAFA07EE900AF8EE677A94ED007A7C
:10DD9000484B77EEC87A77EEC77AF5EEC07AF1EEA7
:10DDA00010FAC3ED007A40F30181434B01221A704F
:10DDB00057E10D2B01D0272B09D1DFF81481DFF8B3
:10DDC00014C1DFF814E13D4F3D4E002302E0412B2A
:10DDD00018D1F2E755F8049B48F8049B54F8049BCB
:10DDE0004CF8049B50F8049B4EF8049B013351F807
:10DDF000049B47F8049B0A2B52F8049B46F8049BAB
:10DE0000E8D129E0172B2A4C03D0312B01D04D2B20
:10DE100002D1FFF735FB0BE01A2B03D0342B01D0D6
:10DE2000502B5BD1274B1B78002B57D0FFF71CFBE7
:10DE300002F082FA07EE900AF8EE677A94ED007A23
:10DE40001C4B77EEC87A77EEC77AF5EEC07AF1EE22
:10DE500010FAC3ED007AA8DC02F06EFA144BD3ED91
:10DE6000008AA7E0AFF30080000000000088C340F4
:10DE7000AC2700200C230020482100208420002013
:10DE8000B4270020B8230020842800201423002079
:10DE90001421002038250020B82000205021002027
:10DEA0004421002090200020E0200020F4250020C4
:10DEB000A8270020CC250020C82500207C27002092
:10DEC000D0220020B42300204C2100207821002003
:10DED000A822002080220020E02400206E4B1A7827
:10DEE0001D46002A62D06D4BD4ED007AD3ED008A36
:10DEF00077EEE88A02F020FA07EE900AF8EE677AE9
:10DF000077EEC87AF4EEE78AF1EE10FA4BDD02F014
:10DF100013FA07EE900AF8EE677A77EEC87A78EE91
:10DF2000E78AFCEEE87A17EE900A00283BD0013829
:10DF300000BF00BF00BF00BF00BF00BF00BF00BFE9
:10DF400000BF00BF00BF00BF00BF00BF00BF00BFD9
:10DF500000BF00BF00BF00BF00BF00BF00BF00BFC9
:10DF600000BF00BF00BF00BF00BF00BF00BF00BFB9
:10DF700000BF00BF00BF00BF00BF00BF00BF00BFA9
:10DF800000BF00BF00BF00BF00BF00BF00BF00BF99
:10DF900000BF00BF00BF00BF00BF00BF00BF00BF89
:10DFA00000BF00BFC3D100232B705AE002F0C4F9B8
:10DFB000D4ED008A07EE900AF8EE677A77EEC87A19
:10DFC000F4EEE87AF1EE10FA4BD502F0B5F907EE6F
:10DFD000900AF8EE677A77EEC87A78EEE78AFCEE78
:10DFE000E87A17EE900A00283BD0013800BF00BF46
:10DFF00000BF00BF00BF00BF00BF00BF00BF00BF29
:10E0000000BF00BF00BF00BF00BF00BF00BF00BF18
:10E0100000BF00BF00BF00BF00BF00BF00BF00BF08
:10E0200000BF00BF00BF00BF00BF00BF00BF00BFF8
:10E0300000BF00BF00BF00BF00BF00BF00BF00BFE8
:10E0400000BF00BF00BF00BF00BF00BF00BF00BFD8
:10E0500000BF00BF00BF00BF00BF00BF00BF00BFC8
:10E06000C3D10F490F4802F0F8FA02F065F907EE44
:10E07000900AF8EE677A77EEC87A17EE900A03F006
:10E0800089F841EC100B0221064802F004FC02B0B2
:10E09000BDEC028BBDE8F087C8250020CC25002010
:10E0A000C44C02008C29002070B53248324E002446
:10E0B00064252A462146C0F8CC4003F0CEFC2F4808
:10E0C00021467C22C0F8FC4003F0C7FC2C482A46BD
:10E0D0002146C0F8CC4003F0C0FC2A482A4DC0F8C5
:10E0E0009C4021464C2203F0B8FC2848442221469B
:10E0F000C0F88C40264C03F0B0FC2649284602F0BC
:10E1000067FD224624492846244D03F0C9FBFF231E
:10E110001A461946284600F00FFE22462049284696
:10E12000204D03F0BDFB2049204800F0CFFE022225
:10E130001F49284600F0D2FE28461E4D2246314691
:10E1400003F0AEFB08221C49284600F0C7FE284613
:10E150001A4D2246314603F0A3FB122218492846E5
:10E16000142300F0E1FA224628461649BDE8704023
:10E1700003F096BBB427002085C60100B823002019
:10E180008428002014230020702700203825002038
:10E19000802000203A4C02004D0B0200F4250020A4
:10E1A000ADEC0100BC240020744C020008250020C6
:10E1B000794C0200D02500207E4C02001025002062
:10E1C000834C0200D5E6010010B5234C4FF4E13139
:10E1D000204602F06DFB204602F06EFB6420013801
:10E1E00000BF00BF00BF00BF00BF00BF00BF00BF37
:10E1F00000BF00BF00BF00BF00BF00BF00BF00BF27
:10E2000000BF00BF00BF00BF00BF00BF00BF00BF16
:10E2100000BF00BF00BF00BF00BF00BF00BF00BF06
:10E2200000BF00BF00BF00BF00BF00BF00BF00BFF6
:10E2300000BF00BF00BF00BF00BF00BF00BF00BFE6
:10E2400000BF00BF00BF00BF00BF00BF00BF00BFD6
:10E2500000BF00BFC3D110BD8C2900202DE9F041C3
:10E26000DCB0FFF7B1FF322002F07EF8544B1B7890
:10E270001BB15449544802F009FAFEF79DFDFEF720
:10E28000C9FDFEF7DFFD7C225049514C3DA803F04B
:10E29000BEFB64224F4924A803F0B9FB4C224E492F
:10E2A00011A803F0B4FB44224C49684603F0AFFBCD
:10E2B0003DA94B48FFF7D0FB7C223DA9A0184FF0A9
:10E2C0007E5503F0A4FB1F27C4F8F8502646404CA7
:10E2D000B7EE000A2046FFF7DFFB013FF7D1C4F895
:10E2E000FC70204604F17C03002240F8042B984285
:10E2F0004FF00008F9D186ED3E0A3A4C3A4824A97D
:10E30000FFF7AAFB4C2211A9A01803F080FB1327EA
:10E31000C4F898502646334CB7EE000A2046FFF763
:10E32000E9FB013FF7D1C4F89C70204604F14C038F
:10E3300040F8048B9842FBD12C4C86ED260A4422EF
:10E340006946A01803F063FB1126C4F888502546DF
:10E35000264CB7EE000A2046FFF7F8FB013EF7D146
:10E36000C4F88C60204604F1440340F8048B9842C2
:10E37000FBD185ED220A1E4913481E4C02F06DF9AF
:10E38000194BD3F8C80002F005FF41EC100B022135
:10E390000D4802F080FAFEF789F9174B17490A4831
:10E3A000236002F05AF9206802F0F4FE41EC100BF1
:10E3B0000221054802F06FFA5CB0BDE8F08100BFB1
:10E3C000B0270020884C02008C2900202048020041
:10E3D000B82300209C480200004902004C4902007A
:10E3E000B427002014230020842800203825002092
:10E3F000954C0200A827002003993346B84C020030
:10E4000038B50025057329B90B4B0C4A0C4823215C
:10E4100003F04CFA01600B4951F82220027151F8C7
:10E42000233083719DF8103051F82330437102235B
:10E43000C371856038BD00BF0F4D0200D24C020091
:10E440001D4D0200A04F0200037B23B94373837369
:10E4500003610123037370471FB50DF1100E0EE920
:10E460000E009DF80810026800230129C2F800354B
:10E47000039B08D004D3032907D143F0040304E02D
:10E4800043F0020301E043F00603C2F85435019B58
:10E49000C2F824350123C2F8003505B05DF804FB4D
:10E4A00010B5FFF7D1FF03688279C3F808254279D8
:10E4B000C3F80C250279C3F81025034BBDE81040C2
:10E4C0000ECBFFF7C9BF00BF54290020C37911F15B
:10E4D000FF3118BF0121012B816008D004D3032B29
:10E4E00007D141F0040104E041F0020101E041F0F4
:10E4F00006010368C3F8541570470129C171836888
:10E5000008D004D3032907D143F0040304E043F007
:10E51000020301E043F006030268C2F85435704775
:10E520000A060ED43F290FD81F2910D80F2911D859
:10E53000072912D803298CBF4FF080434FF00043C6
:10E540000DE04FF000730AE04FF0806307E04FF0FA
:10E55000006304E04FF0805301E04FF00053026885
:10E56000C2F8243570470368C3F81C15D3F8082196
:10E57000002AFBD0D3F818050022C3F80821C0B246
:10E580007047000007B5094B09490A484FF080421F
:10E590001A6000229A6002221A711023009312223C
:10E5A0001123FFF72DFF03B05DF804FB5429002071
:10E5B00000300040602900200160828070470068C0
:10E5C00070478088704729DF704728DF70470368ED
:10E5D0001868013018BF0120704708B54FF080530C
:10E5E0001A690368B3FBF2F31846FFF7EEFF112830
:10E5F000FAD008BD38B504460D461946FFF7EDFFC1
:10E600008B081A4629462068FFF7DDFF1128F8D04D
:10E6100038BD10B502680846043A441AA34204D92A
:10E6200052F8044F40F8044BF7E710BD07B500233C
:10E630000622694604300093ADF8043003F0D8F99F
:10E64000003018BF012003B05DF804FB10B5034C87
:10E650000430214600F05AFC204610BD74290020E9
:10E660000B6843608B8803817047002343600381FC
:10E67000704708B50160FFF7F8FF08BD807A704762
:10E68000C0687047007C704700207047C368585CC2
:10E69000704770B50D46114602680446D6691A46A1
:10E6A000B0470123A374A36923B121462846BDE8DE
:10E6B0007040184770BD70B5044608460D4604F01A
:10E6C0005DF82368C2B229462046DB69BDE8704088
:10E6D00018470000044B10B504460360C06808B139
:10E6E00003F07EF9204610BD5C4D020010B50446D3
:10E6F000FFF7F0FF204602F065FB204610BD10B585
:10E70000837A9A42044628BF1A460274C06803F00E
:10E710007EF9606928B1036821461B68BDE8104096
:10E720001847012010BD000070B504461D4616466E
:10E73000043042F6030200F08FF8142D4FF000026F
:10E7400028460A4B236028BF1420A072E26022747E
:10E750006674A274E2746261A261E261226215B120
:10E7600003F036F9E060204670BD00BF5C4D02004A
:10E77000407C7047C07C70470346002ADA7414BF9F
:10E7800007220822084653F822200AB119461047EA
:10E7900070470B299CBF063140F82120704741612A
:10E7A0007047704770477047002070477047704748
:10E7B00000207047002070470020704700207047FD
:10E7C00000207047002070470020704700207047ED
:10E7D00000207047002070470020704700207047DD
:10E7E000704770477047704710B5044602F0EAFA68
:10E7F000204610BD054A0260642282800121002269
:10E80000C28002818172C260026170478C4D020039
:10E81000016170470120704710B5034B0360044647
:10E82000FFF758FF204610BDF04D020010B504461A
:10E83000FFF7F2FF204602F0C5FA204610BD0000A7
:10E8400038B504461D46FFF76FFF024B2574236061
:10E85000204638BDF04D020010B50446FFF7ACFE6F
:10E86000024A137801331370204610BD8629002018
:10E87000014B1878704700BF86290020C0680368E4
:10E880001B6A1847A0F10400FFF7F8BFC0680368CF
:10E890005B6A1847A0F10400FFF7F8BFC06803687F
:10E8A0009B6A1847A0F10400FFF7F8BFC06803682F
:10E8B000DB6A1847A0F10400FFF7F8BFC0680368DF
:10E8C0001B6B1847A0F10800FFF7F8BFC06803688A
:10E8D0005B6B1847A0F10800FFF7F8BFC06803683A
:10E8E0009B6B1847A0F10800FFF7F8BFC06810B491
:10E8F0000468E46BA4465DF8044B6047A0F108008F
:10E90000FFF7F4BFC06803681B6C1847A0F108004C
:10E91000FFF7F8BFC06803685B6C1847A0F10800F8
:10E92000FFF7F8BFC06803689B6C1847A0F10800A8
:10E93000FFF7F8BFC0680368DB6C1847A0F1080058
:10E94000FFF7F8BFD0F8743113B100F5B070184775
:10E950007047D0F8783113B100F5B07018477047A0
:10E9600030B414461A4623685D6A9DF8083000F5F5
:10E97000B071AC46204630BC60477047704770B5F8
:10E98000054600F5B07411462046FFF769FED5F83C
:10E990006C311BB12046BDE87040184770BDD0F8FF
:10E9A000703110B500F5B0740BB120469847204681
:10E9B000BDE81040FFF759BE10B4144600F5B07121
:10E9C0001A4620465DF8044BFFF7D6BE10B4144635
:10E9D00000F5B0711A4620469DF804305DF8044BEE
:10E9E00000F056BAC0680368DB681847C06803685F
:10E9F0001B691847C0F88C107047C0F89C1070470E
:10EA000038B5D0F8A83004460D463BB900F01CFAE2
:10EA100000B2800002F0DCFFC4F8A80094F8AC203B
:10EA2000D4F8A83043F8225094F8AC30013384F87D
:10EA3000AC3038BD38B505460C460846FFF7D2FF66
:10EA400004F5B07107C985E80700284638BD0F29CD
:10EA50009CBF00EB8100C0F86C21704710B50446E4
:10EA6000FFF706FF00B2800002F0B2FF04F1B0032E
:10EA7000036004F1BC03436004F1E003836004F528
:10EA80008073C36004F586730361052384F8A430A2
:10EA9000C4F8A00010BD2DE9F043D0F89010ADB03F
:10EAA000002304468DF83030E1B106A800F096FA54
:10EAB00006A800F0C5FA022805468CBF15231423CA
:10EAC0008DF8500006A88DF8513000F0B7FA2A46AC
:10EAD0000146C5F11A050DF1520002F098FFEDB2A2
:10EAE000012601E01C250E46D4F88C1031B306A88F
:10EAF00000F074FA06A800F0A3FA431CAB420746E4
:10EB00001CDAC6EB46182CAB434402288CBF062205
:10EB1000022203F8600C03F85F2C06A800F08EFABE
:10EB20002CAB984401463A46A8F15E00023D02F043
:10EB30006EFF0136ED1BF6B205F0FF05D4F8941018
:10EB4000C9B194F89820B2B1022D14D9531CAB422C
:10EB5000C6EB46102CAB0344A4BF023DEAB2FF252E
:10EB600003F8602C03F85F5C2CAB18445E3802F0AD
:10EB70004EFF0136F6B2D4F89C50BDB1284603F0E2
:10EB8000FDFDC0B21D288ABF1D238DF830008DF811
:10EB900030309DF8302090428CBF082009208DF83D
:10EBA000310029460DF1320002F031FFD4F8A030D7
:10EBB00013B92046FFF752FF002742F6030804F17D
:10EBC000040994F8A4309F4205DB002742F60308AD
:10EBD00004F108091BE0D4F8A03053F82750284668
:10EBE000FFF7EFFC404506D10DB1281F00E0284695
:10EBF0004946FFF7D4FD0137E3E7D4F8A83053F8CE
:10EC000027502846FFF7DDFC404505D0013794F832
:10EC1000AC309F42F1DB07E00DB1281F00E0284631
:10EC2000494600F049F9F1E74BB104F596712046E9
:10EC3000FFF7E6FE04F59C712046FFF7E1FEE06871
:10EC400094F8AC1002680491D4F8A810039194F8D9
:10EC5000A41002919DF83030D4F8A01001910CA9B5
:10EC60000033009118BF01239568314614AAA847C4
:10EC7000E06803681B6D98472DB0BDE8F08338B598
:10EC8000D0F8A03004460D460BB9FFF7E7FE94F824
:10EC9000A420D4F8A03043F8225094F8A4300133D3
:10ECA00084F8A43038BDFFF7EABF0000154B10B55B
:10ECB00003F1680203600446803342608360FFF71B
:10ECC00095FED4F8A80008B102F08AFED4F8A0009E
:10ECD00008B102F085FE04F59A7000F0BBF804F567
:10ECE0008470FFF7F7FC04F1DC00FFF7F3FC04F19C
:10ECF000B800FFF7EFFC04F1100000F083FE20469F
:10ED000010BD00BF444E020010B50446FFF7CEFF11
:10ED1000204602F057F8204610BDB830FFF7CBBCB4
:10ED200007B502AB022223F8021DDC301946FFF7BB
:10ED3000E6FC03B05DF804FB2DE9F843354BDFF842
:10ED4000E890DFF8E88003F108020446026000F171
:10ED5000100703F170028833002542608360384653
:10ED600001F08CFA04F1B806C4F88C50C4F8905045
:10ED7000C4F8945084F89850C4F89C50C4F8A0503B
:10ED800084F8A450C4F8A85084F8AC50224904F187
:10ED9000B00000F09BF81323022220493046FFF711
:10EDA000C3FC02231A461E4904F1DC00FFF7BCFC39
:10EDB000494604F5807000F089F80423202241467A
:10EDC00004F58470FFF7B0FC494604F5967000F036
:10EDD00075F82022414604F59A7000F043F8214668
:10EDE00004F5B070FFF745FC10222946E76004F5F2
:10EDF000B67002F032FE0B493046FFF75CFC294644
:10EE00002046FFF78DFFE0682146FFF701FD204611
:10EE1000BDE8F8833C4E0200184E02001D4E020071
:10EE2000224E0200314E0200274E02002C4E0200FC
:10EE300010B50446FFF7C0FB024A13780133137084
:10EE4000204610BD87290020014B1878704700BF6D
:10EE500087290020704710B5044601F0B3FF204613
:10EE600010BD000038B504461546043042F60302D2
:10EE7000FFF7DEFF054B23600023A572E372A36258
:10EE800084F822306362204638BD00BFEC4E020099
:10EE900070B50446C3720D460C3011461A4602F096
:10EEA000B6FD012384F82230A36A23B12146284607
:10EEB000BDE87040184770BD4162704710B54FF40F
:10EEC00020520446FFF7B4FF204610BD10B54FF4A2
:10EED00020520446FFF7C0FC204610BD13B50123A5
:10EEE0000446FFF7ADFC02A9064B2360002301F89E
:10EEF000013D01222046FFF702FC034B2360204620
:10EF000002B010BDFC4E0200F847020070B58AB096
:10EF100004460E4601A81B4901F05AFE194904A8EF
:10EF200001F056FE0634052514F8013D0F2B03D8D9
:10EF3000154901A801F0EBFE1022217807A801F085
:10EF4000BAFE07A904A801F08BFE07A801F0FEFD98
:10EF500004A901A801F0D7FE1DB10C4901A801F0D8
:10EF6000D6FE15F1FF35DFD200231222314601A86B
:10EF700001F0FAFE04A801F0E9FD01A801F0E6FDA8
:10EF80000AB070BDC44A0200774C0200F54A020084
:10EF9000F8B505460F460446631B9F4213DD2378F0
:10EFA00013F0F00F264603D109490A4801F055FB3A
:10EFB00031780848102201F09FFB074905480134C9
:10EFC00001F04BFBE8E70348BDE8F84001F04CBB1B
:10EFD000774C02008C290020A8500200F7B50446A7
:10EFE00000232160037508460E468DF804308DF825
:10EFF00005308DF8063003F0C1FB451E002D1ADBED
:10F00000277D0F2F17D8735D2D2B01D1013510E00F
:10F010007219002112F8012C8DF8042001A8102289
:10F020008DF8053003F0D4FC27443871237D01337B
:10F030002375023DE2E7204603B0F0BD043070477F
:10F04000007D704771DF704772DF704773DF704774
:10F0500075DF704776DF704777DF704778DF70477E
:10F060007ADF70477CDF70477EDF70477FDF704755
:10F0700086DF704790DF704792DF704796DF7047FA
:10F0800098DF704799DF7047A0DF7047A2DF7047B5
:10F09000A3DF7047A4DF7047A6DF7047A9DF704782
:10F0A00060DF704761DF704762DF704763DF704782
:10F0B00053DF704710DF704711DF704790F8600032
:10F0C000003018BF0120704770B590F871600023C0
:10F0D000B34214DA1A01456FAC18AA588A420CD10F
:10F0E000E38973B1227B02F0020202F0FF0342B116
:10F0F00090F8780080F0010070BD0133E8E700204F
:10F1000070BD184670BD70B590F871600023B342B1
:10F110001ADA1A01456FAC18AA588A4212D1E1894D
:10F12000A1B1227B02F0020202F0FF0382B10123AF
:10F1300080F878300022808FFFF7A0FFB0FA80F0CF
:10F14000400970BD0133E2E7002070BD084670BD84
:10F15000184670BD70B590F871600023B3421CDA98
:10F160001A01456FAC18AA588A4214D1E389B3B189
:10F17000227B130704D590F8780080F0010070BD61
:10F1800002F0040202F0FF034AB190F86000003080
:10F1900018BF012070BD0133E0E7002070BD1846A4
:10F1A00070BDF0B590F871E085B0002474452FDA99
:10F1B0002501476F7E197D598D4227D1F4894CB3C3
:10F1C000357B15F00C0127D090F8601021B315F0B5
:10F1D000080F14BF01250225ADF80A3001390123BB
:10F1E00080F860108DF8045080F87830002501A96F
:10F1F000808F8DF80550ADF80640ADF808500392A9
:10F20000FFF73EFFB0FA80F0400906E00134CDE799
:10F21000002002E0204600E0084605B0F0BD70B5D1
:10F2200090F871600023B34210DA1A01456FAC18F0
:10F23000AA588A4208D1E08948B1237B13F0300FE5
:10F2400014BF0120002070BD0133ECE7002070BD29
:10F250007FB590F871600023B3422EDA1A01456F32
:10F26000AC18AA588A4226D1E28942B3217B11F018
:10F27000300326D0012311F0100F14BF19460221CC
:10F280001A44ADF80210ADF80620002102228DF8D4
:10F290000510ADF80810ADF80A2080F878306A44FF
:10F2A00001A9808F8DF804300392FFF7E9FEB0FAD0
:10F2B00080F0400906E00133CEE7002002E010466E
:10F2C00000E0184604B070BD03681B6C18477FB59A
:10F2D00090F871600023B3422ADA1A01456FAC1826
:10F2E000AA588A4222D1E28922B3237B13F0300349
:10F2F0004FF0000120D001231A44ADF8062002226D
:10F30000ADF802108DF80510ADF80810ADF80A2020
:10F3100080F878306A4401A9808F8DF80430039218
:10F32000FFF7AEFEB0FA80F0400906E00133D2E705
:10F33000002002E0104600E0184604B070BD11F154
:10F34000270F08B514DB11F11D0F14DB11F1130F9A
:10F3500014DB11F10F0F14DB11F10B0F14DBCA1DBD
:10F3600015DBCB1C16DB0029D4BF0020042013E0E2
:10F370006FF0270010E06FF01D000DE06FF013003C
:10F380000AE06FF00F0007E06FF00B0004E06FF091
:10F39000070001E06FF00300FFF75EFEB0FA80F0B7
:10F3A000400908BD1321808FFFF754BE07B5014601
:10F3B0006846FFF747FE086920B103680DF10102B6
:10F3C000DB69984703B05DF804FB000013B5044601
:10F3D00002A8002340F8043DFFF76AFE019801F0FF
:10F3E000C7FE084B002201F029FF02F009FA236949
:10F3F00033B11A6800EE100A126A21461846904787
:10F4000002B010BD0000D03F704710B5044686B072
:10F4100018220021684602F020FBA37A33B994F841
:10F420003430002B14BF0223032300E000238DF8A7
:10F430000030A38868460A221B0193FBF2F3ADF863
:10F440001030FFF703FE06B010BD2DE9F04305466E
:10F4500090F861008FB00C460023142683425DDAD9
:10F4600006FB03F2696E8F188A58A24207D1204624
:10F47000FFF77EF9C30751D57B6813B94EE001331E
:10F48000ECE795F833600DF11808324605F11401E8
:10F49000404602F0BCFA236820461B6998470430B6
:10F4A0000644F6B21F2E39D87868FFF788F801466F
:10F4B0006846FFF793FD236895F833701B69204673
:10F4C00098470EAB1F44033007F8200C95F83370B3
:10F4D0003B441622684603F81F2CFFF7AFFD0237A6
:10F4E000038828F80730236895F83370DB682046D6
:10F4F0009847236881461B6920469847043747444C
:10F5000002464946384602F082FA00231A4631463E
:10F510004046FFF799FDAC63012000E000200FB0EA
:10F52000BDE8F0832DE9F047D4B04FF48E73044664
:10F530000DF10A010DA8ADF80A30FFF7B3FD03463F
:10F54000002840F04482BDF83420302A00F03C818D
:10F5500011D8112A5CD004D8012A21D0102A27D032
:10F5600035E2142A00F0C780192A00F0D080132A4F
:10F5700040F02D829BE0382A00F0DA8106D8322A4A
:10F5800000F06481362A00F0BA8120E2502A00F0AF
:10F59000D180522A00F01281392A40F01882ECE121
:10F5A00094F860209DF83C30134484F860300EE2FB
:10F5B000BDF83800A08705A9FFF776FD20699DF802
:10F5C000143084F8603028B103680DF13D021B68E7
:10F5D00021469847E288052A12D92389B3F5486F56
:10F5E0000ED8ADF816300023ADF8183005A94FF449
:10F5F000C873A08FADF81420ADF81A30FFF728FDBE
:10F6000094F86830002B00F0E2810022012109E12A
:10F610004FF6FF72A28784F8600005464FF0140988
:10F62000804694F861309D4216DA676E09FB05F654
:10F63000BB19B85983F8108083F81180FFF79AF846
:10F6400040B1206930B10368BA59D3F814A02146FB
:10F650000023D0470135E4E7206918B1036821464B
:10F660005B68984700230C20194694F86820934261
:10F6700002DB0023184605E0E26E00FB03220133A3
:10F680009160F2E794F87120934208DA616F1A01F1
:10F69000114401330873616F0A44D081F2E70023FB
:10F6A00084F87830236820469B6998478FE1E068AA
:10F6B000002800F08681FEF78AFF002840F0818153
:10F6C000012303228DF80F3062F306138DF80C30FE
:10F6D00007238DF80D30102300218DF80E30E36DD7
:10F6E00005938DF8101009910A910B9106910791DD
:10F6F00005AB03AA68E1E16DBDF84420488A904259
:10F7000018BF1946A08F1A46FFF7B2FC5FE19DF8BB
:10F710003C20002A40F05B81E06820B11C2304F10A
:10F720004001FEF767FF2069002800F05081036860
:10F730009B68E1E0BDF83A8006464FF0140994F862
:10F7400061309E4280F24381616E09FB06F3CF185F
:10F750003A8942450CD12069002800F038810368BD
:10F760009DF8442000921D693A680DF1460323E19B
:10F77000BA89424520D19DF847009DF8462042EACB
:10F78000002295B202F001023A74C5F340027A7485
:10F7900015F00305C85818BF0125FEF7EBFFA84276
:10F7A0000AD02069002800F0128103683A685E6977
:10F7B00021462B46B0470AE10136C0E70246014622
:10F7C000A08FFFF76BFC02E1BDF83A2072BBBDF8D9
:10F7D00040500DA913460C26AB421CDA94F8687011
:10F7E0000020B84214DAE26E91F810C006FB002245
:10F7F00092F806E0F44509D1B1F80EC0B2F804E081
:10F80000F44503D1D1F81200906001E00130E8E73F
:10F8100001330831E0E70DAB03EBC5050022A989F0
:10F82000013189B2A08FFFF725FCD0E094F8682061
:10F830000C20934280F2CB80E16E00FB03110D8916
:10F8400015B14D89002D4BD10133F2E7BDF83A20B7
:10F8500094F87030002A36D1E66E03EB430306EBD2
:10F8600083030A259B6805930DAB9A8905FB023536
:10F87000AB4223D0002194F87120914219DA626FD3
:10F8800094F8700002EB011200EB400056F8207073
:10F89000506887420BD11F7C907A874207D110892C
:10F8A000DF89874201BF987C1073D88AD0810131EB
:10F8B000E1E7DA8AADF814200A33D9E705A9A08F69
:10F8C000FFF7DAFB83E001330C2294F868005A4317
:10F8D00083420CDAE16E11440D892DB14D891DB1C1
:10F8E00084F870300831EAE701330C32F0E7206920
:10F8F00000286CD00368DB682146984767E0BDF8B4
:10F900003A1084F8780040F20512914201D1E26881
:10F91000CAB9BDF8401094F871000023834256DA4A
:10F92000626F02EB0312D5898D423BD00133F5E7BC
:10F93000BDF83A1084F8780040F20512914246D1A1
:10F94000E268002A43D01A0E8DF8183042F0010206
:10F95000DBB28DF8172043F00103032262F3061394
:10F960008DF8143007238DF8153005A91023A08FCA
:10F970008DF81630FFF778FB29E09DF84230BDF88E
:10F980004050022B03D12946A08FFFF77BFB94F850
:10F99000711000238B421ADA626F02EB0312D089D6
:10F9A000A8420CD1206990B19DF8441003680091E1
:10F9B00012689D690DF146032146A84707E001330F
:10F9C000E8E700231A468521A08FFFF74FFB54B0CC
:10F9D000BDE8F08710B50446FFF76EFB606F08B115
:10F9E00001F0FEFFE06E08B101F0FAFF606E08B1B1
:10F9F00001F0F6FF002384F8613084F8683084F861
:10FA0000713010BD10B5054B03600446FFF7E2FFEF
:10FA10002046FEF7E8FE204610BD00BF304F020032
:10FA200010B50446FFF7EEFF204601F0CBF9204663
:10FA300010BD07B51288ADF80020ADF802106A4677
:10FA400001464FF6FF700193FFF724FB03B05DF80A
:10FA500004FB00002DE9F04FEDB09A469DF8E83127
:10FA60000193A24B769E9DF8E081054618680890A8
:10FA70000F4608A800211446FFF71CFB9C4B099376
:10FA8000142200210DA801F0E8FF0A2309A9ADF80E
:10FA900034300DA801238DF840308DF83C30FFF74D
:10FAA000FFFA2822ADF82C205022ADF82E204FF07E
:10FAB00000094FF4C8720BA8ADF83220ADF83090B1
:10FAC000FFF7CEFA4846FFF7C7FA6B750623022206
:10FAD000AB7503232A7585F833301FB314B3144470
:10FAE000B9451FDA95F8330014F8023C2A1801339F
:10FAF0001375023014F8013C5375C0B285F8330019
:10FB0000284414F8022C2146143001F080FF14F828
:10FB1000023C95F83320134485F8333009F101098C
:10FB20001F34DDE724AFBAF1000F20D00EB34FF041
:10FB3000000902364B46D1451CDA16F802BC16F80D
:10FB4000011C0BF10102FA549C1CFA18E4B251702A
:10FB500038195A46314601F05AFF5C444FF0010211
:10FB6000E3B285F8342009F101091F36E3E7534673
:10FB700000E033463A4695F8331005F11400FFF7DC
:10FB800063FA0020FFF76AFA002442F603064445B0
:10FB90000DDA779B53F82400FEF713FDB04202BF45
:10FBA00095F86130013385F861300134EFE795F85D
:10FBB00061000338C0B285F8610000EB800080006E
:10FBC00001F006FF00266866ADF814600296B146A3
:10FBD000464580F2BE81779B53F826402046FEF7CB
:10FBE000EEFC014617A8FFF7F9F917A8FFF726FA68
:10FBF000074617A8FFF724FA022809D17A783B783C
:10FC000043EA0223ADF8283001238DF82A301CE0A6
:10FC10003B460DF1B00E07F1100C1868596872469A
:10FC200003C2083363459646F7D17A7B3B7B43EAB0
:10FC30000223ADF828300DF12A0100232CA88DF8FD
:10FC4000BD308DF8BC30FFF731FA2046FEF7B9FC25
:10FC5000B0F5205F204611D1FEF7B1FC254902F036
:10FC60007BFD002800F073812046FEF7A8FC2249A6
:10FC700002F072FD002800F06A8131E2FEF7A1FC7B
:10FC800042F60303984240F0358104B1043C271D3D
:10FC90003846FEF794FC194902F05EFDB8B99DF8AC
:10FCA000B030012262F3030362F307138DF8B03022
:10FCB00023682046DB689847236807461B6920466F
:10FCC0009847394682B22CA8FFF7CCF93FE1384675
:10FCD000FEF775FC0A4902F03FFD98B923682046FB
:10FCE000DB6898470088FFF7B9F930E1244F02003C
:10FCF00080200020184E0200274E02001D4E0200F8
:10FD0000224E02003846FEF75AFCC14902F024FD9B
:10FD1000002800F01C812046FEF72AFD2368824659
:10FD20001B69204698476A6EADF8160009EB8901F9
:10FD30004FEA810B02EB0B0342F821400027029AA5
:10FD40005A601F745F741C2239461DA801F085FE9D
:10FD50002AF001031AF0300F8DF8743010D001230F
:10FD6000194663F307118DF81810194606AA63F3B4
:10FD7000071163F342078DF819108DF81A7022925B
:10FD800000231AF0320FADF81C308DF81E300BD066
:10FD90009DF81C30E968012262F3030301B10222DD
:10FDA00062F307138DF81C301AF00C0F10D0EB68BB
:10FDB00001222BB19DF81D3062F30303022203E000
:10FDC0009DF81D3062F3030362F307138DF81D30B5
:10FDD0009DF81E30012262F342038DF81E30236825
:10FDE00020469B6998479DF81E3080F0010060F323
:10FDF00000038DF81E30771C47453CDA779B53F89B
:10FE000027A05046FEF7DDFBB0F5245F33D1BAF1F1
:10FE1000000F01D0AAF1040A0AF104031846039363
:10FE2000FEF7CDFB7B4902F097FC039BA0B9DAF803
:10FE3000003050469B6898471E90DAF800305046D4
:10FE4000DB689847DAF80030ADF87C00DB68504694
:10FE50009847ADF87E000CE01846FEF7B0FB6E49FF
:10FE600002F07AFC28B9DAF8003050469B689847CF
:10FE700020900137C0E71422002112A801F0EDFD07
:10FE80000DF1160A0AAB129307AB1393BAF80030C0
:10FE9000ADF85030236820469B6898476B6EADF8EC
:10FEA000540000275B44083312AA1DA93846169750
:10FEB000FFF7ECF8BAF80030BBB12CABBAF8002071
:10FEC0000393974208DA22683946526920469047E0
:10FED000039BD8550137F1E76B6E9B4452462CAB20
:10FEE0000021BBF80800FFF7A4FD09F101095FFA42
:10FEF00089F92CE02046FEF764FBB0F5245F26D19B
:10FF000004B1043C271D3846FEF759FB414902F075
:10FF100023FCE0B13846FEF752FB404902F01CFCDE
:10FF2000A8B13846FEF74BFB3D4902F015FC70B115
:10FF30003846FEF744FB384902F00EFC38B1D6E0F3
:10FF40002CAB52460021BDF81400FFF772FD0136BC
:10FF50003EE6019B23B3A3F102085FFA88F6002472
:10FF600042F60307B442B0461CDA799B53F824806A
:10FF70004046FEF726FBB0F5205F05D195F86830C6
:10FF8000013385F8683009E04046FEF71AFBB842B5
:10FF900002BF95F87130013385F871300134E1E723
:10FFA000DDF8048095F8680000EB4000800001F067
:10FFB0000FFDE86695F87100000101F009FDDDF81C
:10FFC000E4916867002609EB88083746B246C145C8
:10FFD00079D059F8044B2046FEF7F1FA01462CA8D7
:10FFE000FEF7FCFF2CA8FFF729F883462CA8FFF7A3
:10FFF00027F8022816D19BF801209BF8003043EA2D
:020000022000DC
:100000000223ADF85C3001238DF85E3029E000BF9B
:100010002C4E02008C4F0200914F0200964F0200BE
:100020009B4F02005B460DF1740E0BF1100C18682B
:100030005968724603C2083363459646F7D19BF868
:100040000D209BF80C3043EA0223ADF85C300DF133
:100050005E0100231DA88DF881308DF88030FFF7F8
:1000600025F82046FEF7ADFAB0F5205F10D1EA6E14
:1000700007EB47018B00D01842F82140179A4260E5
:10008000EA6E1344013700229A60FFB2A2469EE74F
:100090002046FEF796FA42F60303984297D1696F1D
:1000A0003301CA1804B1043CCC50C2F804A017991B
:1000B00091606A6F1A44002111736A6F134401360C
:1000C000D981F6B283E7E86818B1FEF780FA002814
:1000D00065D12B6828469B6998476DB0BDE8F08FC5
:1000E00005AA0AA90120FEF7CFFF02942FE7236893
:1000F0002046DB68984712AF14220021ADF81C009F
:100100001DA801F0AAFC4FF0010A00233B806AF30E
:100110004203BB7023682046DB689847BDF81C107B
:10012000BB78EA6880B2401A18BF012060F3000370
:10013000BB703B782AB16AF30303022262F3071310
:1001400003E06AF303036AF307133B700AAB1E97DD
:100150001D932368ADF87C10DB6820469847002784
:100160000DF11C0AADF8800005AA1DA9384621979B
:10017000FEF78EFFBAF80030002B3FF4E8AE0DF129
:10018000B00BBAF800309F42BFF6DAAE23683946AA
:100190001B69204698470BF807000137F1E71C233D
:1001A000002205F14001E868FEF733FA91E700BF4D
:1001B0002DE9F04F87B004460D46002601274FF089
:1001C00014090DF1060894F861309E4252DA09FBD9
:1001D00006F3626E02EB030AD358AB4248D1A36B1D
:1001E0009D4204D1236829465B6A204698472B68C4
:1001F00028461B6998472B68ADF80600DB68BAF8FB
:1002000008B0284698474246034600215846FFF763
:1002100010FC1022002102A801F01FFCBAF80830DF
:10022000ADF808309AF81030CDF8108073B194F81A
:10023000603053B1013B84F8603002A90123A08FE4
:100240008DF80A30FEF728FF00E01F469AF81130BB
:1002500073B194F8603053B1013B84F8603002A967
:100260000223A08F8DF80A30FEF716FF00E01F462C
:100270000136A8E7384607B0BDE8F08F10B5044650
:10028000FEF7B8FA104B236000214FF6FF7304F11C
:10029000400084F8331084F83410A163A38784F8F5
:1002A000601084F86110616684F86810E16684F873
:1002B000701084F87110616784F87810E0651C2272
:1002C00001F0CBFB204610BD304F02000649074A23
:1002D000074B9B1A03DD043BC858D050FBDC00F0F1
:1002E000D5F8FCF7DFF800008853020080200020DA
:1002F00064220020FEE7FEE7FEE7FEE7FEE7FEE7FA
:10030000FEE7FEE7FEE7FEE7094B1968094B30B54B
:10031000D3F804050A060B0A02434FF47A71A2FBD4
:10032000014501FB0355E00B40EA454030BD00BFED
:100330008829002000100140084B1968084B30B58F
:10034000D3F804050A060B0A06490243A2FB01453D
:1003500001FB0355E00B40EA454030BD88290020F1
:100360000010014040420F0038B5044648B1FFF785
:10037000CBFF054600F01AF8FFF7C6FF401B84428A
:10038000F8D838BD074B0022C3F8042182B0D3F857
:100390000431054A0193019B13680133DBB21360FA
:1003A00002B070470010014088290020704700000B
:1003B0001F281BD80E4B53F82030032916D8DFE82E
:1003C00001F0020E060A03F5E07300210AE003F5CE
:1003D000E0730C2106E003F5E073042102E003F56D
:1003E000E07303214FF0A04242F82310704700BF92
:1003F000A04F02001F280CD8064B53F82000012301
:100400004FF0A042834011B9C2F80C357047C2F8D2
:1004100008357047A04F02000C4B1B78062B10D1FB
:100420000B4B1B681A070CD10A4B186800F0F0033D
:10043000302B08D000F0E000A0F1400358425841B2
:100440007047002070470120704700BFE00F00F0A8
:10045000E40F00F0E80F00F0094B1B78062B0CD1DD
:10046000084B1B681A0708D1074B186800F0F0000A
:10047000A0F130035842584170470020704700BF38
:10048000E00F00F0E40F00F0E80F00F008B5FFF710
:10049000E3FF10B14B4B4C4A1A60FFF7BDFF28B188
:1004A0004A4B4B4A1B68C3F342331360FFF7D4FF38
:1004B00020B1484AD36823F08073D360FFF7ACFFC4
:1004C00040B14FF080430022C3F80C21C3F8102143
:1004D000C3F83825FFF7C0FF10B13F4B03221A6065
:1004E000FFF7BAFF40B13D4B05221A6001229A671F
:1004F00000229A603F225A60394B1B78062B09D1A3
:10050000384B1B681B0705D1374B1B6803F0F00302
:10051000502B0ED0354AD2F8883043F47003C2F81D
:100520008830BFF34F8FBFF36F8F314B314A1A6062
:1005300008BD4FF08052304BD2F80414C3F8201598
:10054000D2F80814C3F82415D2F80C14C3F82815EF
:10055000D2F81014C3F82C15D2F81414C3F83015BF
:10056000D2F81814C3F83415D2F81C14C3F8401587
:10057000D2F82014C3F84415D2F82414C3F848154F
:10058000D2F82814C3F84C15D2F82C14C3F850151F
:10059000D2F83014C3F85415D2F83414C3F86015E7
:1005A000D2F83814C3F86415D2F83C14C3F86815AF
:1005B000D2F84014C3F86C15D2F84424C3F870255F
:1005C000A8E700BF74C007400DF0ADBA44020010A8
:1005D0003C050040F0ED00E0A00500401056004052
:1005E000E00F00F0E40F00F0E80F00F000ED00E095
:1005F000A82100200090D00300C000402DE9F04168
:1006000006460D4601EB02080C464445A4EB0507DF
:1006100007D0336814F8011B1B6830469847002840
:10062000F3D13846BDE8F08170B505460C46084662
:1006300049B102F0A3F82B680246214628465B68C0
:10064000BDE87040184770BD08B5FFF7EDFF08BD65
:1006500003688A685B680968184708B5FFF7E4FF14
:1006600008BD03681B68184708B50249FFF7DCFF9F
:1006700008BD00BF2050020038B50546FFF7E8FF6F
:1006800004462846FFF7F0FF204438BD38B505463C
:10069000FFF7CAFF04462846FFF7E6FF204438BDAF
:1006A000F0B58BB000238DF82430012A98BF0A22C0
:1006B0000DF12305B1FBF2F402FB1416F3B2092E7F
:1006C00094BF30333733DBB22F46214605F801396A
:1006D000002CEFD13946FFF7A7FF0BB0F0BD10B4E7
:1006E0002AB903685DF8044B1B68C9B21847D2B237
:1006F0005DF8044BFFF7D4BFFFF7F1BF2DE9F041E0
:1007000007460E4615462AB90368C9B21B68BDE8FC
:10071000F04118470A2A02D1002901DA04E0D2B2D6
:10072000BDE8F041FFF7BCBF2D21FFF79AFF2A4635
:10073000044671423846FFF7B3FF2044BDE8F0811C
:1007400038B50546FFF7DAFF04462846FFF78CFF69
:10075000204438BD2DE9F843804657EC106B0D4618
:1007600000F086FB08B9424910E047EC106B00F03E
:100770007FFB012801D13F4908E04FF060423E4B2A
:100780003046394600F0EAFF28B13C494046FFF7C1
:100790004BFFBDE8F8834FF06042394B3046394695
:1007A00000F0BEFF0028F0D1002200233046394679
:1007B00000F0B6FF40B12D214046FFF752FF07F190
:1007C000004304461F4600E004462E494FF000094E
:1007D00000205FFA89F39D4206D900222A4B00F0DF
:1007E00057FE09F10109F4E732463B4600F074FB7D
:1007F0000F46064600F0E4FF0A22014681464046C5
:10080000FFF74EFF04447DB3484600F0A1FC0246CA
:100810000B463046394600F05DFB06460F46404623
:100820001A49FFF701FF0444174B002230463946AE
:1008300000F004FD0F46064600F09AFF0A2201462A
:1008400081464046FFF75AFF0444484600F090FCBA
:1008500002460B463046394600F03CFB013D15F0A0
:10086000FF0506460F46DFD12046BDE8F88300BFEE
:100870002350020027500200FFFFEF412B500200DF
:10088000FFFFEFC10000E03F00002440934C020056
:10089000C9B2FFF75FBF38B5C9B20546FFF75AFFC7
:1008A00004462846FFF7E0FE204438BD012070478B
:1008B00003681322DB69184770470369C3F81C15E6
:1008C000D3F81C21002AFBD00022C3F81C210120F0
:1008D0007047000090F85C305AB2520910B4012100
:1008E00020320F4C03F01F0301FA03F344F82230C7
:1008F00003695DF8044B0422C3F808230022596001
:10090000D960C3F800254FF0FF32C3F80C2514302E
:10091000C3F81425C3F80825C3F8102500F088BAD9
:1009200000E100E0143000F095BA143000F098BAFD
:10093000143000F081BA0000026990F85E3030B5E2
:10094000C2F80C3590F85D30C2F8143590F861307B
:10095000012B01BF90F85F40C2F8104590F860404D
:10096000C2F8084518BF0023B1F5966FC2F86C3580
:100970002ED9B1F5166F2ED9B1F5965F2ED9B1F5F6
:10098000165F2DD9B1F5615F2CD9B1F5964F2BD9F2
:10099000B1F5E14F2AD9B1F5164F29D9B1F5614F1B
:1009A00029D9B1F5963F29D9B1F5E13F28D9B1F55B
:1009B000613F28D9344B994228D9B1F5E12F28D984
:1009C000B1F5612F8CBF4FF080534FF0706322E080
:1009D0004FF49E231FE04FF41D231CE02B4B1AE025
:1009E0002B4B18E02B4B16E02B4B14E02B4B12E05B
:1009F0004FF41D030FE04FF46B030CE0284B0AE0AB
:100A00004FF0EB7307E04FF06C7304E04FF080633E
:100A100001E04FF0E863C2F8243500210423C2F856
:100A20000035C2F80811C2F81C1101211160916053
:100A3000C2F8043390F85C2053B2D2B202F01F0522
:100A40005C09A9406034174D002B45F8241006DAE4
:100A5000154B02F00F02134460221A7606E003F1F0
:100A6000604303F56143602283F8002390F85C3013
:100A700001215AB203F01F0301FA03F35209094995
:100A800041F8223030BD00BF90D0030000B0130009
:100A90000050270000F03A0000A04E0000C0750092
:100AA00000903A0100E100E0FCEC00E02DE9F041AB
:100AB0001E464FF47A73002583600E4B4560044652
:100AC00040F8143B1746884600F09CF90A4AC4F8DF
:100AD000108052F8263084F85D309DF8183084F884
:100AE0005C7052F8233084F85E3084F86150204600
:100AF000BDE8F08138500200A04F02000369D3F82E
:100B0000082110B504464AB1D3F818151430C9B2FB
:100B100000F083F923690022C3F8082110BD00000A
:100B20000148FFF7EBBF00BF8C29002007B51A234F
:100B300000930222192303490348FFF7B7FF03B0CC
:100B40005DF804FB002000408C29002010B504460D
:100B5000006800F045FF204610BD10B5044600684F
:100B600008B100F03DFF00232360A360636010BD67
:100B700038B504460D460068013101F0B1FD10B1F1
:100B800084E82100012038BD036810B5044613B184
:100B900043688B4207D22046FFF7EAFF20B1A368E3
:100BA0000BB922681370012010BD70B50E461146B6
:100BB00004461546FFF7E8FF18B92046FFF7CDFFBA
:100BC00004E0A5603146206801F0D0FD204670BDEC
:100BD00038B5002304460360436083600D4639B195
:100BE000084601F0CBFD294602462046FFF7DDFF0F
:100BF000204638BD38B5054600680C4660B16A68C5
:100C00008B689A4206D3096801F0B0FDA368AB6017
:100C100000230AE000F0E4FE23682B6063686B6049
:100C2000A368AB60002323606360A36038BD884283
:100C300010B50B46044607D0096819B19A68FFF74A
:100C4000B4FF01E0FFF789FF204610BD10B5002377
:100C50000446036043608360FFF7E9FF204610BD50
:100C6000884210B5044601D0FFF7C4FF204610BDEE
:100C700038B505460C4641B1084601F07FFD2146D6
:100C800002462846FFF791FF01E0FFF766FF28467E
:100C900038BD10B5044600238AB023606360A360AA
:100CA000084601A900F091FE01A92046FFF7E0FFE8
:100CB00020460AB010BD1FB50446002323606360C0
:100CC000A360084601A901F0C9FE01A92046FFF76B
:100CD000CFFF204604B010BD70B504460E4609B9DA
:100CE000002070BD6AB18368D5182946FFF74CFF14
:100CF0000028F5D02068A3683146184401F036FD7D
:100D0000A560012070BD8A680968FFF7E5BF38B5A6
:100D100005460C46084641B101F030FD2146024629
:100D20002846BDE83840FFF7D7BF38BD10B58A6800
:100D300009680446FFF7D0FF10B92046FFF70DFF02
:100D4000204610BD38B504460D4641B1084601F0B5
:100D500015FD294602462046FFF7BEFF10B9204682
:100D6000FFF7FBFE204638BD70B50E469AB191B133
:100D700085689D4202D800230B7070BD541EED1A89
:100D80000168AC4228BF2C4619442246304601F087
:100D9000FDFC0023335570BD7047000008B500F01E
:100DA00013F8FFF7F9FF0120FFF7DEFAFDF756FA17
:100DB000034CFCF7F9FE002CFBD0AFF30080F8E702
:100DC0000000000000F00CBE0D4BE02283F8112360
:100DD0004FF40032C3F880211A604FF080430122A3
:100DE000C3F818259A6003F588330021C3F8081565
:100DF0000221C3F80413C3F844131A60704700BFFC
:100E000000E100E010B540220446002100F025FE7C
:100E1000002323646364204610BD026C10B5531C8C
:100E2000446C03F03F039C421CBF8154036410BD1B
:100E30000023036443647047436C026C93421FBFFA
:100E4000C25C013303F03F03436414BF10464FF00C
:100E5000FF307047036C406C181A48BF4030704731
:100E6000436C026C934214BFC05C4FF0FF3070477C
:100E700053EC102B33F0004110B408D01148A3F507
:100E80008014844208D804205DF8044B70471AB9D6
:100E900002205DF8044B704703F1FF43094803F556
:100EA000E0038342EFD9B1F5801F01D20320EBE7C5
:100EB000054B994201D00020E6E7B2FA82F04009E2
:100EC000E2E700BFFFFFDF7F0000F07F81F000411D
:100ED00002E000BF83F0004330B54FEA41044FEA1F
:100EE000430594EA050F08BF90EA020F1FBF54EABA
:100EF000000C55EA020C7FEA645C7FEA655C00F056
:100F0000E2804FEA5454D4EB5555B8BF6D420CDD26
:100F10002C4480EA020281EA030382EA000083EAA9
:100F2000010180EA020281EA0303362D88BF30BD49
:100F300011F0004F4FEA01314FF4801C4CEA11319F
:100F400002D0404261EB410113F0004F4FEA0333FE
:100F50004CEA133302D0524263EB430394EA050F89
:100F600000F0A780A4F10104D5F1200E0DDB02FAF8
:100F70000EFC22FA05F2801841F1000103FA0EF28C
:100F8000801843FA05F359410EE0A5F120050EF152
:100F9000200E012A03FA0EFC28BF4CF0020C43FA83
:100FA00005F3C01851EBE37101F0004507D54FF090
:100FB000000EDCF1000C7EEB00006EEB0101B1F5E0
:100FC000801F1BD3B1F5001F0CD349085FEA300026
:100FD0004FEA3C0C04F101044FEA445212F5800F31
:100FE00080F09A80BCF1004F08BF5FEA500C50F1CE
:100FF000000041EB045141EA050130BD5FEA4C0CB1
:10100000404141EB010111F4801FA4F10104E9D139
:1010100091F0000F04BF01460020B1FA81F308BF30
:101020002033A3F10B03B3F120020CDA0C3208DDFC
:1010300002F1140CC2F10C0201FA0CF021FA02F1D7
:101040000CE002F11402D8BFC2F1200C01FA02F147
:1010500020FA0CFCDCBF41EA0C019040E41AA2BF6C
:1010600001EB0451294330BD6FEA04041F3C1CDA34
:101070000C340EDC04F11404C4F1200220FA04F054
:1010800001FA02F340EA030021FA04F345EA0301FE
:1010900030BDC4F10C04C4F1200220FA02F001FAC0
:1010A00004F340EA0300294630BD21FA04F0294642
:1010B00030BD94F0000F83F4801306BF81F48011DB
:1010C0000134013D4EE77FEA645C18BF7FEA655C4E
:1010D00029D094EA050F08BF90EA020F05D054EA20
:1010E000000C04BF1946104630BD91EA030F1EBF25
:1010F0000021002030BD5FEA545C05D14000494129
:1011000028BF41F0004130BD14F580043CBF01F51B
:10111000801130BD01F0004545F0FE4141F4700101
:101120004FF0000030BD7FEA645C1ABF19461046DC
:101130007FEA655C1CBF0B46024650EA013406BFDD
:1011400052EA033591EA030F41F4002130BD00BF9C
:1011500090F0000F04BF0021704730B54FF4806459
:1011600004F132044FF000054FF0000150E700BFDA
:1011700090F0000F04BF0021704730B54FF4806439
:1011800004F1320410F0004548BF40424FF0000126
:101190003EE700BF42004FEAE2014FEA31014FEA69
:1011A00002701FBF12F07F4393F07F4F81F06051B8
:1011B000704792F0000F14BF93F07F4F704730B527
:1011C0004FF4607401F0004521F0004120E700BFBA
:1011D00050EA010208BF704730B54FF000050AE041
:1011E00050EA010208BF704730B511F0004502D542
:1011F000404261EB41014FF4806404F132045FEA44
:10120000915C3FF4DCAE4FF003025FEADC0C18BFE8
:1012100003325FEADC0C18BF033202EBDC02C2F1DE
:10122000200300FA03FC20FA02F001FA03FE40EA70
:101230000E0021FA02F11444C1E600BF70B54FF070
:10124000FF0C4CF4E06C1CEA11541DBF1CEA135552
:1012500094EA0C0F95EA0C0F00F0DEF82C4481EABA
:10126000030621EA4C5123EA4C5350EA013518BFDA
:1012700052EA033541F4801143F4801338D0A0FBC7
:1012800002CE4FF00005E1FB02E506F00042E0FB74
:1012900003E54FF00006E1FB03569CF0000F18BF7A
:1012A0004EF0010EA4F1FF04B6F5007F64F5407422
:1012B00004D25FEA4E0E6D4146EB060642EAC621B5
:1012C00041EA55514FEAC52040EA5E504FEACE2E22
:1012D000B4F1FD0C88BFBCF5E06F1ED8BEF1004F25
:1012E00008BF5FEA500E50F1000041EB045170BDA1
:1012F00006F0004646EA010140EA020081EA0301E5
:10130000B4EB5C04C2BFD4EB0C0541EA045170BDE0
:1013100041F480114FF0000E013C00F3AB8014F15A
:10132000360FDEBF002001F0004170BDC4F10004A3
:10133000203C35DA0C341BDC04F11404C4F1200524
:1013400000FA05F320FA04F001FA05F240EA02007F
:1013500001F0004221F0004110EBD37021FA04F6B5
:1013600042EB06015EEA430E08BF20EAD37070BD6F
:10137000C4F10C04C4F1200500FA04F320FA05F0CE
:1013800001FA04F240EA020001F0004110EBD370D0
:1013900041F100015EEA430E08BF20EAD37070BD40
:1013A000C4F1200500FA05F24EEA020E20FA04F319
:1013B00001FA05F243EA020321FA04F001F00041C8
:1013C00021FA04F220EA020000EBD3705EEA430E39
:1013D00008BF20EAD37070BD94F0000F0FD101F068
:1013E0000046400041EB010111F4801F08BF013CA1
:1013F000F7D041EA060195F0000F18BF704703F0DF
:101400000046520043EB030313F4801F08BF013D65
:10141000F7D043EA0603704794EA0C0F0CEA135521
:1014200018BF95EA0C0F0CD050EA410618BF52EADB
:101430004306D1D181EA030101F000414FF00000E1
:1014400070BD50EA410606BF1046194652EA4306EF
:1014500019D094EA0C0F02D150EA013613D195EA63
:101460000C0F05D152EA03361CBF104619460AD1AB
:1014700081EA030101F0004141F0FE4141F47001B5
:101480004FF0000070BD41F0FE4141F4780170BDA5
:1014900070B54FF0FF0C4CF4E06C1CEA11541DBF0A
:1014A0001CEA135594EA0C0F95EA0C0F00F0A7F80C
:1014B000A4EB050481EA030E52EA03354FEA013139
:1014C00000F088804FEA03334FF0805545EA13134C
:1014D00043EA12634FEA022245EA111545EA106514
:1014E0004FEA00260EF000419D4208BF964244F1AB
:1014F000FD0404F5407402D25B084FEA3202B61ACA
:1015000065EB03055B084FEA32024FF480104FF49D
:10151000002CB6EB020E75EB030E22BFB61A754611
:1015200040EA0C005B084FEA3202B6EB020E75EBA4
:10153000030E22BFB61A754640EA5C005B084FEA0C
:101540003202B6EB020E75EB030E22BFB61A7546D9
:1015500040EA9C005B084FEA3202B6EB020E75EBE4
:10156000030E22BFB61A754640EADC0055EA060EA5
:1015700018D04FEA051545EA16754FEA06164FEAE8
:10158000C30343EA52734FEAC2025FEA1C1CC0D194
:1015900011F4801F0BD141EA00014FF000004FF021
:1015A000004CB6E711F4801F04BF01430020B4F1E2
:1015B000FD0C88BFBCF5E06F3FF6AFAEB5EB030C9A
:1015C00004BFB6EB020C5FEA500C50F1000041EB97
:1015D000045170BD0EF0004E4EEA113114EB5C0464
:1015E000C2BFD4EB0C0541EA045170BD41F4801137
:1015F0004FF0000E013C90E645EA060E8DE60CEA3F
:10160000135594EA0C0F08BF95EA0C0F3FF43BAF5B
:1016100094EA0C0F0AD150EA01347FF434AF95EA12
:101620000C0F7FF425AF104619462CE795EA0C0FF6
:1016300006D152EA03353FF4FDAE1046194622E7C3
:1016400050EA410618BF52EA43067FF4C5AE50EA9D
:1016500041047FF40DAF52EA43057FF4EBAE12E78D
:101660004FF0FF3C06E000BF4FF0010C02E000BF6E
:101670004FF0010C4DF804CD4FEA410C7FEA6C5C51
:101680004FEA430C18BF7FEA6C5C1BD001B050EAF4
:10169000410C0CBF52EA430C91EA030F02BF90EADF
:1016A000020F0020704710F1000F91EA030F58BF9E
:1016B000994208BF90422CBFD8176FEAE37040F000
:1016C000010070474FEA410C7FEA6C5C02D150EA9E
:1016D000013C07D14FEA430C7FEA6C5CD6D152EA59
:1016E000033CD3D05DF8040B704700BF844610461E
:1016F00062468C461946634600E000BF01B5FFF71D
:10170000B7FF002848BF10F1000F01BD4DF808EDEC
:10171000FFF7F4FF0CBF012000205DF808FB00BFBD
:101720004DF808EDFFF7EAFF34BF012000205DF817
:1017300008FB00BF4DF808EDFFF7E0FF94BF012064
:1017400000205DF808FB00BF4DF808EDFFF7CEFF65
:1017500094BF012000205DF808FB00BF4DF808EDA4
:10176000FFF7C4FF34BF012000205DF808FB00BF75
:101770004FEA410212F5001215D211D56FF47873B9
:10178000B3EB625212D94FEAC12343F0004343EA5C
:10179000505311F0004F23FA02F018BF4042704737
:1017A0004FF00000704750EA013005D111F00040C1
:1017B00008BF6FF0004070474FF00000704700BF57
:1017C0004A0011D212F5001211D20DD56FF47873C0
:1017D000B3EB62520ED44FEAC12343F0004343EA15
:1017E000505323FA02F070474FF00000704750EA60
:1017F000013002D14FF0FF3070474FF000007047CA
:101800004FEA4102B2F1E04324BFB3F5001CDCF122
:10181000FE5C0DD901F0004C4FEAC0024CEA50705A
:10182000B2F1004F40EB830008BF20F00100704789
:1018300011F0804F21D113F13872BCBF01F000408C
:10184000704741F480114FEA5252C2F11802C2F1BE
:10185000200C10FA0CF320FA02F018BF40F001003F
:101860004FEAC1234FEAD32303FA0CFC40EA0C00F1
:1018700023FA02F34FEA4303CCE77FEA625307D12E
:1018800050EA01331EBF4FF0FE4040F44000704765
:1018900001F0004040F0FE4040F40000704700BFFF
:1018A0000B460146184600F01FB800001FB51C4645
:1018B000094B1B680546D86812B9084B1A4600E068
:1018C000074B02928DE80A0022462B46054900F09C
:1018D0002DF801F085F900BF0C220020C44A020057
:1018E000605002006D50020010B5054C13462CB13B
:1018F0000A4601460220AFF3008010BD204610BD0D
:101900000000000008B5074B044613B10021AFF3F7
:101910000080054B1868836A03B19847204602F09F
:1019200059FF00BF00000000A05002000EB403B534
:10193000014603AB054853F8042B0068019300F0FF
:1019400059F902B05DF804EB03B070470C22002097
:1019500070B50E4B0E4CE41AA41000251E46A5428D
:1019600004D056F8253098470135F8E702F034FFE7
:10197000084C094BE41AA41000251E46A54204D0C9
:1019800056F8253098470135F8E770BD4C22002005
:101990004C2200205C2200204C220020931E222B8F
:1019A00010B50C4602D90020087010BD0A2A06D1D5
:1019B000002804DA2D230B704042012100E00021B1
:1019C000214401F00FF8204610BDFFF7E7BF0000EB
:1019D000024B0146186800F08FB800BF0C220020AF
:1019E000024B0146186800F041B800BF0C220020ED
:1019F00010B501390244904207D010F8013B11F8AC
:101A0000014FA342F7D0181B10BD002010BD10B528
:101A1000431E0A44914204D011F8014B03F8014FD0
:101A2000F8E710BD884210B501EB020301D8421E51
:101A30000BE09842FBD28118D21AD34204D013F89B
:101A4000014D01F8014DF8E710BD994204D011F89D
:101A5000014B02F8014FF8E710BD024403469342E0
:101A600002D003F8011BFAE77047000030B50029E7
:101A70003ED051F8042C0B1F1E49002AB8BF9B18FA
:101A80000A680C4612B95A600B6030BD9A420ED9F2
:101A900019685818824204BF106852685A6004BF1F
:101AA00009181960236030BD994203D80A4651686D
:101AB0000029F9D1146815199D420AD11B682344E5
:101AC000D0188142136013D10868034413604B6837
:101AD0000DE002D90C23036030BD18681C18A14228
:101AE00004BF0C684968596004BF0019186053604E
:101AF00030BD00BFF429002070B5CD1C25F00305D2
:101B000008350C2D38BF0C25002D064603DA0C23B2
:101B10003360002070BDA942F9D81F4B1C681A46DB
:101B20002146A1B10B685B1B0ED40B2B03D90B60B4
:101B3000CC18CD501EE08C420DBF63684B686360CB
:101B4000136018BF0C4615E00C464968E9E7134CD2
:101B500023681BB9304600F0CBFD20602946304693
:101B600000F0C6FD431CD2D0C41C24F00304A042E4
:101B70000AD1256004F10B00231D20F00700C31AD1
:101B800009D05A42E25070BD211A304600F0B0FD33
:101B90000130EED1BBE770BDF4290020F029002010
:101BA0009368013B002B10B4936009DA9469A34257
:101BB00002DBCBB20A2B03D15DF8044B00F050BF1F
:101BC0001368581C10601970C8B25DF8044B704758
:101BD000F8B506460F461446D518AC4208D03A462A
:101BE00014F8011B3046FFF7DBFF431CF5D100E082
:101BF0000020F8BD2DE9F04F9DB00C461746039329
:101C0000064618B183690BB901F014FF7F4B9C4263
:101C100001D1746808E07E4B9C4201D1B46803E0B6
:101C20007C4B9C4208BFF468A38918070CD5236934
:101C300053B10023099320238DF8293030238DF8E8
:101C40002A30DFF8D4B144E02146304600F05CFF92
:101C50000028EED04FF0FF30D5E0039A111D126836
:101C60000391002A80F28C80524243F002000792D6
:101C7000049098F800302E2B00F08480032298F80E
:101C80000010654801F0B4FF48B14023CBEB0000E1
:101C900003FA00F0049B1843049008F1010898F837
:101CA00000105E488DF82810062208F1010701F0A7
:101CB0009FFF002800F09580594B002B40F0888052
:101CC000039B073323F0070308330393099B534413
:101CD0000993B846454615F8013B1BB9B8EB07090F
:101CE0000FD003E0252BF9D0A846F3E74B463A4640
:101CF00021463046FFF76CFF01307FD0099B4B44F3
:101D0000099398F80030002B78D000234FF0FF3271
:101D100004930793059206938DF853301A93012785
:101D2000052229783F4801F063FF05F10108049B73
:101D300038B13C4A801A07FA00F01843049045462F
:101D4000EEE7D90644BF20228DF853201A0744BF7E
:101D50002B228DF853202A782A2A3FF47EAF079A47
:101D600000210A20A846013598F80030303B092BA5
:101D700003D800FB02320121F4E700293FF479AFD8
:101D8000079276E798F801302A2B0BD1039B1A1D96
:101D90001B680392002BB8BF4FF0FF3308F1020815
:101DA00005936BE70023059308F1010019460A2506
