:020000021000EC
:10C0000000000120390A0200610A0200630A0200EE
:10C01000650A0200670A0200690A020000000000C7
:10C020000000000000000000000000006B0A020099
:10C030006D0A0200000000006F0A0200710A02008F
:10C04000730A0200730A020085120200730A0200DA
:10C05000730A0200730A0200730A0200730A0200E4
:10C06000730A0200730A0200730A0200730A0200D4
:10C07000730A0200730A0200730A0200730A0200C4
:10C08000730A0200F10A0200730A0200730A020036
:10C09000730A0200730A0200730A0200730A0200A4
:10C0A000730A0200730A0200730A0200730A020094
:10C0B000730A0200730A0200000000000000000082
:10C0C000730A0200730A0200730A0200730A020074
:10C0D000730A0200730A0200730A020000000000E3
:10C0E0000000000000000000000000000000000050
:10C0F0000000000000000000000000000000000040
:10C10000000000000000000000000000000000002F
:10C11000000000000000000000000000000000001F
:10C40000044B05481B1A062B02D9044B03B11847ED
:10C41000704700BFBB210020B821002000000000B1
:10C4200005490648091A891001EBD171491002D05B
:10C43000034B03B118477047B8210020B8210020F2
:10C440000000000010B5064C237843B9FFF7D8FF71
:10C45000044B13B10448AFF300800123237010BDD7
:10C46000B821002000000000ACAF020008B5084B66
:10C470001BB108490848AFF300800848036813B9A6
:10C48000BDE80840CCE7064B002BF9D09847F7E70A
:10C4900000000000BC210020ACAF0200B42100204D
:10C4A00000000000154B002B08BF134B9D46A3F561
:10C4B000803A00218B460F461348144A121A05F0A1
:10C4C00056FE0F4B002B00D098470E4B002B00D090
:10C4D00098470020002104000D000D48002802D0DC
:10C4E0000C48AFF3008005F0BDFD2000290005F0E9
:10C4F00007F805F091FD00BF0000080000000120D2
:10C500000000000000000000B8210020B448002016
:10C5100000000000000000000B4B012210B51A7053
:10C520000A4B1B78044653B109490A4804F042FCFF
:10C53000204601F0FDFE0146064804F05DFC0520A2
:10C54000BDE8104004F0C6BA10220020D821002017
:10C55000304F0200404800200B4B002210B51A70EB
:10C560000A4B1B78044653B109490A4804F022FCDF
:10C57000204601F0DDFE0146064804F03DFC0520A2
:10C58000BDE8104004F0A6BA10220020D8210020F7
:10C590004B4F0200404800202DE9F041294B1A780A
:10C5A00086B00C461F461AB12749284804F002FC01
:10C5B00023682046DB689847236806461B692046A7
:10C5C000984723498046684604F0B4FE3546AB1BC5
:10C5D000DBB298454FF010020CD915F8011B03A8E7
:10C5E00004F01BFF03A9684604F03FFF03A804F012
:10C5F0005FFEECE70021009806F0ECFC154B3A7862
:10C6000018601D461AB11449104804F0DCFB0A22D8
:10C6100029680E4804F04AFC23682046DB689847E6
:10C62000236805461B69204698470146284602F0C4
:10C6300021FB052004F04EFA684604F039FE06B0EE
:10C64000BDE8F081D8210020694F02004048002059
:10C650006450020090200020964F020010B5034B5A
:10C660000360044601F0A8FE204610BD38520200C7
:10C6700010B50446FFF7F2FF204604F055FF2046B0
:10C6800010BD000010B5034B03600446FFF7E6FF42
:10C69000204610BD084F020010B50446FFF7F2FF18
:10C6A000204604F041FF204610BD000013B52D497F
:10C6B0002D4802F014F82B492B4802F0A0F92B4822
:10C6C00001F0EFFD0146284802F006F84FF6FF7131
:10C6D000254802F097F92549234802F056F92449E4
:10C6E000214802F052F923491F4802F04EF922492D
:10C6F0001D4802F04AF9214A1B48002102F019F8AE
:10C700001F4A1948012102F014F81E4A1E48002150
:10C7100001F0B1FE1B4A1D48002101F0ACFE02A948
:10C72000002401F8014D0122174801F05AFE02A928
:10C73000012201F8024D154801F053FE144B49F651
:10C7400040421A6004F0AEF9124B1860064802F03D
:10C7500014F8114B1B781BB11049114804F04CFB25
:10C7600002B010BDF94F020058260020002800201A
:10C77000F02100202C220020DC27002019C5010018
:10C7800059C5010099C50100EC2100202822002094
:10C7900014220020D4270020D821002003500200BA
:10C7A0004048002030B5A5B004460D460222084995
:10C7B00004A806F037FB2A4604A9684606F032FBB7
:10C7C0006946204604F0B6FD204625B030BD00BFC6
:10C7D0001D50020030B505468BB00C460F200021DD
:10C7E00004F0BEF90520013800BF00BF00BF00BF44
:10C7F00000BF00BF00BF00BF00BF00BF00BF00BF41
:10C8000000BF00BF00BF00BF00BF00BF00BF00BF30
:10C8100000BF00BF00BF00BF00BF00BF00BF00BF20
:10C8200000BF00BF00BF00BF00BF00BF00BF00BF10
:10C8300000BF00BF00BF00BF00BF00BF00BF00BF00
:10C8400000BF00BF00BF00BF00BF00BF00BF00BFF0
:10C8500000BF00BF00BF00BF00BF00BFC3D145F095
:10C860004001C9B27E4801F0F0FC0520013800BF4C
:10C8700000BF00BF00BF00BF00BF00BF00BF00BFC0
:10C8800000BF00BF00BF00BF00BF00BF00BF00BFB0
:10C8900000BF00BF00BF00BF00BF00BF00BF00BFA0
:10C8A00000BF00BF00BF00BF00BF00BF00BF00BF90
:10C8B00000BF00BF00BF00BF00BF00BF00BF00BF80
:10C8C00000BF00BF00BF00BF00BF00BF00BF00BF70
:10C8D00000BF00BF00BF00BF00BF00BF00BF00BF60
:10C8E00000BFC3D100215E4801F0AFFC0520013834
:10C8F00000BF00BF00BF00BF00BF00BF00BF00BF40
:10C9000000BF00BF00BF00BF00BF00BF00BF00BF2F
:10C9100000BF00BF00BF00BF00BF00BF00BF00BF1F
:10C9200000BF00BF00BF00BF00BF00BF00BF00BF0F
:10C9300000BF00BF00BF00BF00BF00BF00BF00BFFF
:10C9400000BF00BF00BF00BF00BF00BF00BF00BFEF
:10C9500000BF00BF00BF00BF00BF00BF00BF00BFDF
:10C9600000BF00BFC3D13E48E1B201F06EFC0A2017
:10C97000013800BF00BF00BF00BF00BF00BF00BF45
:10C9800000BF00BF00BF00BF00BF00BF00BF00BFAF
:10C9900000BF00BF00BF00BF00BF00BF00BF00BF9F
:10C9A00000BF00BF00BF00BF00BF00BF00BF00BF8F
:10C9B00000BF00BF00BF00BF00BF00BF00BF00BF7F
:10C9C00000BF00BF00BF00BF00BF00BF00BF00BF6F
:10C9D00000BF00BF00BF00BF00BF00BF00BF00BF5F
:10C9E00000BF00BF00BFC3D101210F2004F0B8F881
:10C9F0001C4B1B78002B30D01B491C4804F0F2F96B
:10CA00001B4904A804F096FC294601A8FFF7CAFEBA
:10CA100001A904A804F03CFD164904F045FD214697
:10CA2000054607A8FFF7BEFE07A9284604F030FD1B
:10CA3000104904F039FD01460C4804F0BFF907A87D
:10CA400004F036FC01A804F033FC04A804F030FC28
:10CA500002222146054804F029FA0BB030BD00BF80
:10CA600014280020882000201822002040480020A0
:10CA7000265002006350020030B5002187B0054601
:10CA80000F2004F06DF845F02001C9B27E4801F096
:10CA9000DCFB0520013800BF00BF00BF00BF00BFA6
:10CAA00000BF00BF00BF00BF00BF00BF00BF00BF8E
:10CAB00000BF00BF00BF00BF00BF00BF00BF00BF7E
:10CAC00000BF00BF00BF00BF00BF00BF00BF00BF6E
:10CAD00000BF00BF00BF00BF00BF00BF00BF00BF5E
:10CAE00000BF00BF00BF00BF00BF00BF00BF00BF4E
:10CAF00000BF00BF00BF00BF00BF00BF00BF00BF3E
:10CB000000BF00BF00BF00BF00BFC3D100215E480F
:10CB100001F09BFB0520013800BF00BF00BF00BF34
:10CB200000BF00BF00BF00BF00BF00BF00BF00BF0D
:10CB300000BF00BF00BF00BF00BF00BF00BF00BFFD
:10CB400000BF00BF00BF00BF00BF00BF00BF00BFED
:10CB500000BF00BF00BF00BF00BF00BF00BF00BFDD
:10CB600000BF00BF00BF00BF00BF00BF00BF00BFCD
:10CB700000BF00BF00BF00BF00BF00BF00BF00BFBD
:10CB800000BF00BF00BF00BF00BF00BFC3D1002176
:10CB90003D4801F05AFB04460120013800BF00BFA8
:10CBA00000BF00BF00BF00BF00BF00BF00BF00BF8D
:10CBB00000BF00BF00BF00BF00BF00BF00BF00BF7D
:10CBC00000BF00BF00BF00BF00BF00BF00BF00BF6D
:10CBD00000BF00BF00BF00BF00BF00BF00BF00BF5D
:10CBE00000BF00BF00BF00BF00BF00BF00BF00BF4D
:10CBF00000BF00BF00BF00BF00BF00BF00BF00BF3D
:10CC000000BF00BF00BF00BF00BF00BF00BF00BF2C
:10CC1000C3D101210F2003F0A3FF1C4B1B787BB372
:10CC20001B491C4804F0DEF81B4903A804F082FBF2
:10CC300029466846FFF7B6FD694603A804F028FCBC
:10CC40000146144804F0CEF8684604F031FB03A80E
:10CC500004F02EFB114903A804F06CFB2146684642
:10CC6000FFF7A0FD694603A804F012FC014609483D
:10CC700004F0B8F8684604F01BFB03A804F018FBA6
:10CC8000204607B030BD00BF1428002088200020B7
:10CC90001822002040480020265002002D5002009B
:10CCA00010B5002104460F2003F05AFF052001387B
:10CCB00000BF00BF00BF00BF00BF00BF00BF00BF7C
:10CCC00000BF00BF00BF00BF00BF00BF00BF00BF6C
:10CCD00000BF00BF00BF00BF00BF00BF00BF00BF5C
:10CCE00000BF00BF00BF00BF00BF00BF00BF00BF4C
:10CCF00000BF00BF00BF00BF00BF00BF00BF00BF3C
:10CD000000BF00BF00BF00BF00BF00BF00BF00BF2B
:10CD100000BF00BF00BF00BF00BF00BF00BF00BF1B
:10CD200000BF00BFC3D12348214601F08EFA0A207C
:10CD3000013800BF00BF00BF00BF00BF00BF00BF81
:10CD400000BF00BF00BF00BF00BF00BF00BF00BFEB
:10CD500000BF00BF00BF00BF00BF00BF00BF00BFDB
:10CD600000BF00BF00BF00BF00BF00BF00BF00BFCB
:10CD700000BF00BF00BF00BF00BF00BF00BF00BFBB
:10CD800000BF00BF00BF00BF00BF00BF00BF00BFAB
:10CD900000BF00BF00BF00BF00BF00BF00BF00BF9B
:10CDA00000BF00BF00BFC3D101210F2003F0D8FE98
:10CDB00010BD00BF1428002008B50121112003F088
:10CDC000ADFE0021102003F0A9FE0121172003F081
:10CDD000A5FE01210D2003F0A1FE01210F2003F08B
:10CDE0009DFE0121162003F099FE0121142003F07D
:10CDF00095FE0021092003F091FE01210F2003F090
:10CE0000AFFE1420002103F0ABFE0120BDE8084076
:10CE100003F060BE10B50A4C204601F0B3F920467D
:10CE2000002101F0DCF92046102101F0EBF9204649
:10CE3000012101F0BDF90120BDE8104003F04ABE18
:10CE4000142800202DE9F04701218CB0162003F0B2
:10CE500087FE4FF47A7003F03DFE0021162003F0A8
:10CE60007FFE4FF47A7003F035FE0121162003F0A7
:10CE700077FE642003F02EFE00210F2003F070FEE9
:10CE80004FF47A7003F026FE01210F2003F068FEB4
:10CE90004FF4FA7003F01EFE1120FFF701FF0A2085
:10CEA00003F018FE2020FFF7E7FDA849044609A873
:10CEB00004F040FA0A22214606A804F09CFA06A9CA
:10CEC00009A804F0E5FAA249A24C04F0EDFA0146E3
:10CED000A14803F073FF06A804F0EAF909A804F0DA
:10CEE000E7F900210B20FFF775FC23783BB19B4944
:10CEF000994803F077FF9A49974803F07DFF022194
:10CF00000120FFF767FCA0210220FFF763FC4FF42C
:10CF10007A7003F0DFFD2378002B5BD08F498E48B9
:10CF200003F060FF8F498C4803F066FF0120FFF794
:10CF3000A3FD8D49054606A804F0FCF90A222946FE
:10CF400003A804F058FA03A906A804F0A1FA874937
:10CF500004F0AAFA2946064609A8FFF723FC09A906
:10CF6000304604F095FA01467B4803F03BFF09A8E0
:10CF700004F09EF903A804F09BF906A804F098F9C0
:10CF80000220FFF779FD7A49054606A804F0D2F998
:10CF90000A22294603A804F02EFA03A906A804F0E1
:10CFA00077FA724904F080FA2946064609A8FFF785
:10CFB000F9FB09A9304604F06BFA0146664803F014
:10CFC00011FF09A804F074F903A804F071F906A888
:10CFD00004F06EF923783BB160495F4803F002FF2B
:10CFE00064495D4803F008FF634F01253B68DFF8A3
:10CFF00088819D420ADCEE1C60213046FFF7EAFB87
:10D0000000213046FFF7E6FB0135EFE70121142050
:10D0100003F0A6FD962003F05DFD23783BB14F4958
:10D020004D4803F0DFFE55494B4803F0E5FE544DF3
:10D03000DFF8549100232B600126D8F800309E427F
:10D0400000F3A4800120013800BF00BF00BF00BF73
:10D0500000BF00BF00BF00BF00BF00BF00BF00BFD8
:10D0600000BF00BF00BF00BF00BF00BF00BF00BFC8
:10D0700000BF00BF00BF00BF00BF00BF00BF00BFB8
:10D0800000BF00BF00BF00BF00BF00BF00BF00BFA8
:10D0900000BF00BF00BF00BF00BF00BF00BF00BF98
:10D0A00000BF00BF00BF00BF00BF00BF00BF00BF88
:10D0B00000BF00BF00BF00BF00BF00BFC3D1F01C56
:10D0C000FFF7DAFC00F00703012B14BF0123002354
:10D0D00006F809301EBF2B6801332B602378074602
:10D0E00093B30A223146684604F085F9694603A8DD
:10D0F00004F05EF9234903A804F0D6F90A22824617
:10D10000394606A804F077F906A9504604F0C0F99C
:10D11000164904F0C9F93946824609A8FFF742FBCF
:10D1200009A9504604F0B4F901460B4803F05AFE31
:10D1300009A804F0BDF806A804F0BAF803A804F0A2
:10D14000B7F8684604F0B4F8013676E738500200C4
:10D15000EA500200882000204048002018220020C9
:10D160003E5002004A500200585002006250020035
:10D17000655002006F5002008C2000207C5002009D
:10D18000842000205F5002004D2200202378CBB184
:10D190000E4909A804F0CEF80A22296806A804F06E
:10D1A0002AF906A909A804F073F9094904F07CF9E1
:10D1B0000146084803F016FE06A804F079F809A80D
:10D1C00004F076F80CB0BDE8F08700BF975002007D
:10D1D000A1500200404800202DE9F8437C4B1B6819
:10D1E00003EB4303083323F0070300AF0021ADEB4B
:10D1F000030D0F2003F0B4FC0120013800BF00BF75
:10D2000000BF00BF00BF00BF00BF00BF00BF00BF26
:10D2100000BF00BF00BF00BF00BF00BF00BF00BF16
:10D2200000BF00BF00BF00BF00BF00BF00BF00BF06
:10D2300000BF00BF00BF00BF00BF00BF00BF00BFF6
:10D2400000BF00BF00BF00BF00BF00BF00BF00BFE6
:10D2500000BF00BF00BF00BF00BF00BF00BF00BFD6
:10D2600000BF00BF00BF00BF00BF00BF00BF00BFC6
:10D27000C3D11221574800F0E8FF0120013800BF58
:10D2800000BF00BF00BF00BF00BF00BF00BF00BFA6
:10D2900000BF00BF00BF00BF00BF00BF00BF00BF96
:10D2A00000BF00BF00BF00BF00BF00BF00BF00BF86
:10D2B00000BF00BF00BF00BF00BF00BF00BF00BF76
:10D2C00000BF00BF00BF00BF00BF00BF00BF00BF66
:10D2D00000BF00BF00BF00BF00BF00BF00BF00BF56
:10D2E00000BF00BF00BF00BF00BF00BF00BF00BF46
:10D2F00000BFC3D10021374800F0A7FF00218DF8FF
:10D300000000344800F0A1FF0021324800F09DFFEA
:10D310000120013800BF00BF00BF00BF00BF00BF39
:10D3200000BF00BF00BF00BF00BF00BF00BF00BF05
:10D3300000BF00BF00BF00BF00BF00BF00BF00BFF5
:10D3400000BF00BF00BF00BF00BF00BF00BF00BFE5
:10D3500000BF00BF00BF00BF00BF00BF00BF00BFD5
:10D3600000BF00BF00BF00BF00BF00BF00BF00BFC5
:10D3700000BF00BF00BF00BF00BF00BF00BF00BFB5
:10D3800000BF00BF00BF00BFC3D1DFF85080124E06
:10D390000125D8F800309D4222DC00210D4800F024
:10D3A00054FF002181460B4800F04FFF0021044646
:10D3B000084800F04AFF44EA092440EA0420C31563
:10D3C000012B08BF40F07F4046F825000135E0E71B
:10D3D0008420002014280020DC2100208C20002044
:10D3E0000220013800BF00BF00BF00BF00BF00BF68
:10D3F00000BF00BF00BF00BF00BF00BF00BF00BF35
:10D4000000BF00BF00BF00BF00BF00BF00BF00BF24
:10D4100000BF00BF00BF00BF00BF00BF00BF00BF14
:10D4200000BF00BF00BF00BF00BF00BF00BF00BF04
:10D4300000BF00BF00BF00BF00BF00BF00BF00BFF4
:10D4400000BF00BF00BF00BF00BF00BF00BF00BFE4
:10D4500000BF00BF00BF00BFC3D101210F2003F0F8
:10D460007FFBBD46BDE8F88310B5064B03F5806130
:10D470001A4633F8024F23F8024C8B42F9D1A2F836
:10D48000FE0310BD542200204FF40071014802F049
:10D49000CBBE00BF542200202DE9F04F2DED068BAE
:10D4A000DFEDD37AD34ED44DD44CD549D54F9FED33
:10D4B000D64AD648DFEDD61A9FEDD61AC6ED007AC9
:10D4C00000228BB0C5ED007AC4ED007AC1ED007A80
:10D4D000C7ED007A9646F0EE676A9146B0EE676A4D
:10D4E0009446F0EE675A9046B0EE675A1346F7EE50
:10D4F000003AB1EE003AF0EE082AB2EE002A07EE4A
:10D50000103AB8EEC77A27EE047AB4EEE37AF1EE79
:10D5100010FA0EDDB4EEC37AF1EE10FA09D530F947
:10D52000138004EE908AF8EEE44A4FF0010835EEDD
:10D53000245AB4EEE27AF1EE10FA0EDDB4EEC27ABD
:10D54000F1EE10FA09D530F913C004EE90CAF8EEE6
:10D55000E44A4FF0010C75EEA45AF1EE0C4AB4EE19
:10D56000E47AF1EE10FA10DDF2EE0A4AB4EEE47A53
:10D57000F1EE10FA09D530F9139004EE909AF8EE16
:10D58000E44A4FF0010936EE246AF2EE084AB4EE9E
:10D59000E47AF1EE10FA10DDF3EE094AB4EEE47A23
:10D5A000F1EE10FA09D530F913E004EE90EAF8EE46
:10D5B000E44A4FF0010E76EEA46AB4EEE17AF1EEA1
:10D5C00010FA0DDDB4EEC17AF1EE10FA08D530F99B
:10D5D000132007EE102AB8EEC77A012277EE877A79
:10D5E0000133B3F5807F8AD1B8F1000F01D086ED09
:10D5F000005ABCF1000F01D0C5ED005AB9F1000F7F
:10D6000001D084ED006ABEF1000F01D0C1ED006AC7
:10D610000AB1C7ED007A7B4F91ED006A7E4B7F49DE
:10D620007F4ADFF808E27F48D6ED004A95ED005AC0
:10D63000D4ED005AD7ED006A01978046F146924634
:10D640008B469C46FCEC017A774F74EEA74AFBECC4
:10D65000017A35EE275AFAEC017A75EEA75AF9EC01
:10D66000017A36EE276AF8EC017ABC4576EEA76AB5
:10D67000E8D1F1EE087A84EEA77ADFF888C1DFF806
:10D680008081C5EE274A85EEA75AC6EE275A86EE58
:10D69000A76A86ED007A8CED006AC5ED004A84ED3C
:10D6A000005AC8ED005A4FF0040CD3F8049043F828
:10D6B000049BD1F8049041F8049BD2F8049042F8FE
:10D6C000049BDEF804904EF8049BBCF1010CD0F8EA
:10D6D000049040F8049BE8D14F4B83ED047A4F4B04
:10D6E000C3ED044A4E4B83ED045A504BC3ED045A2C
:10D6F0004C4B17EE100A83ED046A04F0CFF841ECAE
:10D70000100B02F033FE38A3D3E9002351EC100BC9
:10D7100004F08AFB08B3306804F0C0F841EC100B49
:10D7200002F024FE30A3D3E9002351EC100B04F0E7
:10D730007BFB20BB2F4B186804F0B0F841EC100BBA
:10D7400002F014FE00223A4B51EC100B04F024FAC4
:10D7500004F0DAFB0AEE100A13E0306804F09EF8D9
:10D7600041EC100B02F002FE0022314B51EC100B89
:10D7700004F05AFB0028CED1B7EE00AA01E09FEDDD
:10D780002DAA286804F08AF841EC100B02F0EEFD97
:10D7900015A3D3E9002351EC100B04F045FB00283E
:10D7A0004AD0286804F07AF841EC100B02F0DEFD54
:10D7B0000DA3D3E9002351EC100B04F035FB002836
:10D7C0004DD10D4B186804F069F841EC100B02F0D4
:10D7D000CDFD0022164B51EC100B04F0DDF904F0E6
:10D7E00093FB09EE900A3CE0FCA9F1D24D62503F58
:10D7F00000000000D4210020E82100205022002059
:10D8000054260020E42100200000963F54220020EE
:10D810000000344300005C43BC200020D0200020E6
:10D8200094200020E4200020D0200020A820002008
:10D830000000244017B7D138D54B186804F02EF8F3
:10D8400041EC100B02F092FD0022D24B51EC100B78
:10D8500004F0EAFA0028A4D1F7EE009A01E0DFED27
:10D86000CE9A206804F01AF841EC100B02F07EFD0D
:10D87000C5A3D3E9002351EC100B04F0D5FA08B38B
:10D88000206804F00BF841EC100B02F06FFDBEA312
:10D89000D3E9002351EC100B04F0C6FA28BBBF4BB0
:10D8A000186803F0FBFF41EC100B02F05FFD002253
:10D8B000B84B51EC100B04F06FF904F025FB09EEA6
:10D8C000100A14E0B54B186803F0E8FF41EC100BA8
:10D8D00002F04CFD0022AF4B51EC100B04F0A4FA07
:10D8E0000028CDD1B7EE009A01E09FEDAB9AD8F8B1
:10D8F000000003F0D3FF41EC100B02F037FDA2A3B0
:10D90000D3E9002351EC100B04F08EFA10B3D8F8D1
:10D91000000003F0C3FF41EC100B02F027FD9AA3B7
:10D92000D3E9002351EC100B04F07EFA28BB9C4B8A
:10D93000186803F0B3FF41EC100B02F017FD002252
:10D94000944B51EC100B04F027F904F0DDFA08EECB
:10D95000900A14E0924B186803F0A0FF41EC100B02
:10D9600002F004FD00228B4B51EC100B04F05CFA2A
:10D970000028CCD1F7EE008A01E0DFED878A019B19
:10D98000186803F08BFF41EC100B02F0EFFC7EA354
:10D99000D3E9002351EC100B04F046FA10B3019BBD
:10D9A000186803F07BFF41EC100B02F0DFFC76A35C
:10D9B000D3E9002351EC100B04F036FA28BB794B65
:10D9C000186803F06BFF41EC100B02F0CFFC002253
:10D9D000704B51EC100B04F0DFF804F095FA08EEF0
:10D9E000100A14E06F4B186803F058FF41EC100B5D
:10D9F00002F0BCFC0022674B51EC100B04F014FA4F
:10DA00000028CCD1B7EE008A01E09FED638A664919
:10DA100002A800F081FE02A800F07AFC002800F0C5
:10DA2000AD80142200210DEB020004F0A0FB9FED5D
:10DA30005F7A5F486AEE077A29EE876AFDEEE77A39
:10DA4000BDEEC66ACDED017ADFED5A7A9DF804206D
:10DA50008DF814206AEE276AFDEEE66ACDED016AC4
:10DA6000DFED556A9DF804308DED016A2AEE26AA95
:10DA7000991ABDEECAAA29EEA76A8DF815101AEEFA
:10DA8000101ABDEEC66ACB1A9B1A9DF804208DEDC4
:10DA9000016A29EE076A69EEA69A8DF81630BDEE86
:10DAA000C66A9DF804308DED016AFDEEE99A991A77
:10DAB00029EE276A8DF8181019EE901ABDEEC66A85
:10DAC000CB1A9B1A8DF817209DF804208DED016A62
:10DAD00028EE876A29EE269A8DF81930BDEEC66ABF
:10DAE0009DF804308DED016ABDEEC99A991A28EEB1
:10DAF000A76A8DF81B1019EE101ABDEEC66ACB1A74
:10DB00009B1A8DF81A2068EEA68A9DF804208DEDE8
:10DB1000016A8DF81C309DF804308DF81D2028EE28
:10DB2000077AFDEEE88A991A68EE277A8DF81E10BA
:10DB3000BDEEC77A18EE901AFDEEE77A8DED017A08
:10DB4000CB1A9B1A28EE268A9DF80420CDED017A87
:10DB50008DF820208DF81F309DF80430BDEEC88A66
:10DB6000991A8DF8211018EE101ACB1A9B1A14224C
:10DB70000DEB02018DF8223000F033FC0BB0BDEC50
:10DB8000068BBDE8F08F00BFFCA9F1D24D62503F7B
:10DB9000E82100200000244017B7D138502200208F
:10DBA00054260020E4210020582600200000C8420E
:10DBB000D827002000401C460024744970B59B4DB6
:10DBC0009B4E2DED048B02F06DFF2B680133B3F5F6
:10DBD000007F07EE900AC9BF01232B602B603370D2
:10DBE000B8EE679AFFF7F8FA924B586803F044FED4
:10DBF000914B002203F0D0FF04F03EF904B220461E
:10DC0000FFF732FC3378002B00F01E812B68012BCC
:10DC10006DD18A4B1B78002B40F0D980884800F0EA
:10DC200053FD2046FFF720FC2046FFF71DFC02F0C5
:10DC300039FF844BD3ED007AF0EE088A67EEA88AAC
:10DC400007EE900AF8EE677A77EEC97AF4EEE87A92
:10DC5000F1EE10FA4BD502F025FF07EE900AF8EE30
:10DC6000677A77EEC97A78EEE78AFCEEE87A17EE03
:10DC7000900A00283BD0013800BF00BF00BF00BFA2
:10DC800000BF00BF00BF00BF00BF00BF00BF00BF9C
:10DC900000BF00BF00BF00BF00BF00BF00BF00BF8C
:10DCA00000BF00BF00BF00BF00BF00BF00BF00BF7C
:10DCB00000BF00BF00BF00BF00BF00BF00BF00BF6C
:10DCC00000BF00BF00BF00BF00BF00BF00BF00BF5C
:10DCD00000BF00BF00BF00BF00BF00BF00BF00BF4C
:10DCE00000BF00BF00BF00BF00BF00BFC3D12B6893
:10DCF00023F48073402B6AD1FFF7C6FB2046FFF761
:10DD0000B3FB2046FFF7B0FB2046FFF7ADFB02F068
:10DD1000C9FE4C4BD3ED007AF1EE008A67EEA88A7B
:10DD200007EE900AF8EE677A77EEC97AF4EEE87AB1
:10DD3000F1EE10FA4BD502F0B5FE07EE900AF8EEC0
:10DD4000677A77EEC97A78EEE78AFCEEE87A17EE22
:10DD5000900A00283BD0013800BF00BF00BF00BFC1
:10DD600000BF00BF00BF00BF00BF00BF00BF00BFBB
:10DD700000BF00BF00BF00BF00BF00BF00BF00BFAB
:10DD800000BF00BF00BF00BF00BF00BF00BF00BF9B
:10DD900000BF00BF00BF00BF00BF00BF00BF00BF8B
:10DDA00000BF00BF00BF00BF00BF00BF00BF00BF7B
:10DDB00000BF00BF00BF00BF00BF00BF00BF00BF6B
:10DDC00000BF00BF00BF00BF00BF00BFC3D12B68B2
:10DDD00023F48073802B40F09380FFF75DFB204697
:10DDE000FFF742FB2046FFF73FFB02F05BFE154BBF
:10DDF000D3ED007AB0EE088A27EE888A07EE900A03
:10DE0000F8EE677A77EEC97AF4EEC87AF1EE10FA96
:10DE100076D502F047FE07EE900AF8EE677A37EE05
:10DE2000C99A38EE498AFCEEC87A29E0FC2700201E
:10DE30004C220020DC21002000005940102200204C
:10DE4000582600202422002002F02CFE07EE900A23
:10DE50002D4BF8EE677AD3ED008A77EEC97AF4EEAF
:10DE6000E87AF1EE10FA4BD502F01CFE07EE900AAC
:10DE7000B8EE678A38EE499A78EEC98AFCEEE87AFD
:10DE800017EE900A00283BD0013800BF00BF00BF4A
:10DE900000BF00BF00BF00BF00BF00BF00BF00BF8A
:10DEA00000BF00BF00BF00BF00BF00BF00BF00BF7A
:10DEB00000BF00BF00BF00BF00BF00BF00BF00BF6A
:10DEC00000BF00BF00BF00BF00BF00BF00BF00BF5A
:10DED00000BF00BF00BF00BF00BF00BF00BF00BF4A
:10DEE00000BF00BF00BF00BF00BF00BF00BF00BF3A
:10DEF00000BF00BF00BF00BF00BF00BF00BFC3D155
:10DF0000BDEC048B70BD00BF2422002070B5204DF5
:10DF1000204C2149214E284603F00CFA2246204984
:10DF20002846204D04F040F8FF231A46194628469B
:10DF300000F074FD22461C4928461C4D04F034F8BC
:10DF40001B491C4800F034FE02221B49284600F001
:10DF500037FE2846194D2246314604F025F808229E
:10DF60001749284600F02CFE2846164D2246314619
:10DF700004F01AF8122214492846142300F046FA35
:10DF8000224628461149BDE8704004F00DB800BF94
:10DF90001822002080200020B350020085C6010016
:10DFA000B11202005826002091E90100EC21002066
:10DFB000ED50020000280020F2500200282200202C
:10DFC000F7500200D8270020FC500200B9E30100FE
:10DFD00010B5234C4FF4E131204603F01CF82046E5
:10DFE00003F01DF86420013800BF00BF00BF00BF70
:10DFF00000BF00BF00BF00BF00BF00BF00BF00BF29
:10E0000000BF00BF00BF00BF00BF00BF00BF00BF18
:10E0100000BF00BF00BF00BF00BF00BF00BF00BF08
:10E0200000BF00BF00BF00BF00BF00BF00BF00BFF8
:10E0300000BF00BF00BF00BF00BF00BF00BF00BFE8
:10E0400000BF00BF00BF00BF00BF00BF00BF00BFD8
:10E0500000BF00BF00BF00BF00BF00BFC3D110BDE5
:10E060004048002010B54FF47A7002F033FDFEF7FF
:10E07000A3FEFFF7ADFF322002F02CFD124B1A7801
:10E080001C461AB11149124802F0B6FEFEF7C2FE54
:10E09000FEF7D8FE23781BB10E490D4802F0ACFE06
:10E0A0000D4CFEF703FB0D4B0D490948236002F0B0
:10E0B0008AFE206803F0F2FBBDE8104041EC100B33
:10E0C0000221034802F09ABF88200020EE4F020090
:10E0D00040480020F54F0200242200205655D0442D
:10E0E0000151020038B50025057329B90B4B0C4AC4
:10E0F0000C48232103F05EFF01600B4951F82220F8
:10E10000027151F8233083719DF8103051F823309B
:10E1100043710223C371856038BD00BF58510200AE
:10E120001B51020066510200C8AB0200037B23B9F9
:10E130004373837303610123037370471FB50DF1AC
:10E14000100E0EE90E009DF8081002680023012948
:10E15000C2F80035039B08D004D3032907D143F04C
:10E16000040304E043F0020301E043F00603C2F8B5
:10E170005435019BC2F824350123C2F8003505B09F
:10E180005DF804FB10B5FFF7D1FF03688279C3F88F
:10E1900008254279C3F80C250279C3F81025034BF2
:10E1A000BDE810400ECBFFF7C9BF00BF0828002014
:10E1B000C37911F1FF3118BF0121012B816008D013
:10E1C00004D3032B07D141F0040104E041F0020124
:10E1D00001E041F006010368C3F8541570470129B6
:10E1E000C171836808D004D3032907D143F0040325
:10E1F00004E043F0020301E043F006030268C2F8C2
:10E20000543570470A060ED43F290FD81F2910D85D
:10E210000F2911D8072912D803298CBF4FF080434A
:10E220004FF000430DE04FF000730AE04FF08063C1
:10E2300007E04FF0006304E04FF0805301E04FF03F
:10E2400000530268C2F8243570470368C3F81C15F0
:10E25000D3F80821002AFBD0D3F818050022C3F810
:10E260000821C0B27047000007B5094B09490A48A8
:10E270004FF080421A6000229A6002221A71102325
:10E28000009312221123FFF72DFF03B05DF804FB6A
:10E2900008280020003000401428002001608280FF
:10E2A0007047006870478088704729DF704728DF13
:10E2B000704703681868013018BF0120704708B51F
:10E2C0004FF080531A690368B3FBF2F31846FFF767
:10E2D000EEFF1128FAD008BD38B504460D461946A0
:10E2E000FFF7EDFF8B081A4629462068FFF7DDFF90
:10E2F0001128F8D038BD10B502680846043A441A0F
:10E30000A34204D952F8044F40F8044BF7E710BD7C
:10E3100007B500230622694604300093ADF80430A7
:10E3200003F0F0FE003018BF012003B05DF804FBDD
:10E3300010B5034C0430214600F05AFC204610BDB5
:10E34000282800200B6843608B88038170470023D6
:10E3500043600381704708B50160FFF7F8FF08BD0F
:10E36000807A7047C0687047007C70470020704713
:10E37000C368585C704770B50D4611460268044684
:10E38000D6691A46B0470123A374A36923B1214675
:10E390002846BDE87040184770BD70B50446084671
:10E3A0000D4604F075FD2368C2B229462046DB699C
:10E3B000BDE8704018470000044B10B504460360E8
:10E3C000C06808B103F096FE204610BDA4510200BB
:10E3D00010B50446FFF7F0FF204603F0A5F82046ED
:10E3E00010BD10B5837A9A42044628BF1A460274BB
:10E3F000C06803F096FE606928B1036821461B6877
:10E40000BDE810401847012010BD000070B504465B
:10E410001D461646043042F6030200F08FF8142D14
:10E420004FF0000228460A4B236028BF1420A07238
:10E43000E26022746674A274E2746261A261E261B5
:10E44000226215B103F04EFEE060204670BD00BFB1
:10E45000A4510200407C7047C07C70470346002AEC
:10E46000DA7414BF07220822084653F822200AB1A2
:10E470001946104770470B299CBF063140F82120F0
:10E480007047416170477047704770470020704780
:10E490007047704700207047002070470020704789
:10E4A0000020704700207047002070470020704710
:10E4B0000020704700207047002070470020704700
:10E4C00000207047704770477047704710B504468A
:10E4D00003F02AF8204610BD054A026064228280BB
:10E4E00001210022C28002818172C26002617047F4
:10E4F000D4510200016170470120704710B5034BF1
:10E5000003600446FFF758FF204610BD3852020052
:10E5100010B50446FFF7F2FF204603F005F8204649
:10E5200010BD000038B504461D46FFF76FFF024BD3
:10E5300025742360204638BD3852020010B50446C9
:10E54000FFF7ACFE024A137801331370204610BD6A
:10E550003A280020014B1878704700BF3A28002065
:10E56000C06803681B6A1847A0F10400FFF7F8BFF2
:10E57000C06803685B6A1847A0F10400FFF7F8BFA2
:10E58000C06803689B6A1847A0F10400FFF7F8BF52
:10E59000C0680368DB6A1847A0F10400FFF7F8BF02
:10E5A000C06803681B6B1847A0F10800FFF7F8BFAD
:10E5B000C06803685B6B1847A0F10800FFF7F8BF5D
:10E5C000C06803689B6B1847A0F10800FFF7F8BF0D
:10E5D000C06810B40468E46BA4465DF8044B60475F
:10E5E000A0F10800FFF7F4BFC06803681B6C184770
:10E5F000A0F10800FFF7F8BFC06803685B6C18471C
:10E60000A0F10800FFF7F8BFC06803689B6C1847CB
:10E61000A0F10800FFF7F8BFC0680368DB6C18477B
:10E62000A0F10800FFF7F8BFD0F8743113B100F57E
:10E63000B07018477047D0F8783113B100F5B0705A
:10E640001847704730B414461A4623685D6A9DF82F
:10E65000083000F5B071AC46204630BC60477047CA
:10E66000704770B5054600F5B07411462046FFF7B7
:10E6700069FED5F86C311BB12046BDE870401847E3
:10E6800070BDD0F8703110B500F5B0740BB12046F4
:10E6900098472046BDE81040FFF759BE10B4144615
:10E6A00000F5B0711A4620465DF8044BFFF7D6BE60
:10E6B00010B4144600F5B0711A4620469DF8043097
:10E6C0005DF8044B00F056BAC0680368DB68184771
:10E6D000C06803681B691847C0F88C107047C0F801
:10E6E0009C10704738B5D0F8A83004460D463BB9A9
:10E6F00000F01CFA00B2800003F0F4FCC4F8A8009B
:10E7000094F8AC20D4F8A83043F8225094F8AC30F8
:10E71000013384F8AC3038BD38B505460C460846A0
:10E72000FFF7D2FF04F5B07107C985E80700284656
:10E7300038BD0F299CBF00EB8100C0F86C217047E9
:10E7400010B50446FFF706FF00B2800003F0CAFCD4
:10E7500004F1B003036004F1BC03436004F1E0037F
:10E76000836004F58073C36004F586730361052339
:10E7700084F8A430C4F8A00010BD2DE9F043D0F80F
:10E780009010ADB0002304468DF83030E1B106A8FA
:10E7900000F096FA06A800F0C5FA022805468CBFDC
:10E7A000152314238DF8500006A88DF8513000F081
:10E7B000B7FA2A460146C5F11A050DF1520003F0D9
:10E7C000B0FCEDB2012601E01C250E46D4F88C10F9
:10E7D00031B306A800F074FA06A800F0A3FA431CAF
:10E7E000AB4207461CDAC6EB46182CAB4344022862
:10E7F0008CBF0622022203F8600C03F85F2C06A8E7
:10E8000000F08EFA2CAB984401463A46A8F15E001F
:10E81000023D03F086FC0136ED1BF6B205F0FF0564
:10E82000D4F89410C9B194F89820B2B1022D14D93B
:10E83000531CAB42C6EB46102CAB0344A4BF023DB5
:10E84000EAB2FF2503F8602C03F85F5C2CAB184498
:10E850005E3803F066FC0136F6B2D4F89C50BDB1C8
:10E86000284604F015FBC0B21D288ABF1D238DF871
:10E8700030008DF830309DF8302090428CBF082059
:10E8800009208DF8310029460DF1320003F049FCD2
:10E89000D4F8A03013B92046FFF752FF002742F604
:10E8A000030804F1040994F8A4309F4205DB002713
:10E8B00042F6030804F108091BE0D4F8A03053F82D
:10E8C00027502846FFF7EFFC404506D10DB1281F21
:10E8D00000E028464946FFF7D4FD0137E3E7D4F8C6
:10E8E000A83053F827502846FFF7DDFC404505D0F7
:10E8F000013794F8AC309F42F1DB07E00DB1281FDF
:10E9000000E02846494600F049F9F1E74BB104F52B
:10E9100096712046FFF7E6FE04F59C712046FFF74E
:10E92000E1FEE06894F8AC1002680491D4F8A810F5
:10E93000039194F8A41002919DF83030D4F8A010FF
:10E9400001910CA90033009118BF0123956831464D
:10E9500014AAA847E06803681B6D98472DB0BDE86E
:10E96000F08338B5D0F8A03004460D460BB9FFF758
:10E97000E7FE94F8A420D4F8A03043F8225094F88D
:10E98000A430013384F8A43038BDFFF7EABF00009B
:10E99000154B10B503F168020360044680334260F2
:10E9A0008360FFF795FED4F8A80008B103F0A2FB3E
:10E9B000D4F8A00008B103F09DFB04F59A7000F0B4
:10E9C000BBF804F58470FFF7F7FC04F1DC00FFF7F7
:10E9D000F3FC04F1B800FFF7EFFC04F1100000F0C5
:10E9E00083FE204610BD00BF8C52020010B50446C5
:10E9F000FFF7CEFF204602F097FD204610BDB8304D
:10EA0000FFF7CBBC07B502AB022223F8021DDC30B6
:10EA10001946FFF7E6FC03B05DF804FB2DE9F84367
:10EA2000354BDFF8E890DFF8E88003F10802044690
:10EA3000026000F1100703F1700288330025426084
:10EA40008360384601F08CFA04F1B806C4F88C50A3
:10EA5000C4F89050C4F8945084F89850C4F89C506E
:10EA6000C4F8A05084F8A450C4F8A85084F8AC505E
:10EA7000224904F1B00000F09BF813230222204940
:10EA80003046FFF7C3FC02231A461E4904F1DC009E
:10EA9000FFF7BCFC494604F5807000F089F80423B8
:10EAA0002022414604F58470FFF7B0FC494604F586
:10EAB000967000F075F82022414604F59A7000F037
:10EAC00043F8214604F5B070FFF745FC10222946B3
:10EAD000E76004F5B67003F04AFB0B493046FFF7D8
:10EAE0005CFC29462046FFF78DFFE0682146FFF7D2
:10EAF00001FD2046BDE8F883845202006052020006
:10EB0000655202006A520200795202006F520200FE
:10EB10007452020010B50446FFF7C0FB024A137896
:10EB200001331370204610BD3B280020014B18789C
:10EB3000704700BF3B280020704710B5044602F024
:10EB4000F3FC204610BD000038B5044615460430DD
:10EB500042F60302FFF7DEFF054B23600023A57298
:10EB6000E372A36284F822306362204638BD00BF9E
:10EB70003453020070B50446C3720D460C30114682
:10EB80001A4603F0CEFA012384F82230A36A23B197
:10EB900021462846BDE87040184770BD4162704765
:10EBA00010B54FF420520446FFF7B4FF204610BDC5
:10EBB00010B54FF420520446FFF7C0FC204610BDAC
:10EBC00013B501230446FFF7ADFC02A9064B2360F1
:10EBD000002301F8013D01222046FFF702FC034B10
:10EBE0002360204602B010BD44530200084F0200CB
:10EBF00070B58AB004460E4601A81B4902F09AFB84
:10EC0000194904A802F096FB0634052514F8013DC5
:10EC10000F2B03D8154901A802F02BFC10222178F4
:10EC200007A802F0FAFB07A904A802F0CBFB07A88B
:10EC300002F03EFB04A901A802F017FC1DB10C492B
:10EC400001A802F016FC15F1FF35DFD200231222D5
:10EC5000314601A802F03AFC04A802F029FB01A801
:10EC600002F026FB0AB070BD64500200F0500200B2
:10EC700095500200F8B505460F460446631B9F42B7
:10EC800013DD237813F0F00F264603D109490A4813
:10EC900002F099F831780848102202F0E3F80749A9
:10ECA0000548013402F08FF8E8E70348BDE8F84072
:10ECB00002F090B8F050020040480020DCAC0200A6
:10ECC000F7B5044600232160037508460E468DF80B
:10ECD00004308DF805308DF8063004F0D9F8451E63
:10ECE000002D1ADB277D0F2F17D8735D2D2B01D137
:10ECF000013510E07219002112F8012C8DF8042062
:10ED000001A810228DF8053004F0ECF92744387181
:10ED1000237D01332375023DE2E7204603B0F0BDB9
:10ED200004307047007D704771DF704772DF7047B5
:10ED300073DF704775DF704776DF704777DF7047A6
:10ED400078DF70477ADF70477CDF70477EDF70477F
:10ED50007FDF704786DF704790DF704792DF704734
:10ED600096DF704798DF704799DF7047A0DF7047E4
:10ED7000A2DF7047A3DF7047A4DF7047A6DF7047AC
:10ED8000A9DF704760DF704761DF704762DF70475F
:10ED900063DF704753DF704710DF704711DF704744
:10EDA00090F86000003018BF0120704770B590F8EF
:10EDB00071600023B34214DA1A01456FAC18AA58E7
:10EDC0008A420CD1E38973B1227B02F0020202F085
:10EDD000FF0342B190F8780080F0010070BD01336C
:10EDE000E8E7002070BD184670BD70B590F87160FE
:10EDF0000023B3421ADA1A01456FAC18AA588A42A6
:10EE000012D1E189A1B1227B02F0020202F0FF03DC
:10EE100082B1012380F878300022808FFFF7A0FFB5
:10EE2000B0FA80F0400970BD0133E2E7002070BD08
:10EE3000084670BD184670BD70B590F8716000232B
:10EE4000B3421CDA1A01456FAC18AA588A4214D191
:10EE5000E389B3B1227B130704D590F8780080F0E2
:10EE6000010070BD02F0040202F0FF034AB190F805
:10EE70006000003018BF012070BD0133E0E70020C2
:10EE800070BD184670BDF0B590F871E085B00024F3
:10EE900074452FDA2501476F7E197D598D4227D1A0
:10EEA000F4894CB3357B15F00C0127D090F8601035
:10EEB00021B315F0080F14BF01250225ADF80A3063
:10EEC0000139012380F860108DF8045080F8783003
:10EED000002501A9808F8DF80550ADF80640ADF8EA
:10EEE00008500392FFF73EFFB0FA80F0400906E0B9
:10EEF0000134CDE7002002E0204600E0084605B0DE
:10EF0000F0BD70B590F871600023B34210DA1A01B9
:10EF1000456FAC18AA588A4208D1E08948B1237BD2
:10EF200013F0300F14BF0120002070BD0133ECE757
:10EF3000002070BD7FB590F871600023B3422EDAD7
:10EF40001A01456FAC18AA588A4226D1E28942B309
:10EF5000217B11F0300326D0012311F0100F14BFD4
:10EF6000194602211A44ADF80210ADF8062000211E
:10EF700002228DF80510ADF80810ADF80A2080F8CF
:10EF800078306A4401A9808F8DF804300392FFF72E
:10EF9000E9FEB0FA80F0400906E00133CEE7002038
:10EFA00002E0104600E0184604B070BD03681B6C18
:10EFB00018477FB590F871600023B3422ADA1A012E
:10EFC000456FAC18AA588A4222D1E28922B3237B2A
:10EFD00013F030034FF0000120D001231A44ADF8A4
:10EFE00006200222ADF802108DF80510ADF80810C9
:10EFF000ADF80A2080F878306A4401A9808F8DF836
:10F0000004300392FFF7AEFEB0FA80F0400906E04C
:10F010000133D2E7002002E0104600E0184604B0B9
:10F0200070BD11F1270F08B514DB11F11D0F14DBB2
:10F0300011F1130F14DB11F10F0F14DB11F10B0F92
:10F0400014DBCA1D15DBCB1C16DB0029D4BF002046
:10F05000042013E06FF0270010E06FF01D000DE0BA
:10F060006FF013000AE06FF00F0007E06FF00B0085
:10F0700004E06FF0070001E06FF00300FFF75EFEB1
:10F08000B0FA80F0400908BD1321808FFFF754BE0D
:10F0900007B501466846FFF747FE086920B10368D7
:10F0A0000DF10102DB69984703B05DF804FB000035
:10F0B00013B5044602A8002340F8043DFFF76AFE9A
:10F0C000019802F0D9FB084B002202F03BFC02F051
:10F0D0001BFF236933B11A6800EE100A126A214639
:10F0E0001846904702B010BD0000D03F704710B5E1
:10F0F000044686B018220021684603F038F8A37A47
:10F1000033B994F83430002B14BF0223032300E0FA
:10F1100000238DF80030A38868460A221B0193FB68
:10F12000F2F3ADF81030FFF703FE06B010BD2DE985
:10F13000F043054690F861008FB00C46002314267A
:10F1400083425DDA06FB03F2696E8F188A58A24289
:10F1500007D12046FFF77EF9C30751D57B6813B965
:10F160004EE00133ECE795F833600DF118083246B4
:10F1700005F11401404602F0D4FF236820461B69C4
:10F18000984704300644F6B21F2E39D87868FFF746
:10F1900088F801466846FFF793FD236895F83370B9
:10F1A0001B69204698470EAB1F44033007F8200C1C
:10F1B00095F833703B441622684603F81F2CFFF77E
:10F1C000AFFD0237038828F80730236895F83370BD
:10F1D000DB6820469847236881461B69204698478C
:10F1E0000437474402464946384602F09AFF002356
:10F1F0001A4631464046FFF799FDAC63012000E016
:10F2000000200FB0BDE8F0832DE9F047D4B04FF4F3
:10F210008E7304460DF10A010DA8ADF80A30FFF710
:10F22000B3FD0346002840F04482BDF83420302A64
:10F2300000F03C8111D8112A5CD004D8012A21D0D9
:10F24000102A27D035E2142A00F0C780192A00F0CE
:10F25000D080132A40F02D829BE0382A00F0DA811A
:10F2600006D8322A00F06481362A00F0BA8120E202
:10F27000502A00F0D180522A00F01281392A40F041
:10F280001882ECE194F860209DF83C30134484F837
:10F2900060300EE2BDF83800A08705A9FFF776FDC3
:10F2A00020699DF8143084F8603028B103680DF1AE
:10F2B0003D021B6821469847E288052A12D9238916
:10F2C000B3F5486F0ED8ADF816300023ADF81830FE
:10F2D00005A94FF4C873A08FADF81420ADF81A300B
:10F2E000FFF728FD94F86830002B00F0E28100223F
:10F2F000012109E14FF6FF72A28784F860000546FC
:10F300004FF01409804694F861309D4216DA676E1A
:10F3100009FB05F6BB19B85983F8108083F81180F2
:10F32000FFF79AF840B1206930B10368BA59D3F8B1
:10F3300014A021460023D0470135E4E7206918B125
:10F34000036821465B68984700230C20194694F80F
:10F350006820934202DB0023184605E0E26E00FBC2
:10F36000032201339160F2E794F87120934208DAA6
:10F37000616F1A01114401330873616F0A44D0812F
:10F38000F2E7002384F87830236820469B69984789
:10F390008FE1E068002800F08681FEF78AFF0028F0
:10F3A00040F08181012303228DF80F3062F30613B0
:10F3B0008DF80C3007238DF80D30102300218DF8C7
:10F3C0000E30E36D05938DF8101009910A910B91A1
:10F3D0000691079105AB03AA68E1E16DBDF84420F1
:10F3E000488A904218BF1946A08F1A46FFF7B2FC10
:10F3F0005FE19DF83C20002A40F05B81E06820B18D
:10F400001C2304F14001FEF767FF2069002800F08B
:10F41000508103689B68E1E0BDF83A8006464FF0F2
:10F42000140994F861309E4280F24381616E09FBB9
:10F4300006F3CF183A8942450CD12069002800F024
:10F44000388103689DF8442000921D693A680DF1E7
:10F45000460323E1BA89424520D19DF847009DF833
:10F46000462042EA002295B202F001023A74C5F346
:10F4700040027A7415F00305C85818BF0125FEF73D
:10F48000EBFFA8420AD02069002800F0128103682F
:10F490003A685E6921462B46B0470AE10136C0E76B
:10F4A00002460146A08FFFF76BFC02E1BDF83A204F
:10F4B00072BBBDF840500DA913460C26AB421CDAB6
:10F4C00094F868700020B84214DAE26E91F810C027
:10F4D00006FB002292F806E0F44509D1B1F80EC00F
:10F4E000B2F804E0F44503D1D1F81200906001E0D5
:10F4F0000130E8E701330831E0E70DAB03EBC50568
:10F500000022A989013189B2A08FFFF725FCD0E044
:10F5100094F868200C20934280F2CB80E16E00FBCF
:10F5200003110D8915B14D89002D4BD10133F2E73F
:10F53000BDF83A2094F87030002A36D1E66E03EB1D
:10F54000430306EB83030A259B6805930DAB9A8959
:10F5500005FB0235AB4223D0002194F87120914283
:10F5600019DA626F94F8700002EB011200EB4000B0
:10F5700056F82070506887420BD11F7C907A8742E2
:10F5800007D11089DF89874201BF987C1073D88A20
:10F59000D0810131E1E7DA8AADF814200A33D9E7E6
:10F5A00005A9A08FFFF7DAFB83E001330C2294F862
:10F5B00068005A4383420CDAE16E11440D892DB183
:10F5C0004D891DB184F870300831EAE701330C32FF
:10F5D000F0E7206900286CD00368DB682146984773
:10F5E00067E0BDF83A1084F8780040F205129142C5
:10F5F00001D1E268CAB9BDF8401094F87100002347
:10F60000834256DA626F02EB0312D5898D423BD0FA
:10F610000133F5E7BDF83A1084F8780040F205129E
:10F62000914246D1E268002A43D01A0E8DF8183074
:10F6300042F00102DBB28DF8172043F001030322F0
:10F6400062F306138DF8143007238DF8153005A9E1
:10F650001023A08F8DF81630FFF778FB29E09DF876
:10F660004230BDF84050022B03D12946A08FFFF74E
:10F670007BFB94F8711000238B421ADA626F02EB65
:10F680000312D089A8420CD1206990B19DF8441092
:10F690000368009112689D690DF146032146A84751
:10F6A00007E00133E8E700231A468521A08FFFF722
:10F6B0004FFB54B0BDE8F08710B50446FFF76EFB72
:10F6C000606F08B102F016FDE06E08B102F012FDA5
:10F6D000606E08B102F00EFD002384F8613084F8FA
:10F6E000683084F8713010BD10B5054B03600446D6
:10F6F000FFF7E2FF2046FEF7E8FE204610BD00BF00
:10F700007853020010B50446FFF7EEFF204601F0E3
:10F710000BFF204610BD07B51288ADF80020ADF8EC
:10F7200002106A4601464FF6FF700193FFF724FB73
:10F7300003B05DF804FB00002DE9F04FEDB09A46F0
:10F740009DF8E8310193A24B769E9DF8E081054635
:10F75000186808900F4608A800211446FFF71CFB04
:10F760009C4B0993142200210DA802F000FD0A23EE
:10F7700009A9ADF834300DA801238DF840308DF87B
:10F780003C30FFF7FFFA2822ADF82C205022ADF8CC
:10F790002E204FF000094FF4C8720BA8ADF83220AC
:10F7A000ADF83090FFF7CEFA4846FFF7C7FA6B7511
:10F7B00006230222AB7503232A7585F833301FB365
:10F7C00014B31444B9451FDA95F8330014F8023C19
:10F7D0002A1801331375023014F8013C5375C0B276
:10F7E00085F83300284414F8022C2146143002F026
:10F7F00098FC14F8023C95F83320134485F8333014
:10F8000009F101091F34DDE724AFBAF1000F20D060
:10F810000EB34FF0000902364B46D1451CDA16F8FC
:10F8200002BC16F8011C0BF10102FA549C1CFA18D8
:10F83000E4B2517038195A46314602F072FC5C4409
:10F840004FF00102E3B285F8342009F101091F36B7
:10F85000E3E7534600E033463A4695F8331005F1A6
:10F860001400FFF763FA0020FFF76AFA002442F65B
:10F87000030644450DDA779B53F82400FEF713FD89
:10F88000B04202BF95F86130013385F86130013430
:10F89000EFE795F861000338C0B285F8610000EB2E
:10F8A0008000800002F01EFC00266866ADF814603F
:10F8B0000296B146464580F2BE81779B53F82640BA
:10F8C0002046FEF7EEFC014617A8FFF7F9F917A846
:10F8D000FFF726FA074617A8FFF724FA022809D1EE
:10F8E0007A783B7843EA0223ADF8283001238DF87B
:10F8F0002A301CE03B460DF1B00E07F1100C1868E1
:10F900005968724603C2083363459646F7D17A7B3D
:10F910003B7B43EA0223ADF828300DF12A01002396
:10F920002CA88DF8BD308DF8BC30FFF731FA204699
:10F93000FEF7B9FCB0F5205F204611D1FEF7B1FC0F
:10F94000254903F093FA002800F073812046FEF762
:10F95000A8FC224903F08AFA002800F06A8131E20B
:10F96000FEF7A1FC42F60303984240F0358104B152
:10F97000043C271D3846FEF794FC194903F076FA3B
:10F98000B8B99DF8B030012262F3030362F30713A4
:10F990008DF8B03023682046DB6898472368074617
:10F9A0001B6920469847394682B22CA8FFF7CCF94C
:10F9B0003FE13846FEF775FC0A4903F057FA98B95B
:10F9C00023682046DB6898470088FFF7B9F930E1E3
:10F9D0006C53020080200020605202006F5202002F
:10F9E000655202006A5202003846FEF75AFCC149CD
:10F9F00003F03CFA002800F01C812046FEF72AFDA7
:10FA0000236882461B69204698476A6EADF8160047
:10FA100009EB89014FEA810B02EB0B0342F821400D
:10FA20000027029A5A601F745F741C2239461DA871
:10FA300002F09DFB2AF001031AF0300F8DF87430AC
:10FA400010D00123194663F307118DF818101946D9
:10FA500006AA63F3071163F342078DF819108DF8B6
:10FA60001A70229200231AF0320FADF81C308DF874
:10FA70001E300BD09DF81C30E968012262F30303AD
:10FA800001B1022262F307138DF81C301AF00C0F3B
:10FA900010D0EB6801222BB19DF81D3062F30303F7
:10FAA000022203E09DF81D3062F3030362F30713A3
:10FAB0008DF81D309DF81E30012262F342038DF84F
:10FAC0001E30236820469B6998479DF81E3080F0C1
:10FAD000010060F300038DF81E30771C47453CDAC7
:10FAE000779B53F827A05046FEF7DDFBB0F5245F67
:10FAF00033D1BAF1000F01D0AAF1040A0AF10403CC
:10FB000018460393FEF7CDFB7B4903F0AFF9039B47
:10FB1000A0B9DAF8003050469B6898471E90DAF892
:10FB200000305046DB689847DAF80030ADF87C00CA
:10FB3000DB6850469847ADF87E000CE01846FEF7AB
:10FB4000B0FB6E4903F092F928B9DAF8003050465C
:10FB50009B68984720900137C0E71422002112A823
:10FB600002F005FB0DF1160A0AAB129307AB1393D3
:10FB7000BAF80030ADF85030236820469B689847AB
:10FB80006B6EADF8540000275B44083312AA1DA920
:10FB900038461697FFF7ECF8BAF80030BBB12CAB3B
:10FBA000BAF800200393974208DA2268394652696E
:10FBB00020469047039BD8550137F1E76B6E9B4475
:10FBC00052462CAB0021BBF80800FFF7A4FD09F159
:10FBD00001095FFA89F92CE02046FEF764FBB0F5D5
:10FBE000245F26D104B1043C271D3846FEF759FB9B
:10FBF000414903F03BF9E0B13846FEF752FB40497A
:10FC000003F034F9A8B13846FEF74BFB3D4903F049
:10FC10002DF970B13846FEF744FB384903F026F958
:10FC200038B1D6E02CAB52460021BDF81400FFF7E6
:10FC300072FD01363EE6019B23B3A3F102085FFA91
:10FC400088F6002442F60307B442B0461CDA799BDA
:10FC500053F824804046FEF726FBB0F5205F05D11F
:10FC600095F86830013385F8683009E04046FEF7C2
:10FC70001AFBB84202BF95F87130013385F8713034
:10FC80000134E1E7DDF8048095F8680000EB4000FE
:10FC9000800002F027FAE86695F87100000102F092
:10FCA00021FADDF8E4916867002609EB88083746F9
:10FCB000B246C14579D059F8044B2046FEF7F1FA17
:10FCC00001462CA8FEF7FCFF2CA8FFF729F8834675
:10FCD0002CA8FFF727F8022816D19BF801209BF8E3
:10FCE000003043EA0223ADF85C3001238DF85E302A
:10FCF00029E000BF74520200D4530200D95302001D
:10FD0000DE530200E35302005B460DF1740E0BF16B
:10FD1000100C18685968724603C20833634596464A
:10FD2000F7D19BF80D209BF80C3043EA0223ADF885
:10FD30005C300DF15E0100231DA88DF881308DF837
:10FD40008030FFF725F82046FEF7ADFAB0F5205FCA
:10FD500010D1EA6E07EB47018B00D01842F8214022
:10FD6000179A4260EA6E1344013700229A60FFB28C
:10FD7000A2469EE72046FEF796FA42F60303984213
:10FD800097D1696F3301CA1804B1043CCC50C2F852
:10FD900004A0179991606A6F1A44002111736A6F69
:10FDA00013440136D981F6B283E7E86818B1FEF74B
:10FDB00080FA002865D12B6828469B6998476DB06A
:10FDC000BDE8F08F05AA0AA90120FEF7CFFF029433
:10FDD0002FE723682046DB68984712AF14220021E2
:10FDE000ADF81C001DA802F0C2F94FF0010A002373
:10FDF0003B806AF34203BB7023682046DB68984768
:10FE0000BDF81C10BB78EA6880B2401A18BF012008
:10FE100060F30003BB703B782AB16AF3030302224C
:10FE200062F3071303E06AF303036AF307133B70FB
:10FE30000AAB1E971D932368ADF87C10DB68204643
:10FE4000984700270DF11C0AADF8800005AA1DA9EE
:10FE500038462197FEF78EFFBAF80030002B3FF4AA
:10FE6000E8AE0DF1B00BBAF800309F42BFF6DAAE43
:10FE7000236839461B69204698470BF8070001376D
:10FE8000F1E71C23002205F14001E868FEF733FA90
:10FE900091E700BF2DE9F04F87B004460D460026DC
:10FEA00001274FF014090DF1060894F861309E42C5
:10FEB00052DA09FB06F3626E02EB030AD358AB4237
:10FEC00048D1A36B9D4204D1236829465B6A204632
:10FED00098472B6828461B6998472B68ADF80600A1
:10FEE000DB68BAF808B02846984742460346002126
:10FEF0005846FFF710FC1022002102A802F037F943
:10FF0000BAF80830ADF808309AF81030CDF8108003
:10FF100073B194F8603053B1013B84F8603002A9AA
:10FF20000123A08F8DF80A30FEF728FF00E01F465E
:10FF30009AF8113073B194F8603053B1013B84F8F2
:10FF4000603002A90223A08F8DF80A30FEF716FF59
:10FF500000E01F460136A8E7384607B0BDE8F08F3D
:10FF600010B50446FEF7B8FA104B236000214FF697
:10FF7000FF7304F1400084F8331084F83410A16357
:10FF8000A38784F8601084F86110616684F86810B3
:10FF9000E16684F8701084F87110616784F8781055
:10FFA000E0651C2202F0E3F8204610BD7853020001
:10FFB00030B54FF6FF74013A92B2A24208D00588DC
:10FFC00031F8023B15FB03F3DB1320F8023BF2E7A9
:10FFD00030BD2DE9F04F4908002401F1010E4FEA30
:10FFE000420B06464FEA810C25468F1EBD4222D8A1
:10FFF000A54213D250F8258050F8242040F825203F
:020000022000DC
:1000000006EB0C0940F8248004EB0E08D9F804A094
:1000100050F82820C9F8042040F828A00C44D6F84D
:10002000048050F824207260023540F8248008369D
:100030001C885B44DAE7BDE8F08F2DE9F04F89B00A
:100040004C1004929A0002928A000392DDF81090FC
:10005000A20005924FF0000CA4454EDAB9F800203A
:10006000B9F802A0019200EB8C06E04641453FD969
:1000700030F9285036F92470C5F38F05C7F38F0780
:10008000EA1B3FB207FA85F7059D7F1020F828701C
:1000900006EB050BB6F902E0BBF90250CEF38F0E6A
:1000A000C5F38F05C5EB0E070FFA8EFE0EFA85FE1F
:1000B000BDF8045092B2BFB24FEA6E0EA6F802E04D
:1000C00012FB05FE17FB0AF52D1405EB2E4526F84D
:1000D0002450BDF8045012FB0AF2121415FB07F766
:1000E000C2EB2747039AABF8027088441644BDE779
:1000F000029A0CF1010C9144AEE75B009BB24FEA0F
:10010000510AA200BAF1020F05924FEA64055FDDC1
:100110009A000692DDF81090AA0007924FF0000CAA
:10012000AC454FDAB9F800200192B9F802200292EA
:1001300000EB8C06E04641453FD930F8287036F890
:1001400025E0CEEB07020FFA8EFE0EFA87FE079F20
:100150004FEA6E0E20F828E0F719B6F802B0B7F8AB
:1001600002E00397CEEB0B070FFA8BFB0BFA8EFB2B
:10017000BDF804E092B24FEA6B0BA6F802B012FB96
:100180000EFBBDF808E0BFB217FB0EFE4FEA2E4E85
:100190000EEB2B4E26F825E0BDF804E01EFB07F71A
:1001A000BDF808E012FB0EF21214C2EB2747039AC7
:1001B0005780059AA0441644BDE7069A0CF1010C3D
:1001C0009144ADE75B009BB24FEA6A0A2C4698E780
:1001D0004FEA850A0026AE4223DA00EB8603324658
:1001E00091421CD930F822E033F825900EEB090734
:1001F00020F8227003EB0A0C5F88BCF80280C9EB80
:100200000E0E07EB080BC8EB0707A3F802B023F8A4
:1002100025E0ACF80270059F22443B44E0E701363C
:10022000D9E709B0BDE8F08F8029F8B507460C463C
:1002300037D00DD8202942D0402939D010296DD18E
:100240000A463849384EFFF7B3FE4FF480753CE05C
:10025000B1F5007F1ED009D8B1F5807F5ED10A4686
:100260003249334EFFF7A4FE10252EE0B1F5806F22
:1002700009D0B1F5006F51D10A462E492E4EFFF735
:1002800097FE022521E00A462C492D4EFFF790FEED
:1002900004251AE00A462B492B4EFFF789FE082554
:1002A00013E00A4629492A4EFFF782FE20250CE07A
:1002B0000A462849284EFFF77BFE254605E00A46F8
:1002C0002649274EFFF774FE80250023254A19464C
:1002D000A34208DA37F8130022F8230002EB830068
:1002E00001334180F4E72B461F4A1E482146FFF7A1
:1002F000A4FE334621462A461A48FFF76AFE1949EA
:100300000023A34208DA31F92320002AB8BF524261
:1003100027F813200133F4E70020F8BD4FF0FF3039
:10032000F8BD00BF68AB0200E685020068A90200C4
:100330000684020068990200EA830200E88B02004A
:10034000EE830200E8940200F6830200E8930200C4
:1003500026840200E89802006684020088AB02004E
:10036000E68402003C280020E8530200F0B52DEDA1
:10037000048BB0EE409AF0EE609A3A4C8BB000F0ED
:100380007BF894F90030B0EE408AF0EE608A0133D9
:100390000DD0B0EE490AF0EE690A00F00FF930B165
:1003A0000022002351EC190B01F048FD38B9B0EEE2
:1003B000480AF0EE680A0BB0BDEC048BF0BD2A4B86
:1003C0002478019300238DED029B8DED049B08930F
:1003D000B4B9264D4FF060440022002351EC190BB4
:1003E000CDE9064501F016FD50B30223009368469F
:1003F00000F012F9E0B901F009FE2223036017E0D2
:100400001B4F00260022002351EC190BCDE9066793
:1004100001F000FDE0B90123022C009312D101F09C
:10042000F5FD21230360134800F0FAF88DED060B6B
:10043000089B93B99DED060B0BB0BDEC048BF0BD92
:1004400001230093684600F0E7F80028EBD1E6E7C7
:1004500002239C420093CED0C9E701F0D7FD089B50
:100460000360E7E7F820002048AC0200FFFFEFC779
:100470000000F0FF50AC02002DE9F04355EC104BAA
:10048000B5F5801F83B02B4621DA10EE102A25F037
:1004900000410A4364D0002D6DDB29460022444B05
:1004A00010EE100A01F04EFA0B460D4641498B4200
:1004B00004466FF035020FDD22462B4620462946C2
:1004C00001F08EF841EC100B03B0BDE8F083394920
:1004D0008B424FF00002EFDC1815A0F2FF30104401
:1004E0004FEAD0794844C3F3130801F0C5F9C9F5C0
:1004F0007F73033348EA035545EC104B06460F461D
:1005000000F096F83046394623A3D3E900238DED59
:10051000000B01F017FA9DED000B04460D4620A3D9
:10052000D3E9002351EC100B01F00CFA02460B4604
:100530002046294601F054F81BA3D3E900230446C2
:100540000D463046394601F0FDF902460B4620467D
:10055000294601F045F841EC100B03B0BDE8F083EB
:10056000002200230020144901F016FB41EC100B7F
:1005700003B0BDE8F08310EE102A2B462046294632
:1005800001F02CF80022002301F006FB41EC100BD7
:100590009AE700BFAFF30080362BF111F3FE593D0F
:1005A0000EE526157BCBDB3F00609F501344D33F05
:1005B00000005043FFFFEF7F000050C353EC102BAF
:1005C00033F0004110B408D01148A3F580148442E0
:1005D00008D804205DF8044B70471AB902205DF872
:1005E000044B704703F1FF43094803F5E0038342DE
:1005F000EFD9B1F5801F01D20320EBE7054B9942FB
:1006000001D00020E6E7B2FA82F04009E2E700BF3D
:10061000FFFFDF7F0000F07F002070470000000038
:100620009FED010B704700BF000000000000F87F45
:100630002DE9F04F51EC100BB1F5801F85B00B4642
:1006400059DA10EE102A21F00044224300F0F8801D
:100650000029C0F280810022DD4BDE4C01F072F9EE
:100660000B46A3426FF035024ADCC3F3130505F5D0
:10067000152404F6647404F4801686F07F541B1568
:1006800084F44014A3F2FF3344EA05019C180022CD
:10069000D14B00F0A3FFAB1CC3F31303022B04EBFD
:1006A000165482468B464FF0000232DC002301F0E4
:1006B000B1FB002800F0CF80002C00F058812046CC
:1006C00001F0DAF8ACA3D3E9002306460F4601F0A7
:1006D00039F9ABA3D3E9002304460D463046394629
:1006E00001F030F902460B462046294600F078FF1B
:1006F00041EC100B0AE0B74CA3424FF00002B4DD0E
:1007000002460B4600F06CFF41EC100B05B0BDE853
:10071000F08F4FF0804300F063FF02460B465046D7
:10072000594601F039FA064620460F4601F0A4F872
:100730003246CDE900013B4630463946CDE90267F5
:1007400001F000F902460B468046894601F0FAF8AE
:100750008DA3D3E9002306460F4601F0F3F88CA3DE
:10076000D3E9002300F03CFF32463B4601F0EAF8B3
:1007700089A3D3E9002300F033FF32463B4601F062
:10078000E1F887A3D3E9002300F02AFF42464B4655
:1007900001F0D8F884A3D3E9002380468946304687
:1007A000394601F0CFF882A3D3E9002300F018FF07
:1007B00032463B4601F0C6F87FA3D3E9002300F0A0
:1007C0000FFF32463B4601F0BDF80B460246494654
:1007D000404600F005FFA5F5C223C5F5D725A3F2D5
:1007E0007A4351351D43002D804689465CDD002249
:1007F0007A4B5046594601F0A5F852465B4601F047
:10080000A1F806460F46002C6ED132463B464046C4
:10081000494600F0E5FEDDE9022301F093F80246C7
:100820000B463046394600F0D9FE02460B4650468C
:10083000594600F0D3FE41EC100B05B0BDE8F08F37
:10084000002200230020664901F0A6F941EC100BBC
:1008500005B0BDE8F08F5AA3D3E9002350465946AE
:1008600001F070F802460B4600205C4900F0B6FE2D
:10087000524606460F465B465046594601F062F81E
:1008800002460B463046394601F05CF806460F46F4
:10089000002C40F0A78002460B465046594600F017
:1008A0009DFE41EC100B31E7002C00F0AF8032A32D
:1008B000D3E90023DDE9000101F044F842464B464C
:1008C00004460D465046594600F088FEDDE90223F5
:1008D00001F038F82AA3D3E9002306460F46DDE9E4
:1008E000000101F02FF821E023A3D3E90023DDE983
:1008F000000101F027F832463B4604460D464046CB
:10090000494600F06DFEDDE9022301F01BF81CA34F
:10091000D3E9002380468946DDE9000101F012F8A1
:1009200002460B464046494600F05AFE02460B4638
:100930003046394600F052FE52465B4600F04EFE0D
:1009400002460B462046294600F048FE41EC100BBB
:1009500005B0BDE8F08F10EE102A0B4600F03EFE09
:100960000022002301F018F941EC100BCEE69FEDB8
:10097000160BCBE6AFF300800000E0FE422EE63F10
:10098000763C7935EF39EA3D44523EDF12F1C23F01
:10099000DE03CB966446C73F599322942449D23F45
:1009A000935555555555E53F9FC678D0099AC33F95
:1009B000AF788E1DC571CC3F04FA97999999D93FAC
:1009C000555555555555D53F000000000000000015
:1009D00000005043FFFFEF7F0000F03F0000E03FCA
:1009E000000050C3204600F047FF0FA3D3E90023C7
:1009F0008046894600F0A6FF0DA3D3E900230446F4
:100A00000D464046494600F09DFF8FE702460B46E3
:100A10005046594600F0E2FDDDE9022300F092FF66
:100A200003E700BFAFF300800000E0FE422EE63F88
:100A3000763C7935EF39EA3D0649074A074B9B1A60
:100A400003DD043BC858D050FBDC00F0D5F8FBF7C1
:100A500029FD0000B8AF020080200020B82100204E
:100A6000FEE7FEE7FEE7FEE7FEE7FEE7FEE7FEE75E
:100A7000FEE7FEE7094B1968094B30B5D3F80405CA
:100A80000A060B0A02434FF47A71A2FB014501FBEF
:100A90000355E00B40EA454030BD00BF3C48002014
:100AA00000100140084B1968084B30B5D3F8040515
:100AB0000A060B0A06490243A2FB014501FB035546
:100AC000E00B40EA454030BD3C48002000100140AA
:100AD00040420F0038B5044648B1FFF7CBFF05464A
:100AE00000F01AF8FFF7C6FF401B8442F8D838BD63
:100AF000074B0022C3F8042182B0D3F80431054A21
:100B00000193019B13680133DBB2136002B070479D
:100B1000001001403C480020704700001F281BD8EF
:100B20000E4B53F82030032916D8DFE801F0020EEF
:100B3000060A03F5E07300210AE003F5E0730C21D7
:100B400006E003F5E073042102E003F5E0730321FE
:100B50004FF0A04242F82310704700BFC8AB02001C
:100B60001F280CD8064B53F8200001234FF0A04259
:100B7000834011B9C2F80C357047C2F80835704788
:100B8000C8AB02000C4B1B78062B10D10B4B1B681B
:100B90001A070CD10A4B186800F0F003302B08D06C
:100BA00000F0E000A0F14003584258417047002097
:100BB00070470120704700BFE00F00F0E40F00F025
:100BC000E80F00F0094B1B78062B0CD1084B1B6873
:100BD0001A0708D1074B186800F0F000A0F13003A5
:100BE0005842584170470020704700BFE00F00F0A6
:100BF000E40F00F0E80F00F008B5FFF7E3FF10B1D5
:100C00004B4B4C4A1A60FFF7BDFF28B14A4B4B4A89
:100C10001B68C3F342331360FFF7D4FF20B1484A87
:100C2000D36823F08073D360FFF7ACFF40B14FF07F
:100C300080430022C3F80C21C3F81021C3F83825E3
:100C4000FFF7C0FF10B13F4B03221A60FFF7BAFF56
:100C500040B13D4B05221A6001229A6700229A603A
:100C60003F225A60394B1B78062B09D1384B1B6841
:100C70001B0705D1374B1B6803F0F003502B0ED038
:100C8000354AD2F8883043F47003C2F88830BFF395
:100C90004F8FBFF36F8F314B314A1A6008BD4FF051
:100CA0008052304BD2F80414C3F82015D2F808143F
:100CB000C3F82415D2F80C14C3F82815D2F8101470
:100CC000C3F82C15D2F81414C3F83015D2F8181440
:100CD000C3F83415D2F81C14C3F84015D2F8201408
:100CE000C3F84415D2F82414C3F84815D2F82814D0
:100CF000C3F84C15D2F82C14C3F85015D2F83014A0
:100D0000C3F85415D2F83414C3F86015D2F8381467
:100D1000C3F86415D2F83C14C3F86815D2F840142F
:100D2000C3F86C15D2F84424C3F87025A8E700BFB7
:100D300074C007400DF0ADBA440200103C050040FD
:100D4000F0ED00E0A005004010560040E00F00F07C
:100D5000E40F00F0E80F00F000ED00E0FC200020C0
:100D60000090D00300C000402DE9F04106460D463A
:100D700001EB02080C464445A4EB050707D0336895
:100D800014F8011B1B68304698470028F3D13846F9
:100D9000BDE8F08170B505460C46084649B102F041
:100DA00077F82B680246214628465B68BDE870400C
:100DB000184770BD08B5FFF7EDFF08BD03688A68E6
:100DC0005B680968184708B5FFF7E4FF08BD0368CA
:100DD0001B68184708B50249FFF7DCFF08BD00BFD4
:100DE00054AC020038B50546FFF7E8FF0446284634
:100DF000FFF7F0FF204438BD38B50546FFF7CAFFBE
:100E000004462846FFF7E6FF204438BDF0B58BB016
:100E100000238DF82430012A98BF0A220DF1230502
:100E2000B1FBF2F402FB1416F3B2092E94BF303377
:100E30003733DBB22F46214605F80139002CEFD1BC
:100E40003946FFF7A7FF0BB0F0BD10B42AB903680D
:100E50005DF8044B1B68C9B21847D2B25DF8044B69
:100E6000FFF7D4BFFFF7F1BF2DE9F04107460E466B
:100E700015462AB90368C9B21B68BDE8F041184796
:100E80000A2A02D1002901DA04E0D2B2BDE8F04119
:100E9000FFF7BCBF2D21FFF79AFF2A460446714297
:100EA0003846FFF7B3FF2044BDE8F08138B505466A
:100EB000FFF7DAFF04462846FFF78CFF204438BDD1
:100EC0002DE9F843804657EC106B0D46FFF776FB93
:100ED00008B9424910E047EC106BFFF76FFB01289F
:100EE00001D13F4908E04FF060423E4B3046394661
:100EF00000F0B8FF28B13C494046FFF74BFFBDE882
:100F0000F8834FF06042394B3046394600F08CFF91
:100F10000028F0D1002200233046394600F084FF3B
:100F200040B12D214046FFF752FF07F10043044630
:100F30001F4600E004462E494FF0000900205FFAEA
:100F400089F39D4206D900222A4B00F025FE09F1C3
:100F50000109F4E732463B4600F042FB0F460646E5
:100F600000F0B2FF0A22014681464046FFF74EFFDD
:100F700004447DB3484600F06FFC02460B46304601
:100F8000394600F02BFB06460F4640461A49FFF74C
:100F900001FF0444174B00223046394600F0D2FCD2
:100FA0000F46064600F068FF0A2201468146404689
:100FB000FFF75AFF0444484600F05EFC02460B4629
:100FC0003046394600F00AFB013D15F0FF050646A4
:100FD0000F46DFD12046BDE8F88300BF57AC0200C2
:100FE0005BAC0200FFFFEF415FAC0200FFFFEFC10F
:100FF0000000E03F00002440B150020038B5C9B203
:101000000546FFF75DFF04462846FFF7E3FE204450
:1010100038BD0120704703681322DB691847704709
:101020000369C3F81C15D3F81C21002AFBD0002249
:10103000C3F81C210120704790F85C305AB2520965
:1010400010B4012120320F4C03F01F0301FA03F307
:1010500044F8223003695DF8044B0422C3F80823E6
:1010600000225960D960C3F800254FF0FF32C3F861
:101070000C251430C3F81425C3F80825C3F810252F
:1010800000F088BA00E100E0143000F095BA1430A6
:1010900000F098BA143000F081BA0000026990F8AC
:1010A0005E3030B5C2F80C3590F85D30C2F81435BA
:1010B00090F86130012B01BF90F85F40C2F81045F5
:1010C00090F86040C2F8084518BF0023B1F5966F4C
:1010D000C2F86C352ED9B1F5166F2ED9B1F5965FE1
:1010E0002ED9B1F5165F2DD9B1F5615F2CD9B1F5C7
:1010F000964F2BD9B1F5E14F2AD9B1F5164F29D921
:10110000B1F5614F29D9B1F5963F29D9B1F5E13F44
:1011100028D9B1F5613F28D9344B994228D9B1F586
:10112000E12F28D9B1F5612F8CBF4FF080534FF0DC
:10113000706322E04FF49E231FE04FF41D231CE058
:101140002B4B1AE02B4B18E02B4B16E02B4B14E0EB
:101150002B4B12E04FF41D030FE04FF46B030CE038
:10116000284B0AE04FF0EB7307E04FF06C7304E09C
:101170004FF0806301E04FF0E863C2F824350021AE
:101180000423C2F80035C2F80811C2F81C1101216D
:1011900011609160C2F8043390F85C2053B2D2B26F
:1011A00002F01F055C09A9406034174D002B45F87B
:1011B000241006DA154B02F00F02134460221A764F
:1011C00006E003F1604303F56143602283F80023E6
:1011D00090F85C3001215AB203F01F0301FA03F3C7
:1011E0005209094941F8223030BD00BF90D00300B8
:1011F00000B013000050270000F03A0000A04E009D
:1012000000C0750000903A0100E100E0FCEC00E055
:101210002DE9F0411E464FF47A73002583600E4B92
:101220004560044640F8143B1746884600F09CF998
:101230000A4AC4F8108052F8263084F85D309DF8D0
:10124000183084F85C7052F8233084F85E3084F8EB
:1012500061502046BDE8F0816CAC0200C8AB0200D2
:101260000369D3F8082110B504464AB1D3F818151C
:101270001430C9B200F083F923690022C3F80821B1
:1012800010BD00000148FFF7EBBF00BF4048002041
:1012900007B51A2300930222192303490348FFF7D5
:1012A000B7FF03B05DF804FB002000404048002079
:1012B00010B50446006800F01DFF204610BD10B5B3
:1012C0000446006808B100F015FF00232360A36006
:1012D000636010BD38B504460D460068013101F069
:1012E00089FD10B184E82100012038BD036810B5E4
:1012F000044613B143688B4207D22046FFF7EAFF4A
:1013000020B1A3680BB922681370012010BD70B51D
:101310000E46114604461546FFF7E8FF18B9204669
:10132000FFF7CDFF04E0A5603146206801F0A8FD7D
:10133000204670BD38B500230446036043608360D7
:101340000D4639B1084601F0A3FD29460246204664
:10135000FFF7DDFF204638BD38B5054600680C466E
:1013600060B16A688B689A4206D3096801F088FD0B
:10137000A368AB6000230AE000F0BCFE23682B608A
:1013800063686B60A368AB60002323606360A36045
:1013900038BD884210B50B46044607D0096819B11C
:1013A0009A68FFF7B4FF01E0FFF789FF204610BD00
:1013B00010B500230446036043608360FFF7E9FF34
:1013C000204610BD884210B5044601D0FFF7C4FF87
:1013D000204610BD38B505460C4641B1084601F01F
:1013E00057FD214602462846FFF791FF01E0FFF72F
:1013F00066FF284638BD10B5044600238AB0236036
:101400006360A360084601A900F069FE01A92046B7
:10141000FFF7E0FF20460AB010BD1FB504460023C9
:1014200023606360A360084601A901F0A1FE01A941
:101430002046FFF7CFFF204604B010BD70B504462C
:101440000E4609B9002070BD6AB18368D5182946D7
:10145000FFF74CFF0028F5D02068A36831461844F8
:1014600001F00EFDA560012070BD8A680968FFF7D4
:10147000E5BF38B505460C46084641B101F008FD08
:10148000214602462846BDE83840FFF7D7BF38BDA1
:1014900010B58A6809680446FFF7D0FF10B92046E6
:1014A000FFF70DFF204610BD38B504460D4641B18B
:1014B000084601F0EDFC294602462046FFF7BEFF34
:1014C00010B92046FFF7FBFE204638BD70B50E462A
:1014D0009AB191B185689D4202D800230B7070BD0E
:1014E000541EED1A0168AC4228BF2C46194422460E
:1014F000304601F0D5FC0023335570BD7047000025
:1015000008B500F013F8FFF7F9FF0120FFF7E2FA42
:10151000FCF7A8FD034CFCF751FB002CFBD0AFF30C
:101520000080F8E70000000000F0E4BD0D4BE02271
:1015300083F811234FF40032C3F880211A604FF072
:1015400080430122C3F818259A6003F588330021EF
:10155000C3F808150221C3F80413C3F844131A6032
:10156000704700BF00E100E010B5402204460021B2
:1015700000F0FDFD002323646364204610BD026C6F
:1015800010B5531C446C03F03F039C421CBF8154B4
:10159000036410BD0023036443647047436C026C12
:1015A00093421FBFC25C013303F03F03436414BF87
:1015B00010464FF0FF307047036C406C181A48BF5C
:1015C00040307047436C026C934214BFC05C4FF0D4
:1015D000FF30704781F0004102E000BF83F000431C
:1015E00030B54FEA41044FEA430594EA050F08BFBE
:1015F00090EA020F1FBF54EA000C55EA020C7FEA82
:10160000645C7FEA655C00F0E2804FEA5454D4EBFE
:101610005555B8BF6D420CDD2C4480EA020281EAC8
:10162000030382EA000083EA010180EA020281EA00
:101630000303362D88BF30BD11F0004F4FEA013152
:101640004FF4801C4CEA113102D0404261EB410161
:1016500013F0004F4FEA03334CEA133302D05242E7
:1016600063EB430394EA050F00F0A780A4F10104A3
:10167000D5F1200E0DDB02FA0EFC22FA05F28018DD
:1016800041F1000103FA0EF2801843FA05F35941C3
:101690000EE0A5F120050EF1200E012A03FA0EFC42
:1016A00028BF4CF0020C43FA05F3C01851EBE3716C
:1016B00001F0004507D54FF0000EDCF1000C7EEB89
:1016C00000006EEB0101B1F5801F1BD3B1F5001FC7
:1016D0000CD349085FEA30004FEA3C0C04F10104E6
:1016E0004FEA445212F5800F80F09A80BCF1004F0F
:1016F00008BF5FEA500C50F1000041EB045141EA91
:10170000050130BD5FEA4C0C404141EB010111F491
:10171000801FA4F10104E9D191F0000F04BF01463C
:101720000020B1FA81F308BF2033A3F10B03B3F11A
:1017300020020CDA0C3208DD02F1140CC2F10C02AA
:1017400001FA0CF021FA02F10CE002F11402D8BF08
:10175000C2F1200C01FA02F120FA0CFCDCBF41EAD4
:101760000C019040E41AA2BF01EB0451294330BDA3
:101770006FEA04041F3C1CDA0C340EDC04F1140480
:10178000C4F1200220FA04F001FA02F340EA030057
:1017900021FA04F345EA030130BDC4F10C04C4F19D
:1017A000200220FA02F001FA04F340EA030029467D
:1017B00030BD21FA04F0294630BD94F0000F83F4C7
:1017C000801306BF81F480110134013D4EE77FEAAA
:1017D000645C18BF7FEA655C29D094EA050F08BFF6
:1017E00090EA020F05D054EA000C04BF19461046D7
:1017F00030BD91EA030F1EBF0021002030BD5FEA1B
:10180000545C05D14000494128BF41F0004130BD42
:1018100014F580043CBF01F5801130BD01F0004596
:1018200045F0FE4141F470014FF0000030BD7FEA09
:10183000645C1ABF194610467FEA655C1CBF0B4604
:10184000024650EA013406BF52EA033591EA030F1B
:1018500041F4002130BD00BF90F0000F04BF002113
:10186000704730B54FF4806404F132044FF0000546
:101870004FF0000150E700BF90F0000F04BF0021BF
:10188000704730B54FF4806404F1320410F0004525
:1018900048BF40424FF000013EE700BF42004FEA20
:1018A000E2014FEA31014FEA02701FBF12F07F439D
:1018B00093F07F4F81F06051704792F0000F14BF9A
:1018C00093F07F4F704730B54FF4607401F00045DE
:1018D00021F0004120E700BF50EA010208BF704735
:1018E00030B54FF000050AE050EA010208BF70472A
:1018F00030B511F0004502D5404261EB41014FF493
:10190000806404F132045FEA915C3FF4DCAE4FF096
:1019100003025FEADC0C18BF03325FEADC0C18BF7D
:10192000033202EBDC02C2F1200300FA03FC20FACE
:1019300002F001FA03FE40EA0E0021FA02F114441B
:10194000C1E600BF70B54FF0FF0C4CF4E06C1CEA30
:1019500011541DBF1CEA135594EA0C0F95EA0C0FA5
:1019600000F0DEF82C4481EA030621EA4C5123EA18
:101970004C5350EA013518BF52EA033541F4801147
:1019800043F4801338D0A0FB02CE4FF00005E1FBFA
:1019900002E506F00042E0FB03E54FF00006E1FB44
:1019A00003569CF0000F18BF4EF0010EA4F1FF0487
:1019B000B6F5007F64F5407404D25FEA4E0E6D41C7
:1019C00046EB060642EAC62141EA55514FEAC520D8
:1019D00040EA5E504FEACE2EB4F1FD0C88BFBCF554
:1019E000E06F1ED8BEF1004F08BF5FEA500E50F105
:1019F000000041EB045170BD06F0004646EA0101CB
:101A000040EA020081EA0301B4EB5C04C2BFD4EBFC
:101A10000C0541EA045170BD41F480114FF0000EF5
:101A2000013C00F3AB8014F1360FDEBF002001F063
:101A3000004170BDC4F10004203C35DA0C341BDCDD
:101A400004F11404C4F1200500FA05F320FA04F0AF
:101A500001FA05F240EA020001F0004221F00041E3
:101A600010EBD37021FA04F642EB06015EEA430E56
:101A700008BF20EAD37070BDC4F10C04C4F1200586
:101A800000FA04F320FA05F001FA04F240EA020039
:101A900001F0004110EBD37041F100015EEA430E0A
:101AA00008BF20EAD37070BDC4F1200500FA05F22A
:101AB0004EEA020E20FA04F301FA05F243EA0203A9
:101AC00021FA04F001F0004121FA04F220EA0200B8
:101AD00000EBD3705EEA430E08BF20EAD37070BDFE
:101AE00094F0000F0FD101F00046400041EB0101DE
:101AF00011F4801F08BF013CF7D041EA060195F0C0
:101B0000000F18BF704703F00046520043EB030379
:101B100013F4801F08BF013DF7D043EA0603704766
:101B200094EA0C0F0CEA135518BF95EA0C0F0CD071
:101B300050EA410618BF52EA4306D1D181EA0301B7
:101B400001F000414FF0000070BD50EA410606BFB1
:101B50001046194652EA430619D094EA0C0F02D1F6
:101B600050EA013613D195EA0C0F05D152EA03363B
:101B70001CBF104619460AD181EA030101F0004159
:101B800041F0FE4141F470014FF0000070BD41F0A2
:101B9000FE4141F4780170BD70B54FF0FF0C4CF47C
:101BA000E06C1CEA11541DBF1CEA135594EA0C0F9B
:101BB00095EA0C0F00F0A7F8A4EB050481EA030EE8
:101BC00052EA03354FEA013100F088804FEA0333CF
:101BD0004FF0805545EA131343EA12634FEA02229D
:101BE00045EA111545EA10654FEA00260EF000415E
:101BF0009D4208BF964244F1FD0404F5407402D2B0
:101C00005B084FEA3202B61A65EB03055B084FEA40
:101C100032024FF480104FF4002CB6EB020E75EB3D
:101C2000030E22BFB61A754640EA0C005B084FEA65
:101C30003202B6EB020E75EB030E22BFB61A7546E2
:101C400040EA5C005B084FEA3202B6EB020E75EB2D
:101C5000030E22BFB61A754640EA9C005B084FEAA5
:101C60003202B6EB020E75EB030E22BFB61A7546B2
:101C700040EADC0055EA060E18D04FEA051545EAA1
:101C800016754FEA06164FEAC30343EA52734FEA4A
:101C9000C2025FEA1C1CC0D111F4801F0BD141EAC3
:101CA00000014FF000004FF0004CB6E711F4801F28
:101CB00004BF01430020B4F1FD0C88BFBCF5E06F08
:101CC0003FF6AFAEB5EB030C04BFB6EB020C5FEA18
:101CD000500C50F1000041EB045170BD0EF0004E6D
:101CE0004EEA113114EB5C04C2BFD4EB0C0541EA9F
:101CF000045170BD41F480114FF0000E013C90E69C
:101D000045EA060E8DE60CEA135594EA0C0F08BF5F
:101D100095EA0C0F3FF43BAF94EA0C0F0AD150EA5E
:101D200001347FF434AF95EA0C0F7FF425AF1046F1
:101D300019462CE795EA0C0F06D152EA03353FF419
:101D4000FDAE1046194622E750EA410618BF52EA96
:101D500043067FF4C5AE50EA41047FF40DAF52EA6A
:101D600043057FF4EBAE12E74FF0FF3C06E000BF07
:101D70004FF0010C02E000BF4FF0010C4DF804CD14
:101D80004FEA410C7FEA6C5C4FEA430C18BF7FEAD4
:101D90006C5C1BD001B050EA410C0CBF52EA430C02
:101DA00091EA030F02BF90EA020F0020704710F182
